{
  "contractName": "CrowdFund",
  "abi": [
    {
      "inputs": [],
      "stateMutability": "nonpayable",
      "type": "constructor"
    },
    {
      "inputs": [],
      "name": "CrowdFund__Invalid",
      "type": "error"
    },
    {
      "inputs": [],
      "name": "CrowdFund__TransactionFailed",
      "type": "error"
    },
    {
      "anonymous": false,
      "inputs": [
        {
          "indexed": true,
          "internalType": "uint256",
          "name": "_id",
          "type": "uint256"
        },
        {
          "indexed": false,
          "internalType": "uint32",
          "name": "_withdrawalRequestIndex",
          "type": "uint32"
        }
      ],
      "name": "ApproveRequest",
      "type": "event"
    },
    {
      "anonymous": false,
      "inputs": [
        {
          "indexed": true,
          "internalType": "uint256",
          "name": "id",
          "type": "uint256"
        },
        {
          "indexed": false,
          "internalType": "string",
          "name": "name",
          "type": "string"
        },
        {
          "indexed": false,
          "internalType": "uint256",
          "name": "projectDeadline",
          "type": "uint256"
        },
        {
          "indexed": false,
          "internalType": "uint256",
          "name": "goal",
          "type": "uint256"
        }
      ],
      "name": "ExpireFundraise",
      "type": "event"
    },
    {
      "anonymous": false,
      "inputs": [
        {
          "indexed": true,
          "internalType": "uint256",
          "name": "id",
          "type": "uint256"
        },
        {
          "indexed": false,
          "internalType": "address",
          "name": "contributor",
          "type": "address"
        },
        {
          "indexed": false,
          "internalType": "uint256",
          "name": "amount",
          "type": "uint256"
        },
        {
          "indexed": false,
          "internalType": "uint256",
          "name": "totalPledged",
          "type": "uint256"
        }
      ],
      "name": "FundsReceive",
      "type": "event"
    },
    {
      "anonymous": false,
      "inputs": [
        {
          "indexed": true,
          "internalType": "uint256",
          "name": "id",
          "type": "uint256"
        },
        {
          "indexed": false,
          "internalType": "address",
          "name": "refundRequestUser",
          "type": "address"
        },
        {
          "indexed": false,
          "internalType": "uint256",
          "name": "refundAmt",
          "type": "uint256"
        }
      ],
      "name": "GenerateRefund",
      "type": "event"
    },
    {
      "anonymous": false,
      "inputs": [
        {
          "indexed": true,
          "internalType": "uint256",
          "name": "id",
          "type": "uint256"
        },
        {
          "indexed": false,
          "internalType": "address",
          "name": "projectCreator",
          "type": "address"
        },
        {
          "indexed": false,
          "internalType": "string",
          "name": "projectTitle",
          "type": "string"
        },
        {
          "indexed": false,
          "internalType": "string",
          "name": "projectDesc",
          "type": "string"
        },
        {
          "indexed": false,
          "internalType": "uint256",
          "name": "projectDeadline",
          "type": "uint256"
        },
        {
          "indexed": false,
          "internalType": "uint256",
          "name": "goalAmount",
          "type": "uint256"
        }
      ],
      "name": "NewProjectCreated",
      "type": "event"
    },
    {
      "anonymous": false,
      "inputs": [
        {
          "indexed": true,
          "internalType": "uint256",
          "name": "id",
          "type": "uint256"
        },
        {
          "indexed": false,
          "internalType": "string",
          "name": "description",
          "type": "string"
        },
        {
          "indexed": false,
          "internalType": "uint256",
          "name": "amount",
          "type": "uint256"
        }
      ],
      "name": "NewWithdrawalRequest",
      "type": "event"
    },
    {
      "anonymous": false,
      "inputs": [
        {
          "indexed": true,
          "internalType": "uint256",
          "name": "_id",
          "type": "uint256"
        },
        {
          "indexed": false,
          "internalType": "uint32",
          "name": "_withdrawalRequestIndex",
          "type": "uint32"
        },
        {
          "indexed": false,
          "internalType": "uint256",
          "name": "_amountTransfered",
          "type": "uint256"
        }
      ],
      "name": "PayCreator",
      "type": "event"
    },
    {
      "anonymous": false,
      "inputs": [
        {
          "indexed": true,
          "internalType": "uint256",
          "name": "_id",
          "type": "uint256"
        },
        {
          "indexed": false,
          "internalType": "uint32",
          "name": "_withdrawalRequestIndex",
          "type": "uint32"
        },
        {
          "indexed": false,
          "internalType": "uint256",
          "name": "_amountTransfered",
          "type": "uint256"
        }
      ],
      "name": "PayPlatform",
      "type": "event"
    },
    {
      "anonymous": false,
      "inputs": [
        {
          "indexed": true,
          "internalType": "uint256",
          "name": "_id",
          "type": "uint256"
        },
        {
          "indexed": false,
          "internalType": "uint32",
          "name": "_withdrawalRequestIndex",
          "type": "uint32"
        }
      ],
      "name": "RejectRequest",
      "type": "event"
    },
    {
      "anonymous": false,
      "inputs": [
        {
          "indexed": true,
          "internalType": "uint256",
          "name": "id",
          "type": "uint256"
        },
        {
          "indexed": false,
          "internalType": "string",
          "name": "name",
          "type": "string"
        },
        {
          "indexed": false,
          "internalType": "uint256",
          "name": "projectDeadline",
          "type": "uint256"
        },
        {
          "indexed": false,
          "internalType": "uint256",
          "name": "goal",
          "type": "uint256"
        }
      ],
      "name": "SuccessButContinueFundRaise",
      "type": "event"
    },
    {
      "anonymous": false,
      "inputs": [
        {
          "indexed": true,
          "internalType": "uint256",
          "name": "id",
          "type": "uint256"
        },
        {
          "indexed": false,
          "internalType": "string",
          "name": "name",
          "type": "string"
        },
        {
          "indexed": false,
          "internalType": "uint256",
          "name": "projectDeadline",
          "type": "uint256"
        },
        {
          "indexed": false,
          "internalType": "uint256",
          "name": "goal",
          "type": "uint256"
        }
      ],
      "name": "SuccessFundRaise",
      "type": "event"
    },
    {
      "anonymous": false,
      "inputs": [
        {
          "indexed": true,
          "internalType": "uint256",
          "name": "_id",
          "type": "uint256"
        },
        {
          "indexed": false,
          "internalType": "uint32",
          "name": "_withdrawalRequestIndex",
          "type": "uint32"
        }
      ],
      "name": "TransferRequestFunds",
      "type": "event"
    },
    {
      "stateMutability": "payable",
      "type": "fallback",
      "payable": true
    },
    {
      "inputs": [
        {
          "internalType": "uint256",
          "name": "",
          "type": "uint256"
        },
        {
          "internalType": "address",
          "name": "",
          "type": "address"
        }
      ],
      "name": "contributions",
      "outputs": [
        {
          "internalType": "uint256",
          "name": "",
          "type": "uint256"
        }
      ],
      "stateMutability": "view",
      "type": "function",
      "constant": true
    },
    {
      "inputs": [
        {
          "internalType": "uint256",
          "name": "",
          "type": "uint256"
        }
      ],
      "name": "idToProject",
      "outputs": [
        {
          "internalType": "uint256",
          "name": "id",
          "type": "uint256"
        },
        {
          "internalType": "address payable",
          "name": "creator",
          "type": "address"
        },
        {
          "internalType": "string",
          "name": "name",
          "type": "string"
        },
        {
          "internalType": "string",
          "name": "description",
          "type": "string"
        },
        {
          "internalType": "uint256",
          "name": "projectDeadline",
          "type": "uint256"
        },
        {
          "internalType": "uint256",
          "name": "totalPledged",
          "type": "uint256"
        },
        {
          "internalType": "uint256",
          "name": "goal",
          "type": "uint256"
        },
        {
          "internalType": "uint256",
          "name": "totalDepositors",
          "type": "uint256"
        },
        {
          "internalType": "uint256",
          "name": "totalWithdrawn",
          "type": "uint256"
        },
        {
          "internalType": "enum CrowdFund.State",
          "name": "currentState",
          "type": "uint8"
        }
      ],
      "stateMutability": "view",
      "type": "function",
      "constant": true
    },
    {
      "inputs": [
        {
          "internalType": "uint256",
          "name": "",
          "type": "uint256"
        },
        {
          "internalType": "uint256",
          "name": "",
          "type": "uint256"
        }
      ],
      "name": "idToWithdrawalRequests",
      "outputs": [
        {
          "internalType": "uint32",
          "name": "index",
          "type": "uint32"
        },
        {
          "internalType": "string",
          "name": "description",
          "type": "string"
        },
        {
          "internalType": "uint256",
          "name": "withdrawalAmount",
          "type": "uint256"
        },
        {
          "internalType": "address payable",
          "name": "recipient",
          "type": "address"
        },
        {
          "internalType": "uint256",
          "name": "approvedVotes",
          "type": "uint256"
        },
        {
          "internalType": "enum CrowdFund.Withdrawal",
          "name": "currentWithdrawalState",
          "type": "uint8"
        },
        {
          "internalType": "bool",
          "name": "withdrawn",
          "type": "bool"
        }
      ],
      "stateMutability": "view",
      "type": "function",
      "constant": true
    },
    {
      "inputs": [],
      "name": "projectCount",
      "outputs": [
        {
          "internalType": "uint256",
          "name": "",
          "type": "uint256"
        }
      ],
      "stateMutability": "view",
      "type": "function",
      "constant": true
    },
    {
      "stateMutability": "payable",
      "type": "receive",
      "payable": true
    },
    {
      "inputs": [
        {
          "internalType": "string",
          "name": "_name",
          "type": "string"
        },
        {
          "internalType": "string",
          "name": "_description",
          "type": "string"
        },
        {
          "internalType": "uint256",
          "name": "_projectDeadline",
          "type": "uint256"
        },
        {
          "internalType": "uint256",
          "name": "_goalEth",
          "type": "uint256"
        }
      ],
      "name": "createNewProject",
      "outputs": [],
      "stateMutability": "nonpayable",
      "type": "function"
    },
    {
      "inputs": [
        {
          "internalType": "uint256",
          "name": "_id",
          "type": "uint256"
        }
      ],
      "name": "contributeFunds",
      "outputs": [],
      "stateMutability": "payable",
      "type": "function",
      "payable": true
    },
    {
      "inputs": [
        {
          "internalType": "uint256",
          "name": "_id",
          "type": "uint256"
        }
      ],
      "name": "endContributionsExpire",
      "outputs": [],
      "stateMutability": "nonpayable",
      "type": "function"
    },
    {
      "inputs": [
        {
          "internalType": "uint256",
          "name": "_id",
          "type": "uint256"
        }
      ],
      "name": "endContributionsSuccess",
      "outputs": [],
      "stateMutability": "nonpayable",
      "type": "function"
    },
    {
      "inputs": [
        {
          "internalType": "uint256",
          "name": "_id",
          "type": "uint256"
        }
      ],
      "name": "getRefund",
      "outputs": [],
      "stateMutability": "payable",
      "type": "function",
      "payable": true
    },
    {
      "inputs": [
        {
          "internalType": "uint256",
          "name": "_id",
          "type": "uint256"
        },
        {
          "internalType": "uint32",
          "name": "_requestNumber",
          "type": "uint32"
        },
        {
          "internalType": "string",
          "name": "_description",
          "type": "string"
        },
        {
          "internalType": "uint256",
          "name": "_amount",
          "type": "uint256"
        }
      ],
      "name": "createWithdrawalRequest",
      "outputs": [],
      "stateMutability": "nonpayable",
      "type": "function"
    },
    {
      "inputs": [
        {
          "internalType": "uint256",
          "name": "_id",
          "type": "uint256"
        },
        {
          "internalType": "uint32",
          "name": "_withdrawalRequestIndex",
          "type": "uint32"
        }
      ],
      "name": "approveWithdrawalRequest",
      "outputs": [],
      "stateMutability": "nonpayable",
      "type": "function"
    },
    {
      "inputs": [
        {
          "internalType": "uint256",
          "name": "_id",
          "type": "uint256"
        },
        {
          "internalType": "uint32",
          "name": "_withdrawalRequestIndex",
          "type": "uint32"
        }
      ],
      "name": "rejectWithdrawalRequest",
      "outputs": [],
      "stateMutability": "nonpayable",
      "type": "function"
    },
    {
      "inputs": [
        {
          "internalType": "uint256",
          "name": "_id",
          "type": "uint256"
        },
        {
          "internalType": "uint32",
          "name": "_withdrawalRequestIndex",
          "type": "uint32"
        }
      ],
      "name": "transferWithdrawalRequestFunds",
      "outputs": [],
      "stateMutability": "payable",
      "type": "function",
      "payable": true
    },
    {
      "inputs": [
        {
          "internalType": "uint256",
          "name": "_id",
          "type": "uint256"
        }
      ],
      "name": "getProjectDetails",
      "outputs": [
        {
          "internalType": "address",
          "name": "creator",
          "type": "address"
        },
        {
          "internalType": "string",
          "name": "name",
          "type": "string"
        },
        {
          "internalType": "string",
          "name": "description",
          "type": "string"
        },
        {
          "internalType": "uint256",
          "name": "projectDeadline",
          "type": "uint256"
        },
        {
          "internalType": "uint256",
          "name": "totalPledged",
          "type": "uint256"
        },
        {
          "internalType": "uint256",
          "name": "goal",
          "type": "uint256"
        },
        {
          "internalType": "uint256",
          "name": "totalDepositors",
          "type": "uint256"
        },
        {
          "internalType": "uint256",
          "name": "totalWithdrawn",
          "type": "uint256"
        },
        {
          "internalType": "enum CrowdFund.State",
          "name": "currentState",
          "type": "uint8"
        }
      ],
      "stateMutability": "view",
      "type": "function",
      "constant": true
    },
    {
      "inputs": [],
      "name": "getAllProjects",
      "outputs": [
        {
          "components": [
            {
              "internalType": "uint256",
              "name": "id",
              "type": "uint256"
            },
            {
              "internalType": "address payable",
              "name": "creator",
              "type": "address"
            },
            {
              "internalType": "string",
              "name": "name",
              "type": "string"
            },
            {
              "internalType": "string",
              "name": "description",
              "type": "string"
            },
            {
              "internalType": "uint256",
              "name": "projectDeadline",
              "type": "uint256"
            },
            {
              "internalType": "uint256",
              "name": "totalPledged",
              "type": "uint256"
            },
            {
              "internalType": "uint256",
              "name": "goal",
              "type": "uint256"
            },
            {
              "internalType": "uint256",
              "name": "totalDepositors",
              "type": "uint256"
            },
            {
              "internalType": "uint256",
              "name": "totalWithdrawn",
              "type": "uint256"
            },
            {
              "internalType": "enum CrowdFund.State",
              "name": "currentState",
              "type": "uint8"
            }
          ],
          "internalType": "struct CrowdFund.Project[]",
          "name": "",
          "type": "tuple[]"
        }
      ],
      "stateMutability": "view",
      "type": "function",
      "constant": true
    },
    {
      "inputs": [],
      "name": "getProjectCount",
      "outputs": [
        {
          "internalType": "uint256",
          "name": "count",
          "type": "uint256"
        }
      ],
      "stateMutability": "view",
      "type": "function",
      "constant": true
    },
    {
      "inputs": [
        {
          "internalType": "uint256",
          "name": "_id",
          "type": "uint256"
        }
      ],
      "name": "getAllWithdrawalRequests",
      "outputs": [
        {
          "components": [
            {
              "internalType": "uint32",
              "name": "index",
              "type": "uint32"
            },
            {
              "internalType": "string",
              "name": "description",
              "type": "string"
            },
            {
              "internalType": "uint256",
              "name": "withdrawalAmount",
              "type": "uint256"
            },
            {
              "internalType": "address payable",
              "name": "recipient",
              "type": "address"
            },
            {
              "internalType": "uint256",
              "name": "approvedVotes",
              "type": "uint256"
            },
            {
              "internalType": "enum CrowdFund.Withdrawal",
              "name": "currentWithdrawalState",
              "type": "uint8"
            },
            {
              "internalType": "bool",
              "name": "withdrawn",
              "type": "bool"
            }
          ],
          "internalType": "struct CrowdFund.WithdrawalRequest[]",
          "name": "",
          "type": "tuple[]"
        }
      ],
      "stateMutability": "view",
      "type": "function",
      "constant": true
    },
    {
      "inputs": [
        {
          "internalType": "uint256",
          "name": "_id",
          "type": "uint256"
        },
        {
          "internalType": "address",
          "name": "_contributor",
          "type": "address"
        }
      ],
      "name": "getContributions",
      "outputs": [
        {
          "internalType": "uint256",
          "name": "",
          "type": "uint256"
        }
      ],
      "stateMutability": "view",
      "type": "function",
      "constant": true
    }
  ],
  "bytecode": "0x608060405234801561001057600080fd5b506001600081815581546001600160a01b0319163317909155600355612cb48061003b6000396000f3fe6080604052600436106101015760003560e01c80636bb05fd81161008f57806394e113091161006157806394e113091461031a578063aafc92d61461033a578063c1d445ba1461037d578063d2f0be991461039d578063ec45db6b146103b057005b80636bb05fd81461027557806376b8395e1461029557806380d03829146102c2578063931c1d89146102e457005b806345120f86116100d357806345120f86146101da57806348a05132146101ed5780634d0f9c68146102005780635f8439e314610220578063609a7dbe1461025557005b806301c2c9ba1461014457806336fbad26146101645780633bcff3b01461018d5780633d891f59146101a257005b36610142576001546040516001600160a01b03909116903480156108fc02916000818181858888f1935050505015801561013f573d6000803e3d6000fd5b50005b005b34801561015057600080fd5b5061014261015f366004612609565b6103e3565b34801561017057600080fd5b5061017a60035481565b6040519081526020015b60405180910390f35b34801561019957600080fd5b5060035461017a565b3480156101ae57600080fd5b5061017a6101bd366004612583565b600560209081526000928352604080842090915290825290205481565b6101426101e83660046125de565b6106c9565b6101426101fb36600461256b565b610b90565b34801561020c57600080fd5b5061014261021b36600461256b565b610d63565b34801561022c57600080fd5b5061024061023b36600461256b565b610e5e565b60405161018499989796959493929190612720565b34801561026157600080fd5b506101426102703660046125de565b611005565b34801561028157600080fd5b5061014261029036600461256b565b611224565b3480156102a157600080fd5b506102b56102b036600461256b565b61134d565b6040516101849190612888565b3480156102ce57600080fd5b506102d761159a565b6040516101849190612796565b3480156102f057600080fd5b506103046102ff36600461256b565b61184a565b6040516101849a99989796959493929190612a4e565b34801561032657600080fd5b506101426103353660046124fa565b6119b7565b34801561034657600080fd5b5061017a610355366004612583565b60009182526005602090815260408084206001600160a01b0393909316845291905290205490565b34801561038957600080fd5b506101426103983660046125de565b611ba7565b6101426103ab36600461256b565b611e48565b3480156103bc57600080fd5b506103d06103cb3660046125bd565b61201a565b6040516101849796959493929190612acc565b60008481526004602052604090206001015484906001600160a01b0316331461041f57604051637dd9e12b60e01b815260040160405180910390fd5b8460028060008381526004602052604090206009015460ff16600281111561045757634e487b7160e01b600052602160045260246000fd5b1461047557604051637dd9e12b60e01b815260040160405180910390fd5b6000878152600460205260409020600581015460089091015411156104ad576040516303ee899f60e51b815260040160405180910390fd5b6000878152600760205260409020546104cd9063ffffffff166001612b43565b63ffffffff168663ffffffff16146104f857604051637dd9e12b60e01b815260040160405180910390fd5b600061050c85670de0b6b3a7640000612b8b565b6040805160e08101825263ffffffff8a8116825260208083018b815283850186905260008e8152600483528581206001908101546001600160a01b031660608701526080860182905260a0860181905260c086018290528f825260068085529682208054808301825590835291849020865192909702909601805463ffffffff1916919094161783555180519596509294859492936105af9385019201906122dc565b506040820151600282015560608201516003820180546001600160a01b0319166001600160a01b039092169190911790556080820151600482015560a082015160058201805460ff19166001838181111561061a57634e487b7160e01b600052602160045260246000fd5b021790555060c09190910151600590910180549115156101000261ff0019909216919091179055600089815260076020526040812080546001929061066690849063ffffffff16612b43565b92506101000a81548163ffffffff021916908363ffffffff160217905550887fa37d57837469eb033a5f2b4e3333c3523977fcc88d9ff414952850be9cfa64b488886040516106b6929190612940565b60405180910390a2505050505050505050565b60008281526004602052604090206001015482906001600160a01b0316331461070557604051637dd9e12b60e01b815260040160405180910390fd5b6000838152600760205260409020548390839063ffffffff80831691161461074057604051637dd9e12b60e01b815260040160405180910390fd5b6002600054141561076c5760405162461bcd60e51b815260040161076390612a17565b60405180910390fd5b600260008181558681526004602052604090206007015461078c91612116565b60008681526006602052604090206107a5600187612bc1565b63ffffffff16815481106107c957634e487b7160e01b600052603260045260246000fd5b90600052602060002090600602016004015410156107fa576040516303ee899f60e51b815260040160405180910390fd5b6000858152600660205260409020610813600186612bc1565b63ffffffff168154811061083757634e487b7160e01b600052603260045260246000fd5b600091825260209091206005600690920201015460ff61010090910416151560011415610877576040516303ee899f60e51b815260040160405180910390fd5b600085815260046020908152604080832060050154600690925290912061089f600187612bc1565b63ffffffff16815481106108c357634e487b7160e01b600052603260045260246000fd5b90600052602060002090600602016002015411156108f4576040516303ee899f60e51b815260040160405180910390fd5b600085815260066020526040812061090d600187612bc1565b63ffffffff168154811061093157634e487b7160e01b600052603260045260246000fd5b9060005260206000209060060201905060006109676103e86109616003856002015461212990919063ffffffff16565b90612116565b6001546040519192506000916001600160a01b039091169083908381818185875af1925050503d80600081146109b9576040519150601f19603f3d011682016040523d82523d6000602084013e6109be565b606091505b50509050806109e057604051637dd9e12b60e01b815260040160405180910390fd5b6040805163ffffffff891681526020810184905289917f7afc4bae9e6d0e661f2ce0c1dce50a3343eb3d1ade8d52b9be5aa4d58a959858910160405180910390a260008881526004602052604081206001015460028501546001600160a01b039091169190610a50908590612baa565b90506000826001600160a01b03168260405160006040518083038185875af1925050503d8060008114610a9f576040519150601f19603f3d011682016040523d82523d6000602084013e610aa4565b606091505b5050905080610ac657604051637dd9e12b60e01b815260040160405180910390fd5b6040805163ffffffff8c168152602081018490528c917f27ae59d111e674b3cbf2ac19158097c97ed2f28fc764b66f9fa7e82b775def3d910160405180910390a260058601805461ff001916610100179055600286015460008c81526004602052604081206008018054909190610b3e908490612b2b565b909155505060405163ffffffff8b1681528b907f7504b85ae1674ef95f5e2fa834bb48de5507b38a5e144bc39623c2904c77a77d9060200160405180910390a250506001600055505050505050505050565b8060008060008381526004602052604090206009015460ff166002811115610bc857634e487b7160e01b600052602160045260246000fd5b14610be657604051637dd9e12b60e01b815260040160405180910390fd5b60026000541415610c095760405162461bcd60e51b815260040161076390612a17565b6002600055600354831115610c3157604051637dd9e12b60e01b815260040160405180910390fd5b60008381526004602081905260409091200154421115610c64576040516303ee899f60e51b815260040160405180910390fd5b3060009081526002602052604081208054349290610c83908490612b2b565b9091555050600083815260056020908152604080832033845290915281208054349290610cb1908490612b2b565b909155505060008381526004602052604081206005018054349290610cd7908490612b2b565b90915550506000838152600460205260408120600701805460019290610cfe908490612b2b565b9091555050600083815260046020908152604091829020600501548251338152349281019290925281830152905184917f96d677f95277e6d3f1e654cf54d6351531e1d08e3bafd5465d62827c1ad19990919081900360600190a25050600160005550565b60008181526004602052604081206009015482918291819060ff166002811115610d9d57634e487b7160e01b600052602160045260246000fd5b14610dbb57604051637dd9e12b60e01b815260040160405180910390fd5b60008481526004602081905260409091200154421015610dee576040516303ee899f60e51b815260040160405180910390fd5b60008481526004602081905260409182902060098101805460ff19166001179055908101546006820154925187937fdb9232394d6106fcda07dcda0ef3d7dd5c910776908c279f0e55ae9dc65e804f93610e5093600290910192909190612962565b60405180910390a250505050565b60008181526004602052604081206001810154600290910180546001600160a01b0390921692606092839282918291829182918291610e9c90612be6565b80601f0160208091040260200160405190810160405280929190818152602001828054610ec890612be6565b8015610f155780601f10610eea57610100808354040283529160200191610f15565b820191906000526020600020905b815481529060010190602001808311610ef857829003601f168201915b50505060008d81526004602052604090206003018054939b5092610f3b92509050612be6565b80601f0160208091040260200160405190810160405280929190818152602001828054610f6790612be6565b8015610fb45780601f10610f8957610100808354040283529160200191610fb4565b820191906000526020600020905b815481529060010190602001808311610f9757829003601f168201915b50505060009c8d525050600460208190526040909b209a8b015460058c015460068d015460078e015460088f01546009909f01549d9f9c9e949d939c929b50909950975091955060ff169350915050565b60008281526004602052604090206009015482908190600290819060ff168181111561104157634e487b7160e01b600052602160045260246000fd5b1461105f57604051637dd9e12b60e01b815260040160405180910390fd5b6000858152600760205260409020548590859063ffffffff80831691161461109a57604051637dd9e12b60e01b815260040160405180910390fd5b6110a5878733612135565b156110c357604051637dd9e12b60e01b815260040160405180910390fd5b6110ce87873361220d565b156110ec57604051637dd9e12b60e01b815260040160405180910390fd5b60008781526007602052604081205463ffffffff16905b8181101561118d5763ffffffff881661111d826001612b2b565b141561117b5760008981526006602052604090208054600191908390811061115557634e487b7160e01b600052603260045260246000fd5b906000526020600020906006020160040160008282546111759190612b2b565b90915550505b8061118581612c21565b915050611103565b506000888152600860205260408120906111a860018a612bc1565b63ffffffff9081168252602080830193909352604091820160009081208054600181018255908252908490200180546001600160a01b031916331790559051908916815289917ffd21b63d56fe3d4851c3b38b5800335b6b1651056961e7299ce755362169be9291015b60405180910390a25050505050505050565b60008181526004602052604090206001015481906001600160a01b0316331461126057604051637dd9e12b60e01b815260040160405180910390fd5b8160008060008381526004602052604090206009015460ff16600281111561129857634e487b7160e01b600052602160045260246000fd5b146112b657604051637dd9e12b60e01b815260040160405180910390fd5b6000848152600460205260409020600681015460059091015410156112ee576040516303ee899f60e51b815260040160405180910390fd5b60008481526004602081905260409182902060098101805460ff19166002908117909155918101546006820154935188947f4674ab4436b804febf0a1526a0addd752d2762b69048ab01fe978c427a723f7b94610e5094019291612962565b60008181526007602052604081205460609163ffffffff909116908167ffffffffffffffff81111561138f57634e487b7160e01b600052604160045260246000fd5b6040519080825280602002602001820160405280156113c857816020015b6113b5612360565b8152602001906001900390816113ad5790505b50905060005b8281101561159257600085815260066020526040812080548390811061140457634e487b7160e01b600052603260045260246000fd5b60009182526020918290206040805160e08101909152600690920201805463ffffffff168252600181018054919450919284929084019161144490612be6565b80601f016020809104026020016040519081016040528092919081815260200182805461147090612be6565b80156114bd5780601f10611492576101008083540402835291602001916114bd565b820191906000526020600020905b8154815290600101906020018083116114a057829003601f168201915b50505091835250506002820154602082015260038201546001600160a01b0316604082015260048201546060820152600582015460809091019060ff16600181111561151957634e487b7160e01b600052602160045260246000fd5b600181111561153857634e487b7160e01b600052602160045260246000fd5b815260059190910154610100900460ff161515602090910152835184908490811061157357634e487b7160e01b600052603260045260246000fd5b602002602001018190525050808061158a90612c21565b9150506113ce565b509392505050565b60035460609060008167ffffffffffffffff8111156115c957634e487b7160e01b600052604160045260246000fd5b60405190808252806020026020018201604052801561160257816020015b6115ef6123cb565b8152602001906001900390816115e75790505b50905060005b8281101561184357600061161d826001612b2b565b6000818152600460209081526040918290208251610140810184528154815260018201546001600160a01b031692810192909252600281018054949550909391928492908401919061166e90612be6565b80601f016020809104026020016040519081016040528092919081815260200182805461169a90612be6565b80156116e75780601f106116bc576101008083540402835291602001916116e7565b820191906000526020600020905b8154815290600101906020018083116116ca57829003601f168201915b5050505050815260200160038201805461170090612be6565b80601f016020809104026020016040519081016040528092919081815260200182805461172c90612be6565b80156117795780601f1061174e57610100808354040283529160200191611779565b820191906000526020600020905b81548152906001019060200180831161175c57829003601f168201915b505050918352505060048201546020820152600582015460408201526006820154606082015260078201546080820152600882015460a0820152600982015460c09091019060ff1660028111156117e057634e487b7160e01b600052602160045260246000fd5b60028111156117ff57634e487b7160e01b600052602160045260246000fd5b8152505084848151811061182357634e487b7160e01b600052603260045260246000fd5b60200260200101819052505050808061183b90612c21565b915050611608565b5092915050565b60046020526000908152604090208054600182015460028301805492936001600160a01b039092169261187c90612be6565b80601f01602080910402602001604051908101604052809291908181526020018280546118a890612be6565b80156118f55780601f106118ca576101008083540402835291602001916118f5565b820191906000526020600020905b8154815290600101906020018083116118d857829003601f168201915b50505050509080600301805461190a90612be6565b80601f016020809104026020016040519081016040528092919081815260200182805461193690612be6565b80156119835780601f1061195857610100808354040283529160200191611983565b820191906000526020600020905b81548152906001019060200180831161196657829003601f168201915b5050506004840154600585015460068601546007870154600888015460099098015496979396929550909350919060ff168a565b6001600360008282546119ca9190612b2b565b90915550600090506119e482670de0b6b3a7640000612b8b565b905060006040518061014001604052806003548152602001336001600160a01b0316815260200187815260200186815260200185815260200160008152602001838152602001600081526020016000815260200160006002811115611a5957634e487b7160e01b600052602160045260246000fd5b905260035460009081526004602090815260409182902083518155838201516001820180546001600160a01b0319166001600160a01b039092169190911790559183015180519394508493611ab492600285019201906122dc565b5060608201518051611ad09160038401916020909101906122dc565b506080820151600482015560a0820151600582015560c0820151600682015560e08201516007820155610100820151600882015561012082015160098201805460ff19166001836002811115611b3657634e487b7160e01b600052602160045260246000fd5b0217905550506003805460009081526007602052604090819020805463ffffffff19169055905490519091507f493a8ea55e13538971dc7a8db3b5ac7e6a8de74e7c0c2e948c70fa2ac16ea48990611b979033908a908a908a9089906126d5565b60405180910390a2505050505050565b60008281526004602052604090206009015482908190600290819060ff1681811115611be357634e487b7160e01b600052602160045260246000fd5b14611c0157604051637dd9e12b60e01b815260040160405180910390fd5b6000858152600760205260409020548590859063ffffffff808316911614611c3c57604051637dd9e12b60e01b815260040160405180910390fd5b611c47878733612135565b15611c6557604051637dd9e12b60e01b815260040160405180910390fd5b611c7087873361220d565b15611c8e57604051637dd9e12b60e01b815260040160405180910390fd5b60008781526007602052604081205463ffffffff16905b81811015611dbf5763ffffffff8816611cbf826001612b2b565b1415611dad576000898152600660205260409020805482908110611cf357634e487b7160e01b600052603260045260246000fd5b906000526020600020906006020160040154600014611d6957600089815260066020526040902080546001919083908110611d3e57634e487b7160e01b600052603260045260246000fd5b90600052602060002090600602016004016000828254611d5e9190612baa565b90915550611dad9050565b6000898152600660205260408120805483908110611d9757634e487b7160e01b600052603260045260246000fd5b9060005260206000209060060201600401819055505b80611db781612c21565b915050611ca5565b50600088815260096020526040812090611dda60018a612bc1565b63ffffffff9081168252602080830193909352604091820160009081208054600181018255908252908490200180546001600160a01b031916331790559051908916815289917f9c710ee7ed817a833424800d582393604b4cb4ea3f3f3b50da958c569b9309e59101611212565b60008181526004602052604090206009015481908190600190819060ff166002811115611e8557634e487b7160e01b600052602160045260246000fd5b14611ea357604051637dd9e12b60e01b815260040160405180910390fd5b60026000541415611ec65760405162461bcd60e51b815260040161076390612a17565b600260009081558481526004602081905260409091200154421015611efe57604051637dd9e12b60e01b815260040160405180910390fd5b600084815260056020908152604080832033808552925280832080549084905590519092919083908381818185875af1925050503d8060008114611f5e576040519150601f19603f3d011682016040523d82523d6000602084013e611f63565b606091505b5050905080611f8557604051637dd9e12b60e01b815260040160405180910390fd5b604080513381526020810184905287917fdab6c60b0a2712cc0de4026608821d29de83da8920bc8b93017005799f69f660910160405180910390a260008681526004602052604081206005018054849290611fe1908490612baa565b90915550506000868152600460205260408120600701805460019290612008908490612baa565b90915550506001600055505050505050565b6006602052816000526040600020818154811061203657600080fd5b60009182526020909120600690910201805460018201805463ffffffff909216945091925061206490612be6565b80601f016020809104026020016040519081016040528092919081815260200182805461209090612be6565b80156120dd5780601f106120b2576101008083540402835291602001916120dd565b820191906000526020600020905b8154815290600101906020018083116120c057829003601f168201915b50505050600283015460038401546004850154600590950154939491936001600160a01b03909116925060ff8082169161010090041687565b60006121228284612b6b565b9392505050565b60006121228284612b8b565b6000838152600860205260408120819081612151600187612bc1565b63ffffffff168152602081019190915260400160009081205491505b818110156122045760008681526008602052604081206001600160a01b03861691612199600189612bc1565b63ffffffff1663ffffffff16815260200190815260200160002082815481106121d257634e487b7160e01b600052603260045260246000fd5b6000918252602090912001546001600160a01b031614156121f257600192505b806121fc81612c21565b91505061216d565b50509392505050565b6000838152600960205260408120819081612229600187612bc1565b63ffffffff168152602081019190915260400160009081205491505b818110156122045760008681526009602052604081206001600160a01b03861691612271600189612bc1565b63ffffffff1663ffffffff16815260200190815260200160002082815481106122aa57634e487b7160e01b600052603260045260246000fd5b6000918252602090912001546001600160a01b031614156122ca57600192505b806122d481612c21565b915050612245565b8280546122e890612be6565b90600052602060002090601f01602090048101928261230a5760008555612350565b82601f1061232357805160ff1916838001178555612350565b82800160010185558215612350579182015b82811115612350578251825591602001919060010190612335565b5061235c929150612445565b5090565b6040518060e00160405280600063ffffffff168152602001606081526020016000815260200160006001600160a01b0316815260200160008152602001600060018111156123be57634e487b7160e01b600052602160045260246000fd5b8152600060209091015290565b6040518061014001604052806000815260200160006001600160a01b03168152602001606081526020016060815260200160008152602001600081526020016000815260200160008152602001600081526020016000600281111561244057634e487b7160e01b600052602160045260246000fd5b905290565b5b8082111561235c5760008155600101612446565b600082601f83011261246a578081fd5b813567ffffffffffffffff8082111561248557612485612c68565b604051601f8301601f19908116603f011681019082821181831017156124ad576124ad612c68565b816040528381528660208588010111156124c5578485fd5b8360208701602083013792830160200193909352509392505050565b803563ffffffff811681146124f557600080fd5b919050565b6000806000806080858703121561250f578384fd5b843567ffffffffffffffff80821115612526578586fd5b6125328883890161245a565b95506020870135915080821115612547578485fd5b506125548782880161245a565b949794965050505060408301359260600135919050565b60006020828403121561257c578081fd5b5035919050565b60008060408385031215612595578182fd5b8235915060208301356001600160a01b03811681146125b2578182fd5b809150509250929050565b600080604083850312156125cf578182fd5b50508035926020909101359150565b600080604083850312156125f0578182fd5b82359150612600602084016124e1565b90509250929050565b6000806000806080858703121561261e578384fd5b8435935061262e602086016124e1565b9250604085013567ffffffffffffffff811115612649578283fd5b6126558782880161245a565b949793965093946060013593505050565b6003811061267657612676612c52565b9052565b6002811061267657612676612c52565b60008151808452815b818110156126af57602081850181015186830182015201612693565b818111156126c05782602083870101525b50601f01601f19169290920160200192915050565b6001600160a01b038616815260a0602082018190526000906126f99083018761268a565b828103604084015261270b818761268a565b60608401959095525050608001529392505050565b6001600160a01b038a168152610120602082018190526000906127458382018c61268a565b90508281036040840152612759818b61268a565b9150508760608301528660808301528560a08301528460c08301528360e0830152612788610100830184612666565b9a9950505050505050505050565b60006020808301818452808551808352604092508286019150828160051b870101848801865b8381101561287a57603f19898403018552815180518452878101516001600160a01b03168885015286810151610140888601819052906127fe8287018261268a565b91505060608083015186830382880152612818838261268a565b6080858101519089015260a0808601519089015260c0808601519089015260e08086015190890152610100808601519089015261012094850151949093509150612866905081870184612666565b5095880195935050908601906001016127bc565b509098975050505050505050565b60006020808301818452808551808352604092508286019150828160051b870101848801865b8381101561287a57603f19898403018552815160e063ffffffff825116855288820151818a8701526128e28287018261268a565b838a0151878b01526060808501516001600160a01b0316908801526080808501519088015260a080850151919350915061291e8288018261267a565b505060c0918201511515949091019390935293860193908601906001016128ae565b604081526000612953604083018561268a565b90508260208301529392505050565b60608152600080855482600182811c91508083168061298257607f831692505b60208084108214156129a257634e487b7160e01b87526022600452602487fd5b60608801849052608088018280156129c157600181146129d2576129fc565b60ff198716825282820197506129fc565b60008d815260209020895b878110156129f6578154848201529086019084016129dd565b83019850505b50508701989098525050506040909201929092529392505050565b6020808252601f908201527f5265656e7472616e637947756172643a207265656e7472616e742063616c6c00604082015260600190565b8a81526001600160a01b038a16602082015261014060408201819052600090612a798382018c61268a565b90508281036060840152612a8d818b61268a565b9150508760808301528660a08301528560c08301528460e083015283610100830152612abd610120830184612666565b9b9a5050505050505050505050565b63ffffffff8816815260e060208201526000612aeb60e083018961268a565b604083018890526001600160a01b0387166060840152608083018690529050612b1760a083018561267a565b82151560c083015298975050505050505050565b60008219821115612b3e57612b3e612c3c565b500190565b600063ffffffff808316818516808303821115612b6257612b62612c3c565b01949350505050565b600082612b8657634e487b7160e01b81526012600452602481fd5b500490565b6000816000190483118215151615612ba557612ba5612c3c565b500290565b600082821015612bbc57612bbc612c3c565b500390565b600063ffffffff83811690831681811015612bde57612bde612c3c565b039392505050565b600181811c90821680612bfa57607f821691505b60208210811415612c1b57634e487b7160e01b600052602260045260246000fd5b50919050565b6000600019821415612c3557612c35612c3c565b5060010190565b634e487b7160e01b600052601160045260246000fd5b634e487b7160e01b600052602160045260246000fd5b634e487b7160e01b600052604160045260246000fdfea264697066735822122075909d2df105a23006c268f9a67781f9c4c2ff6cab12822a7e646056f5d7f60764736f6c63430008040033",
  "immutableReferences": {},
  "source": "/* \nTODO: change project struct name and description to bytes32 \n\n */\n\n// SPDX-License-Identifier: MIT\npragma solidity ^0.8.4;\n\nimport \"@openzeppelin/contracts/utils/math/SafeMath.sol\";\nimport \"@openzeppelin/contracts/security/ReentrancyGuard.sol\";\n\nerror CrowdFund__TransactionFailed();\nerror CrowdFund__Invalid();\n\ncontract CrowdFund is ReentrancyGuard {\n    using SafeMath for uint256;\n\n    /*===== Events =====*/\n    event NewProjectCreated(\n        uint256 indexed id,\n        address projectCreator,\n        string projectTitle,\n        string projectDesc,\n        uint256 projectDeadline,\n        uint256 goalAmount\n    );\n\n    event ExpireFundraise(\n        uint256 indexed id,\n        string name,\n        uint256 projectDeadline,\n        uint256 goal\n    );\n    \n    event SuccessFundRaise(\n        uint256 indexed id,\n        string name,\n        uint256 projectDeadline,\n        uint256 goal\n    );\n    \n    event SuccessButContinueFundRaise(\n        uint256 indexed id,\n        string name,\n        uint256 projectDeadline,\n        uint256 goal\n    );\n\n    event FundsReceive(\n        uint256 indexed id,\n        address contributor,\n        uint256 amount,\n        uint256 totalPledged\n    );\n\n    event NewWithdrawalRequest(\n        uint256 indexed id,\n        string description,\n        uint256 amount\n    );\n\n    event GenerateRefund(\n        uint256 indexed id,\n        address refundRequestUser,\n        uint256 refundAmt\n    );\n\n    event ApproveRequest(uint256 indexed _id, uint32 _withdrawalRequestIndex);\n\n    event RejectRequest(uint256 indexed _id, uint32 _withdrawalRequestIndex);\n\n    event TransferRequestFunds(\n        uint256 indexed _id,\n        uint32 _withdrawalRequestIndex\n    );\n\n    event PayCreator( uint256 indexed _id, uint32 _withdrawalRequestIndex, uint256 _amountTransfered);\n\n    event PayPlatform(uint256 indexed _id, uint32 _withdrawalRequestIndex, uint256 _amountTransfered);\n\n    /*===== State variables =====*/\n    address payable platformAdmin;\n\n    enum State {\n        Fundraise,\n        Expire,\n        Success\n    }\n\n    enum Withdrawal {\n        Allow,\n        Reject\n    }\n\n    struct Project {\n        // project ID\n        uint256 id;\n        // address of the creator of project\n        address payable creator;\n        // name of the project\n        string name;\n        // description of the project\n        string description;\n        // end of fundraising date\n        uint256 projectDeadline;\n        // total amount that has been pledged until this point\n        uint256 totalPledged;\n        // total amount needed for a successful campaign\n        uint256 goal;\n        // number of depositors\n        uint256 totalDepositors;\n        // total funds withdrawn from project\n        uint256 totalWithdrawn;\n        // current state of the fundraise\n        State currentState;\n        // holds URL of IPFS upload\n        // string ipfsURL;\n    }\n\n    struct WithdrawalRequest {\n        uint32 index;\n        // purpose of withdrawal\n        string description;\n        // amount of withdrawal requested\n        uint256 withdrawalAmount;\n        // project owner address\n        address payable recipient;\n        // total votes received for request\n        uint256 approvedVotes;\n        // current state of the withdrawal request\n        Withdrawal currentWithdrawalState;\n        // hash of the ipfs storage\n        // string ipfsHash;\n        // boolean to represent if amount has been withdrawn\n        bool withdrawn;\n    }\n\n    mapping(address => uint) balances;\n\n    // project states\n    uint256 public projectCount;\n    mapping(uint256 => Project) public idToProject;\n    // project id => contributor => contribution\n    mapping(uint256 => mapping(address => uint256)) public contributions;\n\n    // withdrawal requests\n    mapping(uint256 => WithdrawalRequest[]) public idToWithdrawalRequests;\n    // project ID => withdrawal request Index\n    mapping(uint256 => uint32) latestWithdrawalIndex;\n\n    // project id => request number => address of contributors\n    mapping(uint256 => mapping(uint32 => address[])) approvals;\n    mapping(uint256 => mapping(uint32 => address[])) rejections;\n\n\n    /*===== Modifiers =====*/\n    modifier checkState(uint256 _id, State _state) {\n        if(idToProject[_id].currentState != _state) {\n            revert CrowdFund__Invalid();\n        }\n        _;\n    }\n\n    modifier onlyAdmin() {\n        if(msg.sender != platformAdmin) {\n            revert CrowdFund__Invalid();\n        }\n        _;\n    }\n\n    modifier onlyProjectOwner(uint256 _id) {\n        if(msg.sender != idToProject[_id].creator) {\n            revert CrowdFund__Invalid();\n        }\n        _;\n    }\n\n    modifier onlyProjectDonor(uint256 _id) {\n        if(contributions[_id][msg.sender] < 0) {\n            revert CrowdFund__Invalid();\n        }\n        _;\n    }\n\n    modifier checkLatestWithdrawalIndex(\n        uint256 _id,\n        uint32 _withdrawalRequestIndex\n    ) {\n        if(latestWithdrawalIndex[_id] != _withdrawalRequestIndex) {\n            revert CrowdFund__Invalid();\n        }\n        _;\n    }\n\n    constructor() ReentrancyGuard() {\n        platformAdmin = payable(msg.sender);\n        projectCount = 0;\n    }\n\n    // make contract payable\n    fallback() external payable {}\n    receive() external payable {\n        platformAdmin.transfer(msg.value);\n    }\n    \n\n    /*===== Functions  =====*/\n\n    /** @dev Function to start a new project.\n     * @param _name Name of the project\n     * @param _description Project Description\n     * @param _projectDeadline Total days to end of fundraise\n     * @param _goalEth Project goal in ETH\n     */\n    function createNewProject(\n        string memory _name,\n        string memory _description,\n        uint256 _projectDeadline,\n        uint256 _goalEth\n    ) external {\n        // update ID\n        projectCount += 1;\n\n        // log goal as wei\n        uint256 _goal = _goalEth * 1e18;\n\n        // create new fundraise object\n        Project memory newFR = Project({\n            id: projectCount,\n            creator: payable(msg.sender),\n            name: _name,\n            description: _description,\n            projectDeadline: _projectDeadline,\n            totalPledged: 0,\n            goal: _goal,\n            currentState: State.Fundraise,\n            totalDepositors: 0,\n            totalWithdrawn: 0\n        });\n\n        // update mapping of id to new project\n        idToProject[projectCount] = newFR;\n\n        // initiate total withdrawal requests \n        latestWithdrawalIndex[projectCount] = 0;\n\n        // emit event\n        emit NewProjectCreated(\n            projectCount,\n            msg.sender,\n            _name,\n            _description,\n            _projectDeadline,\n            _goal\n        );\n    }\n\n    /** @dev Function to make a contribution to the project\n     * @param _id Project ID where contributions are to be made\n     */\n    function contributeFunds(uint256 _id)\n        external\n        payable\n        checkState(_id, State.Fundraise)\n        nonReentrant()\n    {\n        if(_id > projectCount) {\n            revert CrowdFund__Invalid();\n        }\n\n        if(msg.value < 0) {\n            revert CrowdFund__TransactionFailed();\n        }\n\n        if(block.timestamp > idToProject[_id].projectDeadline) {\n            revert CrowdFund__TransactionFailed();\n        }\n\n        // transfer contributions to contract address\n        balances[address(this)] += msg.value;\n\n        // add to contribution\n        contributions[_id][msg.sender] += msg.value;\n\n        // increase total contributions pledged to the project\n        idToProject[_id].totalPledged += msg.value;\n\n        // add one to total number of depositors for this project\n        idToProject[_id].totalDepositors += 1;\n\n        emit FundsReceive(\n            _id,\n            msg.sender,\n            msg.value,\n            idToProject[_id].totalPledged\n        );\n    }\n\n    /** @dev Function to end fundraising drive\n    * @param _id Project ID\n    */\n    function endContributionsExpire(uint256 _id) \n        external \n        onlyProjectDonor(_id)\n        checkState(_id, State.Fundraise) \n        {\n            if(block.timestamp < idToProject[_id].projectDeadline) {\n                revert CrowdFund__TransactionFailed();\n            }\n\n            idToProject[_id].currentState = State.Expire;\n            emit ExpireFundraise(_id,\n                idToProject[_id].name,\n                idToProject[_id].projectDeadline,\n                idToProject[_id].goal\n            );\n        }\n    \n    /** @dev Function to end fundraising drive with success is total pledged higher than goal. Irrespective of deadline\n    * @param _id Project ID\n    */\n    function endContributionsSuccess(uint256 _id) \n        external \n        onlyProjectOwner(_id)\n        checkState(_id, State.Fundraise) \n        {\n            // require(idToProject[_id].totalPledged >= idToProject[_id].goal, \"Did not receive enough funds\");\n            if(idToProject[_id].totalPledged < idToProject[_id].goal) {\n                revert CrowdFund__TransactionFailed(); \n            }\n\n            idToProject[_id].currentState = State.Success;\n            emit SuccessFundRaise(\n                _id,\n                idToProject[_id].name,\n                idToProject[_id].projectDeadline,\n                idToProject[_id].goal\n            );                \n        }\n\n    /** @dev Function to get refund on expired projects\n     * @param _id Project ID\n     */\n    function getRefund(uint256 _id)\n        external\n        payable\n        onlyProjectDonor(_id)\n        checkState(_id, State.Expire)\n        nonReentrant()\n    {\n        if(block.timestamp < idToProject[_id].projectDeadline) {\n            revert CrowdFund__Invalid();\n        }\n\n        // address payable _contributor = payable(msg.sender);\n        uint256 _amount = contributions[_id][msg.sender];\n        contributions[_id][msg.sender] = 0;\n        (bool success, ) = payable(msg.sender).call{value: _amount}(\"\");\n        if(!success) {\n            revert CrowdFund__Invalid();\n        }\n        // require(success, \"Transaction failed. Please try again later.\");\n        emit GenerateRefund(_id, msg.sender, _amount);\n\n        // update project state\n        idToProject[_id].totalPledged -= _amount;\n        idToProject[_id].totalDepositors -= 1;\n    }\n\n    /** @dev Function to create a request for withdrawal of funds\n    * @param _id Project ID\n    * @param _requestNumber Index of the request\n    * @param _description  Purpose of withdrawal\n    * @param _amount Amount of withdrawal requested in ETH\n    */\n    function createWithdrawalRequest(\n        uint256 _id,\n        uint32 _requestNumber,\n        string memory _description,\n        uint256 _amount\n    ) external onlyProjectOwner(_id) checkState(_id, State.Success){\n        if(idToProject[_id].totalWithdrawn > idToProject[_id].totalPledged) {\n            revert CrowdFund__TransactionFailed();\n        }\n        if(_requestNumber != latestWithdrawalIndex[_id] + 1) {\n            revert CrowdFund__Invalid();\n        }\n\n        // convert ETH to Wei units\n        uint256 _withdraw = _amount * 1e18;\n\n        // create new withdrawal request\n        WithdrawalRequest memory newWR = WithdrawalRequest({\n            index: _requestNumber,\n            description: _description,\n            withdrawalAmount: _withdraw,\n            // funds withdrawn to project owner\n            recipient: idToProject[_id].creator,\n            // initialized with no votes for request\n            approvedVotes: 0,\n            // state changes on quorum\n            currentWithdrawalState: Withdrawal.Reject,\n            withdrawn: false\n        });\n\n        // update project to request mapping\n        idToWithdrawalRequests[_id].push(newWR);\n        \n        latestWithdrawalIndex[_id] += 1;\n\n        // emit event\n        emit NewWithdrawalRequest(_id, _description, _amount);\n    }\n\n    /** @dev Function to check whether a given address has approved a specific request\n    * @param _id Project ID\n    * @param _withdrawalRequestIndex Index of the withdrawal request\n    * @param _checkAddress Address of the request initiator\n    */\n    function _checkAddressInApprovalsIterator(\n        uint256 _id,\n        uint32 _withdrawalRequestIndex, \n        address _checkAddress\n    )\n        internal\n        view \n        returns(bool approved) \n    {\n        uint256 arrayLength = approvals[_id][_withdrawalRequestIndex - 1].length;\n        // iterate over the array specific to this id and withdrawal request\n        for (uint256 i = 0; i < arrayLength; i++) {\n            // if address is in the array, return true\n            if(approvals[_id][_withdrawalRequestIndex - 1][i] == _checkAddress) {\n                approved = true;\n            }\n        }\n    }\n\n    /** @dev Function to check whether a given address has rejected a specific request\n    * @param _id Project ID\n    * @param _withdrawalRequestIndex Index of the withdrawal request\n    * @param _checkAddress Address of the request initiator\n    */\n    function _checkAddressInRejectionIterator(\n        uint256 _id,\n        uint32 _withdrawalRequestIndex, \n        address _checkAddress\n    ) \n        internal\n        view\n        returns(bool rejected) \n    {\n        uint256 arrayLength = rejections[_id][_withdrawalRequestIndex - 1].length;\n        // iterate over the array specific to this id and withdrawal request\n        for (uint256 i = 0; i < arrayLength; i++) {\n            // if address is in the array, return true\n            if(rejections[_id][_withdrawalRequestIndex - 1][i] == _checkAddress) {\n                rejected = true;\n            }\n        }\n    }\n\n    /** @dev Function to approve withdrawal of funds\n    * @param _id Project ID\n    * @param _withdrawalRequestIndex Index of withdrawal request\n    */\n    function approveWithdrawalRequest(\n        uint256 _id,\n        uint32 _withdrawalRequestIndex\n    )\n        external\n        onlyProjectDonor(_id)\n        checkState(_id, State.Success)\n        checkLatestWithdrawalIndex(_id, _withdrawalRequestIndex)\n    {\n        if(_checkAddressInApprovalsIterator(_id, _withdrawalRequestIndex, msg.sender)) {\n            revert CrowdFund__Invalid();\n        }\n\n        if(_checkAddressInRejectionIterator(_id, _withdrawalRequestIndex, msg.sender)) {\n            revert CrowdFund__Invalid();\n        }\n\n        // get total withdrawal requests made\n        uint256 _lastWithdrawal = latestWithdrawalIndex[_id];\n\n        // iterate over all requests for this project\n        for (uint256 i = 0; i < _lastWithdrawal; i++) {\n            // if request number is equal to index\n            if(i + 1 == _withdrawalRequestIndex) {\n                // increment approval count\n                idToWithdrawalRequests[_id][i].approvedVotes += 1;\n            }\n        }\n\n        // push msg.sender to approvals list for this request\n        approvals[_id][_withdrawalRequestIndex - 1].push(msg.sender);\n        \n        emit ApproveRequest(_id, _withdrawalRequestIndex);\n    }\n\n    /** @dev Function to reject withdrawal of funds\n     * @param _id Project ID\n     * @param _withdrawalRequestIndex Index of withdrawal request\n     */\n    function rejectWithdrawalRequest(\n        uint256 _id,\n        uint32 _withdrawalRequestIndex\n    )\n        external\n        onlyProjectDonor(_id)\n        checkState(_id, State.Success)\n        checkLatestWithdrawalIndex(_id, _withdrawalRequestIndex)\n    {\n        // confirm user hasn't approved request\n        if(_checkAddressInApprovalsIterator(_id, _withdrawalRequestIndex, msg.sender)) {\n            revert CrowdFund__Invalid();\n        }\n\n        if(_checkAddressInRejectionIterator(_id, _withdrawalRequestIndex, msg.sender)) {\n            revert CrowdFund__Invalid();\n        }\n\n        // get total withdrawal requests made\n        uint256 _lastWithdrawal = latestWithdrawalIndex[_id];\n\n        // iterate over all requests for this project\n        for (uint256 i = 0; i < _lastWithdrawal; i++) {\n            // if request number is equal to index\n            if(i + 1 == _withdrawalRequestIndex) {\n                // if there hve been approvals, decrement\n                if(idToWithdrawalRequests[_id][i].approvedVotes != 0) {\n                    // decrement approval count\n                    idToWithdrawalRequests[_id][i].approvedVotes -= 1;\n                } \n                    // else if no one has approved request yet, keep approvals to 0\n                else {\n                    idToWithdrawalRequests[_id][i].approvedVotes = 0;\n                }\n            }\n        }\n\n        // add msg.sender to rejections list for this request\n        rejections[_id][_withdrawalRequestIndex - 1].push(msg.sender);\n\n        emit RejectRequest(_id, _withdrawalRequestIndex);\n    }\n\n    /** @dev Function to transfer funds to project creator\n     * @param _id Project ID\n     * @param _withdrawalRequestIndex Index of withdrawal request\n     */\n    function transferWithdrawalRequestFunds(\n        uint256 _id,\n        uint32 _withdrawalRequestIndex\n    )\n        external\n        payable\n        onlyProjectOwner(_id)\n        checkLatestWithdrawalIndex(_id, _withdrawalRequestIndex)\n        nonReentrant()\n    {\n        if(idToWithdrawalRequests[_id][_withdrawalRequestIndex - 1].approvedVotes <\n                    (idToProject[_id].totalDepositors).div(2)) {\n            revert CrowdFund__TransactionFailed();\n        }\n\n        if(idToWithdrawalRequests[_id][_withdrawalRequestIndex - 1].withdrawn == true) {\n            revert CrowdFund__TransactionFailed();\n        }\n\n        if(idToWithdrawalRequests[_id][_withdrawalRequestIndex - 1].withdrawalAmount > idToProject[_id].totalPledged) {\n            revert CrowdFund__TransactionFailed();\n        }\n\n        WithdrawalRequest storage cRequest = idToWithdrawalRequests[_id][_withdrawalRequestIndex - 1];\n\n        // flat 0.3% platform fee\n        uint256 platformFee = (cRequest.withdrawalAmount.mul(3)).div(1000);\n        (bool pfSuccess, ) = payable(platformAdmin).call{value: platformFee}(\"\");\n        if(!pfSuccess) {\n            revert CrowdFund__Invalid();\n        }\n        emit PayPlatform(_id, _withdrawalRequestIndex, platformFee);\n        \n        // transfer funds to creator\n        address payable _creator = idToProject[_id].creator;\n        uint256 _amount = cRequest.withdrawalAmount - platformFee;\n        (bool success, ) = _creator.call{value: _amount}(\"\");\n        if(!success) {\n            revert CrowdFund__Invalid();\n        }\n        emit PayCreator(_id, _withdrawalRequestIndex, _amount);\n\n        // update states\n        cRequest.withdrawn = true;\n        idToProject[_id].totalWithdrawn += cRequest.withdrawalAmount;\n\n        emit TransferRequestFunds(_id, _withdrawalRequestIndex);\n    }\n\n    /*===== Blockchain get functions =====*/\n\n    /** @dev Function to get project details\n     * @param _id Project ID\n     */\n    function getProjectDetails(uint256 _id)\n        external\n        view\n        returns (\n            address creator,\n            string memory name,\n            string memory description,\n            uint256 projectDeadline,\n            uint256 totalPledged,\n            uint256 goal,\n            uint256 totalDepositors,\n            uint256 totalWithdrawn,\n            State currentState\n\n        )\n    {\n        creator = idToProject[_id].creator;\n        name = idToProject[_id].name;\n        description = idToProject[_id].description;\n        projectDeadline = idToProject[_id].projectDeadline;\n        totalPledged = idToProject[_id].totalPledged;\n        goal = idToProject[_id].goal;\n        totalDepositors = idToProject[_id].totalDepositors;\n        totalWithdrawn = idToProject[_id].totalWithdrawn;\n        currentState = idToProject[_id].currentState;\n    }\n\n    function getAllProjects() external view returns (Project[] memory) {\n        uint256 _projectCount = projectCount;\n\n        Project[] memory projects = new Project[](_projectCount);\n        for (uint256 i = 0; i < _projectCount; i++) {\n            uint256 currentId = i + 1;\n            Project storage currentItem = idToProject[currentId];\n            projects[i] = currentItem;\n        }\n        return projects;\n    }\n\n    function getProjectCount() external view returns (uint256 count) {\n        count = projectCount;\n    }\n\n    function getAllWithdrawalRequests(uint256 _id)\n        external\n        view\n        returns (WithdrawalRequest[] memory)\n    {\n        uint256 _lastWithdrawal = latestWithdrawalIndex[_id];\n\n        WithdrawalRequest[] memory withdrawals = new WithdrawalRequest[](\n            _lastWithdrawal\n        );\n        for (uint256 i = 0; i < _lastWithdrawal; i++) {\n            WithdrawalRequest storage currentRequest = idToWithdrawalRequests[_id][i];\n            withdrawals[i] = currentRequest;\n        }\n\n        return withdrawals;\n    }\n\n    function getContributions(uint256 _id, address _contributor) external view returns(uint256) {\n        return contributions[_id][_contributor];\n    }\n}\n",
  "sourcePath": "/home/dhruv/Desktop/projects/dapps/08 - crowdfund/contracts/CrowdFund.sol",
  "compiler": {
    "name": "solc",
    "version": "0.8.4+commit.c7e474f2.Emscripten.clang"
  },
  "schemaVersion": "3.4.7",
  "updatedAt": "2022-06-18T14:59:08.096Z",
  "networkType": "ethereum",
  "devdoc": {
    "kind": "dev",
    "methods": {
      "approveWithdrawalRequest(uint256,uint32)": {
        "details": "Function to approve withdrawal of funds",
        "params": {
          "_id": "Project ID",
          "_withdrawalRequestIndex": "Index of withdrawal request"
        }
      },
      "contributeFunds(uint256)": {
        "details": "Function to make a contribution to the project",
        "params": {
          "_id": "Project ID where contributions are to be made"
        }
      },
      "createNewProject(string,string,uint256,uint256)": {
        "details": "Function to start a new project.",
        "params": {
          "_description": "Project Description",
          "_goalEth": "Project goal in ETH",
          "_name": "Name of the project",
          "_projectDeadline": "Total days to end of fundraise"
        }
      },
      "createWithdrawalRequest(uint256,uint32,string,uint256)": {
        "details": "Function to create a request for withdrawal of funds",
        "params": {
          "_amount": "Amount of withdrawal requested in ETH",
          "_description": "Purpose of withdrawal",
          "_id": "Project ID",
          "_requestNumber": "Index of the request"
        }
      },
      "endContributionsExpire(uint256)": {
        "details": "Function to end fundraising drive",
        "params": {
          "_id": "Project ID"
        }
      },
      "endContributionsSuccess(uint256)": {
        "details": "Function to end fundraising drive with success is total pledged higher than goal. Irrespective of deadline",
        "params": {
          "_id": "Project ID"
        }
      },
      "getProjectDetails(uint256)": {
        "details": "Function to get project details",
        "params": {
          "_id": "Project ID"
        }
      },
      "getRefund(uint256)": {
        "details": "Function to get refund on expired projects",
        "params": {
          "_id": "Project ID"
        }
      },
      "rejectWithdrawalRequest(uint256,uint32)": {
        "details": "Function to reject withdrawal of funds",
        "params": {
          "_id": "Project ID",
          "_withdrawalRequestIndex": "Index of withdrawal request"
        }
      },
      "transferWithdrawalRequestFunds(uint256,uint32)": {
        "details": "Function to transfer funds to project creator",
        "params": {
          "_id": "Project ID",
          "_withdrawalRequestIndex": "Index of withdrawal request"
        }
      }
    },
    "version": 1
  },
  "userdoc": {
    "kind": "user",
    "methods": {},
    "version": 1
  }
}