{
  "contractName": "CrowdFund",
  "abi": [
    {
      "inputs": [],
      "stateMutability": "nonpayable",
      "type": "constructor"
    },
    {
      "anonymous": false,
      "inputs": [
        {
          "indexed": true,
          "internalType": "uint256",
          "name": "_id",
          "type": "uint256"
        },
        {
          "indexed": false,
          "internalType": "uint32",
          "name": "_withdrawalRequestIndex",
          "type": "uint32"
        }
      ],
      "name": "ApproveRequest",
      "type": "event"
    },
    {
      "anonymous": false,
      "inputs": [
        {
          "indexed": true,
          "internalType": "uint256",
          "name": "id",
          "type": "uint256"
        },
        {
          "indexed": false,
          "internalType": "string",
          "name": "name",
          "type": "string"
        },
        {
          "indexed": false,
          "internalType": "uint256",
          "name": "projectDeadline",
          "type": "uint256"
        },
        {
          "indexed": false,
          "internalType": "uint256",
          "name": "goal",
          "type": "uint256"
        }
      ],
      "name": "ExpireFundraise",
      "type": "event"
    },
    {
      "anonymous": false,
      "inputs": [
        {
          "indexed": true,
          "internalType": "uint256",
          "name": "id",
          "type": "uint256"
        },
        {
          "indexed": false,
          "internalType": "address",
          "name": "contributor",
          "type": "address"
        },
        {
          "indexed": false,
          "internalType": "uint256",
          "name": "amount",
          "type": "uint256"
        },
        {
          "indexed": false,
          "internalType": "uint256",
          "name": "totalPledged",
          "type": "uint256"
        }
      ],
      "name": "FundsReceive",
      "type": "event"
    },
    {
      "anonymous": false,
      "inputs": [
        {
          "indexed": true,
          "internalType": "uint256",
          "name": "id",
          "type": "uint256"
        },
        {
          "indexed": false,
          "internalType": "address",
          "name": "refundRequestUser",
          "type": "address"
        },
        {
          "indexed": false,
          "internalType": "uint256",
          "name": "refundAmt",
          "type": "uint256"
        }
      ],
      "name": "GenerateRefund",
      "type": "event"
    },
    {
      "anonymous": false,
      "inputs": [
        {
          "indexed": true,
          "internalType": "uint256",
          "name": "id",
          "type": "uint256"
        },
        {
          "indexed": false,
          "internalType": "address",
          "name": "projectCreator",
          "type": "address"
        },
        {
          "indexed": false,
          "internalType": "string",
          "name": "projectTitle",
          "type": "string"
        },
        {
          "indexed": false,
          "internalType": "string",
          "name": "projectDesc",
          "type": "string"
        },
        {
          "indexed": false,
          "internalType": "uint256",
          "name": "projectDeadline",
          "type": "uint256"
        },
        {
          "indexed": false,
          "internalType": "uint256",
          "name": "goalAmount",
          "type": "uint256"
        }
      ],
      "name": "NewProjectCreated",
      "type": "event"
    },
    {
      "anonymous": false,
      "inputs": [
        {
          "indexed": true,
          "internalType": "uint256",
          "name": "id",
          "type": "uint256"
        },
        {
          "indexed": false,
          "internalType": "string",
          "name": "description",
          "type": "string"
        },
        {
          "indexed": false,
          "internalType": "uint256",
          "name": "amount",
          "type": "uint256"
        }
      ],
      "name": "NewWithdrawalRequest",
      "type": "event"
    },
    {
      "anonymous": false,
      "inputs": [
        {
          "indexed": true,
          "internalType": "uint256",
          "name": "_id",
          "type": "uint256"
        },
        {
          "indexed": false,
          "internalType": "uint32",
          "name": "_withdrawalRequestIndex",
          "type": "uint32"
        },
        {
          "indexed": false,
          "internalType": "uint256",
          "name": "_amountTransfered",
          "type": "uint256"
        }
      ],
      "name": "PayCreator",
      "type": "event"
    },
    {
      "anonymous": false,
      "inputs": [
        {
          "indexed": true,
          "internalType": "uint256",
          "name": "_id",
          "type": "uint256"
        },
        {
          "indexed": false,
          "internalType": "uint32",
          "name": "_withdrawalRequestIndex",
          "type": "uint32"
        },
        {
          "indexed": false,
          "internalType": "uint256",
          "name": "_amountTransfered",
          "type": "uint256"
        }
      ],
      "name": "PayPlatform",
      "type": "event"
    },
    {
      "anonymous": false,
      "inputs": [
        {
          "indexed": true,
          "internalType": "uint256",
          "name": "_id",
          "type": "uint256"
        },
        {
          "indexed": false,
          "internalType": "uint32",
          "name": "_withdrawalRequestIndex",
          "type": "uint32"
        }
      ],
      "name": "RejectRequest",
      "type": "event"
    },
    {
      "anonymous": false,
      "inputs": [
        {
          "indexed": true,
          "internalType": "uint256",
          "name": "id",
          "type": "uint256"
        },
        {
          "indexed": false,
          "internalType": "string",
          "name": "name",
          "type": "string"
        },
        {
          "indexed": false,
          "internalType": "uint256",
          "name": "projectDeadline",
          "type": "uint256"
        },
        {
          "indexed": false,
          "internalType": "uint256",
          "name": "goal",
          "type": "uint256"
        }
      ],
      "name": "SuccessButContinueFundRaise",
      "type": "event"
    },
    {
      "anonymous": false,
      "inputs": [
        {
          "indexed": true,
          "internalType": "uint256",
          "name": "id",
          "type": "uint256"
        },
        {
          "indexed": false,
          "internalType": "string",
          "name": "name",
          "type": "string"
        },
        {
          "indexed": false,
          "internalType": "uint256",
          "name": "projectDeadline",
          "type": "uint256"
        },
        {
          "indexed": false,
          "internalType": "uint256",
          "name": "goal",
          "type": "uint256"
        }
      ],
      "name": "SuccessFundRaise",
      "type": "event"
    },
    {
      "anonymous": false,
      "inputs": [
        {
          "indexed": true,
          "internalType": "uint256",
          "name": "_id",
          "type": "uint256"
        },
        {
          "indexed": false,
          "internalType": "uint32",
          "name": "_withdrawalRequestIndex",
          "type": "uint32"
        }
      ],
      "name": "TransferRequestFunds",
      "type": "event"
    },
    {
      "stateMutability": "payable",
      "type": "fallback",
      "payable": true
    },
    {
      "inputs": [
        {
          "internalType": "uint256",
          "name": "",
          "type": "uint256"
        },
        {
          "internalType": "address",
          "name": "",
          "type": "address"
        }
      ],
      "name": "contributions",
      "outputs": [
        {
          "internalType": "uint256",
          "name": "",
          "type": "uint256"
        }
      ],
      "stateMutability": "view",
      "type": "function",
      "constant": true
    },
    {
      "inputs": [
        {
          "internalType": "uint256",
          "name": "",
          "type": "uint256"
        }
      ],
      "name": "idToProject",
      "outputs": [
        {
          "internalType": "uint256",
          "name": "id",
          "type": "uint256"
        },
        {
          "internalType": "address payable",
          "name": "creator",
          "type": "address"
        },
        {
          "internalType": "string",
          "name": "name",
          "type": "string"
        },
        {
          "internalType": "string",
          "name": "description",
          "type": "string"
        },
        {
          "internalType": "uint256",
          "name": "projectDeadline",
          "type": "uint256"
        },
        {
          "internalType": "uint256",
          "name": "totalPledged",
          "type": "uint256"
        },
        {
          "internalType": "uint256",
          "name": "goal",
          "type": "uint256"
        },
        {
          "internalType": "uint256",
          "name": "totalDepositors",
          "type": "uint256"
        },
        {
          "internalType": "uint256",
          "name": "totalWithdrawn",
          "type": "uint256"
        },
        {
          "internalType": "enum CrowdFund.State",
          "name": "currentState",
          "type": "uint8"
        }
      ],
      "stateMutability": "view",
      "type": "function",
      "constant": true
    },
    {
      "inputs": [
        {
          "internalType": "uint256",
          "name": "",
          "type": "uint256"
        },
        {
          "internalType": "uint256",
          "name": "",
          "type": "uint256"
        }
      ],
      "name": "idToWithdrawalRequests",
      "outputs": [
        {
          "internalType": "uint32",
          "name": "index",
          "type": "uint32"
        },
        {
          "internalType": "string",
          "name": "description",
          "type": "string"
        },
        {
          "internalType": "uint256",
          "name": "withdrawalAmount",
          "type": "uint256"
        },
        {
          "internalType": "address payable",
          "name": "recipient",
          "type": "address"
        },
        {
          "internalType": "uint256",
          "name": "approvedVotes",
          "type": "uint256"
        },
        {
          "internalType": "enum CrowdFund.Withdrawal",
          "name": "currentWithdrawalState",
          "type": "uint8"
        },
        {
          "internalType": "bool",
          "name": "withdrawn",
          "type": "bool"
        }
      ],
      "stateMutability": "view",
      "type": "function",
      "constant": true
    },
    {
      "inputs": [],
      "name": "projectCount",
      "outputs": [
        {
          "internalType": "uint256",
          "name": "",
          "type": "uint256"
        }
      ],
      "stateMutability": "view",
      "type": "function",
      "constant": true
    },
    {
      "stateMutability": "payable",
      "type": "receive",
      "payable": true
    },
    {
      "inputs": [
        {
          "internalType": "string",
          "name": "_name",
          "type": "string"
        },
        {
          "internalType": "string",
          "name": "_description",
          "type": "string"
        },
        {
          "internalType": "uint256",
          "name": "_projectDeadline",
          "type": "uint256"
        },
        {
          "internalType": "uint256",
          "name": "_goalEth",
          "type": "uint256"
        }
      ],
      "name": "createNewProject",
      "outputs": [],
      "stateMutability": "nonpayable",
      "type": "function"
    },
    {
      "inputs": [
        {
          "internalType": "uint256",
          "name": "_id",
          "type": "uint256"
        }
      ],
      "name": "contributeFunds",
      "outputs": [],
      "stateMutability": "payable",
      "type": "function",
      "payable": true
    },
    {
      "inputs": [
        {
          "internalType": "uint256",
          "name": "_id",
          "type": "uint256"
        }
      ],
      "name": "endContributionsExpire",
      "outputs": [],
      "stateMutability": "nonpayable",
      "type": "function"
    },
    {
      "inputs": [
        {
          "internalType": "uint256",
          "name": "_id",
          "type": "uint256"
        }
      ],
      "name": "endContributionsSuccess",
      "outputs": [],
      "stateMutability": "nonpayable",
      "type": "function"
    },
    {
      "inputs": [
        {
          "internalType": "uint256",
          "name": "_id",
          "type": "uint256"
        }
      ],
      "name": "getRefund",
      "outputs": [],
      "stateMutability": "payable",
      "type": "function",
      "payable": true
    },
    {
      "inputs": [
        {
          "internalType": "uint256",
          "name": "_id",
          "type": "uint256"
        },
        {
          "internalType": "uint32",
          "name": "_requestNumber",
          "type": "uint32"
        },
        {
          "internalType": "string",
          "name": "_description",
          "type": "string"
        },
        {
          "internalType": "uint256",
          "name": "_amount",
          "type": "uint256"
        }
      ],
      "name": "createWithdrawalRequest",
      "outputs": [],
      "stateMutability": "nonpayable",
      "type": "function"
    },
    {
      "inputs": [
        {
          "internalType": "uint256",
          "name": "_id",
          "type": "uint256"
        },
        {
          "internalType": "uint32",
          "name": "_withdrawalRequestIndex",
          "type": "uint32"
        }
      ],
      "name": "approveWithdrawalRequest",
      "outputs": [],
      "stateMutability": "nonpayable",
      "type": "function"
    },
    {
      "inputs": [
        {
          "internalType": "uint256",
          "name": "_id",
          "type": "uint256"
        },
        {
          "internalType": "uint32",
          "name": "_withdrawalRequestIndex",
          "type": "uint32"
        }
      ],
      "name": "rejectWithdrawalRequest",
      "outputs": [],
      "stateMutability": "nonpayable",
      "type": "function"
    },
    {
      "inputs": [
        {
          "internalType": "uint256",
          "name": "_id",
          "type": "uint256"
        },
        {
          "internalType": "uint32",
          "name": "_withdrawalRequestIndex",
          "type": "uint32"
        }
      ],
      "name": "transferWithdrawalRequestFunds",
      "outputs": [],
      "stateMutability": "payable",
      "type": "function",
      "payable": true
    },
    {
      "inputs": [
        {
          "internalType": "uint256",
          "name": "_id",
          "type": "uint256"
        }
      ],
      "name": "getProjectDetails",
      "outputs": [
        {
          "internalType": "address",
          "name": "creator",
          "type": "address"
        },
        {
          "internalType": "string",
          "name": "name",
          "type": "string"
        },
        {
          "internalType": "string",
          "name": "description",
          "type": "string"
        },
        {
          "internalType": "uint256",
          "name": "projectDeadline",
          "type": "uint256"
        },
        {
          "internalType": "uint256",
          "name": "totalPledged",
          "type": "uint256"
        },
        {
          "internalType": "uint256",
          "name": "goal",
          "type": "uint256"
        },
        {
          "internalType": "uint256",
          "name": "totalDepositors",
          "type": "uint256"
        },
        {
          "internalType": "uint256",
          "name": "totalWithdrawn",
          "type": "uint256"
        },
        {
          "internalType": "enum CrowdFund.State",
          "name": "currentState",
          "type": "uint8"
        }
      ],
      "stateMutability": "view",
      "type": "function",
      "constant": true
    },
    {
      "inputs": [],
      "name": "getAllProjects",
      "outputs": [
        {
          "components": [
            {
              "internalType": "uint256",
              "name": "id",
              "type": "uint256"
            },
            {
              "internalType": "address payable",
              "name": "creator",
              "type": "address"
            },
            {
              "internalType": "string",
              "name": "name",
              "type": "string"
            },
            {
              "internalType": "string",
              "name": "description",
              "type": "string"
            },
            {
              "internalType": "uint256",
              "name": "projectDeadline",
              "type": "uint256"
            },
            {
              "internalType": "uint256",
              "name": "totalPledged",
              "type": "uint256"
            },
            {
              "internalType": "uint256",
              "name": "goal",
              "type": "uint256"
            },
            {
              "internalType": "uint256",
              "name": "totalDepositors",
              "type": "uint256"
            },
            {
              "internalType": "uint256",
              "name": "totalWithdrawn",
              "type": "uint256"
            },
            {
              "internalType": "enum CrowdFund.State",
              "name": "currentState",
              "type": "uint8"
            }
          ],
          "internalType": "struct CrowdFund.Project[]",
          "name": "",
          "type": "tuple[]"
        }
      ],
      "stateMutability": "view",
      "type": "function",
      "constant": true
    },
    {
      "inputs": [],
      "name": "getProjectCount",
      "outputs": [
        {
          "internalType": "uint256",
          "name": "count",
          "type": "uint256"
        }
      ],
      "stateMutability": "view",
      "type": "function",
      "constant": true
    },
    {
      "inputs": [
        {
          "internalType": "uint256",
          "name": "_id",
          "type": "uint256"
        }
      ],
      "name": "getAllWithdrawalRequests",
      "outputs": [
        {
          "components": [
            {
              "internalType": "uint32",
              "name": "index",
              "type": "uint32"
            },
            {
              "internalType": "string",
              "name": "description",
              "type": "string"
            },
            {
              "internalType": "uint256",
              "name": "withdrawalAmount",
              "type": "uint256"
            },
            {
              "internalType": "address payable",
              "name": "recipient",
              "type": "address"
            },
            {
              "internalType": "uint256",
              "name": "approvedVotes",
              "type": "uint256"
            },
            {
              "internalType": "enum CrowdFund.Withdrawal",
              "name": "currentWithdrawalState",
              "type": "uint8"
            },
            {
              "internalType": "bool",
              "name": "withdrawn",
              "type": "bool"
            }
          ],
          "internalType": "struct CrowdFund.WithdrawalRequest[]",
          "name": "",
          "type": "tuple[]"
        }
      ],
      "stateMutability": "view",
      "type": "function",
      "constant": true
    },
    {
      "inputs": [
        {
          "internalType": "uint256",
          "name": "_id",
          "type": "uint256"
        },
        {
          "internalType": "address",
          "name": "_contributor",
          "type": "address"
        }
      ],
      "name": "getContributions",
      "outputs": [
        {
          "internalType": "uint256",
          "name": "",
          "type": "uint256"
        }
      ],
      "stateMutability": "view",
      "type": "function",
      "constant": true
    }
  ],
  "bytecode": "0x608060405234801561001057600080fd5b506001600081815581546001600160a01b031916331790915560035561332e8061003b6000396000f3fe6080604052600436106101015760003560e01c80636bb05fd81161008f57806394e113091161006157806394e113091461031a578063aafc92d61461033a578063c1d445ba1461037d578063d2f0be991461039d578063ec45db6b146103b057005b80636bb05fd81461027557806376b8395e1461029557806380d03829146102c2578063931c1d89146102e457005b806345120f86116100d357806345120f86146101da57806348a05132146101ed5780634d0f9c68146102005780635f8439e314610220578063609a7dbe1461025557005b806301c2c9ba1461014457806336fbad26146101645780633bcff3b01461018d5780633d891f59146101a257005b36610142576001546040516001600160a01b03909116903480156108fc02916000818181858888f1935050505015801561013f573d6000803e3d6000fd5b50005b005b34801561015057600080fd5b5061014261015f366004612ac8565b6103e3565b34801561017057600080fd5b5061017a60035481565b6040519081526020015b60405180910390f35b34801561019957600080fd5b5060035461017a565b3480156101ae57600080fd5b5061017a6101bd366004612a42565b600560209081526000928352604080842090915290825290205481565b6101426101e8366004612a9d565b610722565b6101426101fb366004612a2a565b610ca5565b34801561020c57600080fd5b5061014261021b366004612a2a565b610f69565b34801561022c57600080fd5b5061024061023b366004612a2a565b6110fb565b60405161018499989796959493929190612bdf565b34801561026157600080fd5b50610142610270366004612a9d565b6112a2565b34801561028157600080fd5b50610142610290366004612a2a565b611591565b3480156102a157600080fd5b506102b56102b0366004612a2a565b6116e7565b6040516101849190612d47565b3480156102ce57600080fd5b506102d7611934565b6040516101849190612c55565b3480156102f057600080fd5b506103046102ff366004612a2a565b611be4565b6040516101849a999897969594939291906130c8565b34801561032657600080fd5b506101426103353660046129b9565b611d51565b34801561034657600080fd5b5061017a610355366004612a42565b60009182526005602090815260408084206001600160a01b0393909316845291905290205490565b34801561038957600080fd5b50610142610398366004612a9d565b611f41565b6101426103ab366004612a2a565b6122a1565b3480156103bc57600080fd5b506103d06103cb366004612a7c565b6124ea565b6040516101849796959493929190613146565b60008481526004602052604090206001015484906001600160a01b031633146104275760405162461bcd60e51b815260040161041e90612f7f565b60405180910390fd5b8460028060008381526004602052604090206009015460ff16600281111561045f57634e487b7160e01b600052602160045260246000fd5b1461047c5760405162461bcd60e51b815260040161041e9061304d565b60008781526004602052604090206005810154600890910154106104d75760405162461bcd60e51b8152602060048201526012602482015271496e73756666696369656e742066756e647360701b604482015260640161041e565b6000878152600760205260409020546104f79063ffffffff1660016131bd565b63ffffffff168663ffffffff16146105515760405162461bcd60e51b815260206004820152601860248201527f496e636f72726563742072657175657374206e756d6265720000000000000000604482015260640161041e565b600061056585670de0b6b3a7640000613205565b6040805160e08101825263ffffffff8a8116825260208083018b815283850186905260008e8152600483528581206001908101546001600160a01b031660608701526080860182905260a0860181905260c086018290528f825260068085529682208054808301825590835291849020865192909702909601805463ffffffff19169190941617835551805195965092948594929361060893850192019061279b565b506040820151600282015560608201516003820180546001600160a01b0319166001600160a01b039092169190911790556080820151600482015560a082015160058201805460ff19166001838181111561067357634e487b7160e01b600052602160045260246000fd5b021790555060c09190910151600590910180549115156101000261ff001990921691909117905560008981526007602052604081208054600192906106bf90849063ffffffff166131bd565b92506101000a81548163ffffffff021916908363ffffffff160217905550887fa37d57837469eb033a5f2b4e3333c3523977fcc88d9ff414952850be9cfa64b4888860405161070f929190612dff565b60405180910390a2505050505050505050565b60008281526004602052604090206001015482906001600160a01b0316331461075d5760405162461bcd60e51b815260040161041e90612f7f565b6000838152600760205260409020548390839063ffffffff8083169116146107975760405162461bcd60e51b815260040161041e90612fdc565b600260005414156107ba5760405162461bcd60e51b815260040161041e90613091565b60026000818155868152600460205260409020600701546107da916125e6565b60008681526006602052604090206107f360018761323b565b63ffffffff168154811061081757634e487b7160e01b600052603260045260246000fd5b906000526020600020906006020160040154116108ab5760405162461bcd60e51b815260206004820152604660248201527f4d6f7265207468616e2068616c662074686520746f74616c206465706f73697460448201527f6f7273206e65656420746f20617070726f7665207769746864726177616c2072606482015265195c5d595cdd60d21b608482015260a40161041e565b60008581526006602052604090206108c460018661323b565b63ffffffff16815481106108e857634e487b7160e01b600052603260045260246000fd5b6000918252602090912060069091020160050154610100900460ff161561096b5760405162461bcd60e51b815260206004820152603160248201527f5769746864726177616c20686173206c617265616479206265656e206d61646560448201527008199bdc881d1a1a5cc81c995c5d595cdd607a1b606482015260840161041e565b600085815260046020908152604080832060050154600690925290912061099360018761323b565b63ffffffff16815481106109b757634e487b7160e01b600052603260045260246000fd5b90600052602060002090600602016002015410610a0b5760405162461bcd60e51b8152602060048201526012602482015271496e73756666696369656e742066756e647360701b604482015260640161041e565b6000858152600660205260408120610a2460018761323b565b63ffffffff1681548110610a4857634e487b7160e01b600052603260045260246000fd5b906000526020600020906006020190506000610a7e6103e8610a78600385600201546125f990919063ffffffff16565b906125e6565b6001546040519192506000916001600160a01b039091169083908381818185875af1925050503d8060008114610ad0576040519150601f19603f3d011682016040523d82523d6000602084013e610ad5565b606091505b5050905080610af65760405162461bcd60e51b815260040161041e90612f34565b6040805163ffffffff891681526020810184905289917f7afc4bae9e6d0e661f2ce0c1dce50a3343eb3d1ade8d52b9be5aa4d58a959858910160405180910390a260008881526004602052604081206001015460028501546001600160a01b039091169190610b66908590613224565b90506000826001600160a01b03168260405160006040518083038185875af1925050503d8060008114610bb5576040519150601f19603f3d011682016040523d82523d6000602084013e610bba565b606091505b5050905080610bdb5760405162461bcd60e51b815260040161041e90612f34565b6040805163ffffffff8c168152602081018490528c917f27ae59d111e674b3cbf2ac19158097c97ed2f28fc764b66f9fa7e82b775def3d910160405180910390a260058601805461ff001916610100179055600286015460008c81526004602052604081206008018054909190610c539084906131a5565b909155505060405163ffffffff8b1681528b907f7504b85ae1674ef95f5e2fa834bb48de5507b38a5e144bc39623c2904c77a77d9060200160405180910390a250506001600055505050505050505050565b8060008060008381526004602052604090206009015460ff166002811115610cdd57634e487b7160e01b600052602160045260246000fd5b14610cfa5760405162461bcd60e51b815260040161041e9061304d565b60026000541415610d1d5760405162461bcd60e51b815260040161041e90613091565b6002600055600354831115610d745760405162461bcd60e51b815260206004820152601760248201527f50726f6a656374204944206f7574206f662072616e6765000000000000000000604482015260640161041e565b60003411610dea5760405162461bcd60e51b815260206004820152603d60248201527f496e76616c6964207472616e73616374696f6e2e20506c656173652073656e6460448201527f2076616c696420616d6f756e747320746f207468652070726f6a656374000000606482015260840161041e565b60008381526004602081905260409091200154421115610e6a5760405162461bcd60e51b815260206004820152603560248201527f436f6e747269627574696f6e732063616e6e6f74206265206d61646520746f206044820152743a3434b990383937b532b1ba1030b73cb6b7b9329760591b606482015260840161041e565b3060009081526002602052604081208054349290610e899084906131a5565b9091555050600083815260056020908152604080832033845290915281208054349290610eb79084906131a5565b909155505060008381526004602052604081206005018054349290610edd9084906131a5565b90915550506000838152600460205260408120600701805460019290610f049084906131a5565b9091555050600083815260046020908152604091829020600501548251338152349281019290925281830152905184917f96d677f95277e6d3f1e654cf54d6351531e1d08e3bafd5465d62827c1ad19990919081900360600190a25050600160005550565b60008181526005602090815260408083203384529091529020548190610fa15760405162461bcd60e51b815260040161041e90612ed6565b8160008060008381526004602052604090206009015460ff166002811115610fd957634e487b7160e01b600052602160045260246000fd5b14610ff65760405162461bcd60e51b815260040161041e9061304d565b60008481526004602081905260409091200154421161108b5760405162461bcd60e51b815260206004820152604560248201527f496e76616c696420726571756573742e2043616e206f6e6c792062652063616c60448201527f6c65642061667465722070726f6a65637420646561646c696e652069732072656064820152641858da195960da1b608482015260a40161041e565b60008481526004602081905260409182902060098101805460ff19166001179055908101546006820154925187937fdb9232394d6106fcda07dcda0ef3d7dd5c910776908c279f0e55ae9dc65e804f936110ed93600290910192909190612e21565b60405180910390a250505050565b60008181526004602052604081206001810154600290910180546001600160a01b039092169260609283928291829182918291829161113990613260565b80601f016020809104026020016040519081016040528092919081815260200182805461116590613260565b80156111b25780601f10611187576101008083540402835291602001916111b2565b820191906000526020600020905b81548152906001019060200180831161119557829003601f168201915b50505060008d81526004602052604090206003018054939b50926111d892509050613260565b80601f016020809104026020016040519081016040528092919081815260200182805461120490613260565b80156112515780601f1061122657610100808354040283529160200191611251565b820191906000526020600020905b81548152906001019060200180831161123457829003601f168201915b50505060009c8d525050600460208190526040909b209a8b015460058c015460068d015460078e015460088f01546009909f01549d9f9c9e949d939c929b50909950975091955060ff169350915050565b600082815260056020908152604080832033845290915290205482906112da5760405162461bcd60e51b815260040161041e90612ed6565b8260028060008381526004602052604090206009015460ff16600281111561131257634e487b7160e01b600052602160045260246000fd5b1461132f5760405162461bcd60e51b815260040161041e9061304d565b6000858152600760205260409020548590859063ffffffff8083169116146113695760405162461bcd60e51b815260040161041e90612fdc565b611374878733612605565b156113e75760405162461bcd60e51b815260206004820152603960248201527f496e76616c6964206f7065726174696f6e2e20596f75206861766520616c726560448201527f61647920617070726f7665642074686973207265717565737400000000000000606482015260840161041e565b6113f28787336126d0565b156114595760405162461bcd60e51b815260206004820152603160248201527f496e76616c6964206f7065726174696f6e2e20596f7520686176652072656a6560448201527018dd1959081d1a1a5cc81c995c5d595cdd607a1b606482015260840161041e565b60008781526007602052604081205463ffffffff16905b818110156114fa5763ffffffff881661148a8260016131a5565b14156114e8576000898152600660205260409020805460019190839081106114c257634e487b7160e01b600052603260045260246000fd5b906000526020600020906006020160040160008282546114e291906131a5565b90915550505b806114f28161329b565b915050611470565b5060008881526008602052604081209061151560018a61323b565b63ffffffff9081168252602080830193909352604091820160009081208054600181018255908252908490200180546001600160a01b031916331790559051908916815289917ffd21b63d56fe3d4851c3b38b5800335b6b1651056961e7299ce755362169be9291015b60405180910390a25050505050505050565b60008181526004602052604090206001015481906001600160a01b031633146115cc5760405162461bcd60e51b815260040161041e90612f7f565b8160008060008381526004602052604090206009015460ff16600281111561160457634e487b7160e01b600052602160045260246000fd5b146116215760405162461bcd60e51b815260040161041e9061304d565b6000848152600460205260409020600681015460059091015410156116885760405162461bcd60e51b815260206004820152601c60248201527f446964206e6f74207265636569766520656e6f7567682066756e647300000000604482015260640161041e565b60008481526004602081905260409182902060098101805460ff19166002908117909155918101546006820154935188947f4674ab4436b804febf0a1526a0addd752d2762b69048ab01fe978c427a723f7b946110ed94019291612e21565b60008181526007602052604081205460609163ffffffff909116908167ffffffffffffffff81111561172957634e487b7160e01b600052604160045260246000fd5b60405190808252806020026020018201604052801561176257816020015b61174f61281f565b8152602001906001900390816117475790505b50905060005b8281101561192c57600085815260066020526040812080548390811061179e57634e487b7160e01b600052603260045260246000fd5b60009182526020918290206040805160e08101909152600690920201805463ffffffff16825260018101805491945091928492908401916117de90613260565b80601f016020809104026020016040519081016040528092919081815260200182805461180a90613260565b80156118575780601f1061182c57610100808354040283529160200191611857565b820191906000526020600020905b81548152906001019060200180831161183a57829003601f168201915b50505091835250506002820154602082015260038201546001600160a01b0316604082015260048201546060820152600582015460809091019060ff1660018111156118b357634e487b7160e01b600052602160045260246000fd5b60018111156118d257634e487b7160e01b600052602160045260246000fd5b815260059190910154610100900460ff161515602090910152835184908490811061190d57634e487b7160e01b600052603260045260246000fd5b60200260200101819052505080806119249061329b565b915050611768565b509392505050565b60035460609060008167ffffffffffffffff81111561196357634e487b7160e01b600052604160045260246000fd5b60405190808252806020026020018201604052801561199c57816020015b61198961288a565b8152602001906001900390816119815790505b50905060005b82811015611bdd5760006119b78260016131a5565b6000818152600460209081526040918290208251610140810184528154815260018201546001600160a01b0316928101929092526002810180549495509093919284929084019190611a0890613260565b80601f0160208091040260200160405190810160405280929190818152602001828054611a3490613260565b8015611a815780601f10611a5657610100808354040283529160200191611a81565b820191906000526020600020905b815481529060010190602001808311611a6457829003601f168201915b50505050508152602001600382018054611a9a90613260565b80601f0160208091040260200160405190810160405280929190818152602001828054611ac690613260565b8015611b135780601f10611ae857610100808354040283529160200191611b13565b820191906000526020600020905b815481529060010190602001808311611af657829003601f168201915b505050918352505060048201546020820152600582015460408201526006820154606082015260078201546080820152600882015460a0820152600982015460c09091019060ff166002811115611b7a57634e487b7160e01b600052602160045260246000fd5b6002811115611b9957634e487b7160e01b600052602160045260246000fd5b81525050848481518110611bbd57634e487b7160e01b600052603260045260246000fd5b602002602001018190525050508080611bd59061329b565b9150506119a2565b5092915050565b60046020526000908152604090208054600182015460028301805492936001600160a01b0390921692611c1690613260565b80601f0160208091040260200160405190810160405280929190818152602001828054611c4290613260565b8015611c8f5780601f10611c6457610100808354040283529160200191611c8f565b820191906000526020600020905b815481529060010190602001808311611c7257829003601f168201915b505050505090806003018054611ca490613260565b80601f0160208091040260200160405190810160405280929190818152602001828054611cd090613260565b8015611d1d5780601f10611cf257610100808354040283529160200191611d1d565b820191906000526020600020905b815481529060010190602001808311611d0057829003601f168201915b5050506004840154600585015460068601546007870154600888015460099098015496979396929550909350919060ff168a565b600160036000828254611d6491906131a5565b9091555060009050611d7e82670de0b6b3a7640000613205565b905060006040518061014001604052806003548152602001336001600160a01b0316815260200187815260200186815260200185815260200160008152602001838152602001600081526020016000815260200160006002811115611df357634e487b7160e01b600052602160045260246000fd5b905260035460009081526004602090815260409182902083518155838201516001820180546001600160a01b0319166001600160a01b039092169190911790559183015180519394508493611e4e926002850192019061279b565b5060608201518051611e6a91600384019160209091019061279b565b506080820151600482015560a0820151600582015560c0820151600682015560e08201516007820155610100820151600882015561012082015160098201805460ff19166001836002811115611ed057634e487b7160e01b600052602160045260246000fd5b0217905550506003805460009081526007602052604090819020805463ffffffff19169055905490519091507f493a8ea55e13538971dc7a8db3b5ac7e6a8de74e7c0c2e948c70fa2ac16ea48990611f319033908a908a908a908990612b94565b60405180910390a2505050505050565b60008281526005602090815260408083203384529091529020548290611f795760405162461bcd60e51b815260040161041e90612ed6565b8260028060008381526004602052604090206009015460ff166002811115611fb157634e487b7160e01b600052602160045260246000fd5b14611fce5760405162461bcd60e51b815260040161041e9061304d565b6000858152600760205260409020548590859063ffffffff8083169116146120085760405162461bcd60e51b815260040161041e90612fdc565b612013878733612605565b1561207a5760405162461bcd60e51b815260206004820152603160248201527f496e76616c6964206f7065726174696f6e2e20596f75206861766520617070726044820152701bdd9959081d1a1a5cc81c995c5d595cdd607a1b606482015260840161041e565b6120858787336126d0565b156120f85760405162461bcd60e51b815260206004820152603960248201527f496e76616c6964206f7065726174696f6e2e20596f75206861766520616c726560448201527f6164792072656a65637465642074686973207265717565737400000000000000606482015260840161041e565b60008781526007602052604081205463ffffffff16905b818110156122185763ffffffff88166121298260016131a5565b141561220657600089815260066020526040902080548290811061215d57634e487b7160e01b600052603260045260246000fd5b9060005260206000209060060201600401546000146121d3576000898152600660205260409020805460019190839081106121a857634e487b7160e01b600052603260045260246000fd5b906000526020600020906006020160040160008282546121c89190613224565b909155506122069050565b600089815260066020526040902080548290811061220157634e487b7160e01b600052603260045260246000fd5b506000525b806122108161329b565b91505061210f565b5060008881526009602052604081209061223360018a61323b565b63ffffffff9081168252602080830193909352604091820160009081208054600181018255908252908490200180546001600160a01b031916331790559051908916815289917f9c710ee7ed817a833424800d582393604b4cb4ea3f3f3b50da958c569b9309e5910161157f565b600081815260056020908152604080832033845290915290205481906122d95760405162461bcd60e51b815260040161041e90612ed6565b8160018060008381526004602052604090206009015460ff16600281111561231157634e487b7160e01b600052602160045260246000fd5b1461232e5760405162461bcd60e51b815260040161041e9061304d565b600260005414156123515760405162461bcd60e51b815260040161041e90613091565b60026000908155848152600460208190526040909120015442116123c85760405162461bcd60e51b815260206004820152602860248201527f50726f6a65637420646561646c696e65206861736e2774206265656e2072656160448201526718da1959081e595d60c21b606482015260840161041e565b600084815260056020908152604080832033808552925280832054905191929091839083908381818185875af1925050503d8060008114612425576040519150601f19603f3d011682016040523d82523d6000602084013e61242a565b606091505b505090508061244b5760405162461bcd60e51b815260040161041e90612f34565b604080516001600160a01b03851681526020810184905288917fdab6c60b0a2712cc0de4026608821d29de83da8920bc8b93017005799f69f660910160405180910390a2600087815260046020526040812060050180548492906124b0908490613224565b909155505060008781526004602052604081206007018054600192906124d7908490613224565b9091555050600160005550505050505050565b6006602052816000526040600020818154811061250657600080fd5b60009182526020909120600690910201805460018201805463ffffffff909216945091925061253490613260565b80601f016020809104026020016040519081016040528092919081815260200182805461256090613260565b80156125ad5780601f10612582576101008083540402835291602001916125ad565b820191906000526020600020905b81548152906001019060200180831161259057829003601f168201915b50505050600283015460038401546004850154600590950154939491936001600160a01b03909116925060ff8082169161010090041687565b60006125f282846131e5565b9392505050565b60006125f28284613205565b6000805b60008581526008602052604081209061262360018761323b565b63ffffffff16815260208101919091526040016000205481101561192c5760008581526008602052604081206001600160a01b0385169161266560018861323b565b63ffffffff1663ffffffff168152602001908152602001600020828154811061269e57634e487b7160e01b600052603260045260246000fd5b6000918252602090912001546001600160a01b031614156126be57600191505b806126c88161329b565b915050612609565b6000805b6000858152600960205260408120906126ee60018761323b565b63ffffffff16815260208101919091526040016000205481101561192c5760008581526009602052604081206001600160a01b0385169161273060018861323b565b63ffffffff1663ffffffff168152602001908152602001600020828154811061276957634e487b7160e01b600052603260045260246000fd5b6000918252602090912001546001600160a01b0316141561278957600191505b806127938161329b565b9150506126d4565b8280546127a790613260565b90600052602060002090601f0160209004810192826127c9576000855561280f565b82601f106127e257805160ff191683800117855561280f565b8280016001018555821561280f579182015b8281111561280f5782518255916020019190600101906127f4565b5061281b929150612904565b5090565b6040518060e00160405280600063ffffffff168152602001606081526020016000815260200160006001600160a01b03168152602001600081526020016000600181111561287d57634e487b7160e01b600052602160045260246000fd5b8152600060209091015290565b6040518061014001604052806000815260200160006001600160a01b0316815260200160608152602001606081526020016000815260200160008152602001600081526020016000815260200160008152602001600060028111156128ff57634e487b7160e01b600052602160045260246000fd5b905290565b5b8082111561281b5760008155600101612905565b600082601f830112612929578081fd5b813567ffffffffffffffff80821115612944576129446132e2565b604051601f8301601f19908116603f0116810190828211818310171561296c5761296c6132e2565b81604052838152866020858801011115612984578485fd5b8360208701602083013792830160200193909352509392505050565b803563ffffffff811681146129b457600080fd5b919050565b600080600080608085870312156129ce578384fd5b843567ffffffffffffffff808211156129e5578586fd5b6129f188838901612919565b95506020870135915080821115612a06578485fd5b50612a1387828801612919565b949794965050505060408301359260600135919050565b600060208284031215612a3b578081fd5b5035919050565b60008060408385031215612a54578182fd5b8235915060208301356001600160a01b0381168114612a71578182fd5b809150509250929050565b60008060408385031215612a8e578182fd5b50508035926020909101359150565b60008060408385031215612aaf578182fd5b82359150612abf602084016129a0565b90509250929050565b60008060008060808587031215612add578384fd5b84359350612aed602086016129a0565b9250604085013567ffffffffffffffff811115612b08578283fd5b612b1487828801612919565b949793965093946060013593505050565b60038110612b3557612b356132cc565b9052565b60028110612b3557612b356132cc565b60008151808452815b81811015612b6e57602081850181015186830182015201612b52565b81811115612b7f5782602083870101525b50601f01601f19169290920160200192915050565b6001600160a01b038616815260a060208201819052600090612bb890830187612b49565b8281036040840152612bca8187612b49565b60608401959095525050608001529392505050565b6001600160a01b038a16815261012060208201819052600090612c048382018c612b49565b90508281036040840152612c18818b612b49565b9150508760608301528660808301528560a08301528460c08301528360e0830152612c47610100830184612b25565b9a9950505050505050505050565b60006020808301818452808551808352604092508286019150828160051b870101848801865b83811015612d3957603f19898403018552815180518452878101516001600160a01b0316888501528681015161014088860181905290612cbd82870182612b49565b91505060608083015186830382880152612cd78382612b49565b6080858101519089015260a0808601519089015260c0808601519089015260e08086015190890152610100808601519089015261012094850151949093509150612d25905081870184612b25565b509588019593505090860190600101612c7b565b509098975050505050505050565b60006020808301818452808551808352604092508286019150828160051b870101848801865b83811015612d3957603f19898403018552815160e063ffffffff825116855288820151818a870152612da182870182612b49565b838a0151878b01526060808501516001600160a01b0316908801526080808501519088015260a0808501519193509150612ddd82880182612b39565b505060c091820151151594909101939093529386019390860190600101612d6d565b604081526000612e126040830185612b49565b90508260208301529392505050565b60608152600080855482600182811c915080831680612e4157607f831692505b6020808410821415612e6157634e487b7160e01b87526022600452602487fd5b6060880184905260808801828015612e805760018114612e9157612ebb565b60ff19871682528282019750612ebb565b60008d815260209020895b87811015612eb557815484820152908601908401612e9c565b83019850505b50508701989098525050506040909201929092529392505050565b602080825260409082018190527f556e617574686f72697a6564206163636573732e204f6e6c792070726f6a6563908201527f742066756e646572732063616e2075736520746869732066756e6374696f6e2e606082015260800190565b6020808252602b908201527f5472616e73616374696f6e206661696c65642e20506c6561736520747279206160408201526a33b0b4b7103630ba32b91760a91b606082015260800190565b6020808252603d908201527f556e617574686f72697a6564206163636573732e204f6e6c792070726f6a656360408201527f74206f776e65722063616e2075736520746869732066756e6374696f6e000000606082015260800190565b6020808252604b908201527f54686973206973206e6f7420746865206c61746573742077697468647261776160408201527f6c20726571756573742e20506c6561736520636865636b20616761696e20616e60608201526a32103a393c903630ba32b960a91b608082015260a00190565b60208082526024908201527f556e6d61746368696e67207374617465732e20496e76616c6964206f706572616040820152633a34b7b760e11b606082015260800190565b6020808252601f908201527f5265656e7472616e637947756172643a207265656e7472616e742063616c6c00604082015260600190565b8a81526001600160a01b038a166020820152610140604082018190526000906130f38382018c612b49565b90508281036060840152613107818b612b49565b9150508760808301528660a08301528560c08301528460e083015283610100830152613137610120830184612b25565b9b9a5050505050505050505050565b63ffffffff8816815260e06020820152600061316560e0830189612b49565b604083018890526001600160a01b038716606084015260808301869052905061319160a0830185612b39565b82151560c083015298975050505050505050565b600082198211156131b8576131b86132b6565b500190565b600063ffffffff8083168185168083038211156131dc576131dc6132b6565b01949350505050565b60008261320057634e487b7160e01b81526012600452602481fd5b500490565b600081600019048311821515161561321f5761321f6132b6565b500290565b600082821015613236576132366132b6565b500390565b600063ffffffff83811690831681811015613258576132586132b6565b039392505050565b600181811c9082168061327457607f821691505b6020821081141561329557634e487b7160e01b600052602260045260246000fd5b50919050565b60006000198214156132af576132af6132b6565b5060010190565b634e487b7160e01b600052601160045260246000fd5b634e487b7160e01b600052602160045260246000fd5b634e487b7160e01b600052604160045260246000fdfea264697066735822122047c35e57342029b6bb72cdc2ddbacee91a5c5056692f7f860e0d736af6cab68964736f6c63430008040033",
  "immutableReferences": {},
  "source": "// SPDX-License-Identifier: MIT\npragma solidity ^0.8.4;\n\nimport \"@openzeppelin/contracts/utils/math/SafeMath.sol\";\nimport \"@openzeppelin/contracts/security/ReentrancyGuard.sol\";\n\ncontract CrowdFund is ReentrancyGuard {\n    using SafeMath for uint256;\n\n    /*===== Events =====*/\n    event NewProjectCreated(\n        uint256 indexed id,\n        address projectCreator,\n        string projectTitle,\n        string projectDesc,\n        uint256 projectDeadline,\n        uint256 goalAmount\n    );\n\n    event ExpireFundraise(\n        uint256 indexed id,\n        string name,\n        uint256 projectDeadline,\n        uint256 goal\n    );\n    \n    event SuccessFundRaise(\n        uint256 indexed id,\n        string name,\n        uint256 projectDeadline,\n        uint256 goal\n    );\n    \n    event SuccessButContinueFundRaise(\n        uint256 indexed id,\n        string name,\n        uint256 projectDeadline,\n        uint256 goal\n    );\n\n    event FundsReceive(\n        uint256 indexed id,\n        address contributor,\n        uint256 amount,\n        uint256 totalPledged\n    );\n\n    event NewWithdrawalRequest(\n        uint256 indexed id,\n        string description,\n        uint256 amount\n    );\n\n    event GenerateRefund(\n        uint256 indexed id,\n        address refundRequestUser,\n        uint256 refundAmt\n    );\n\n    event ApproveRequest(uint256 indexed _id, uint32 _withdrawalRequestIndex);\n\n    event RejectRequest(uint256 indexed _id, uint32 _withdrawalRequestIndex);\n\n    event TransferRequestFunds(\n        uint256 indexed _id,\n        uint32 _withdrawalRequestIndex\n    );\n\n    event PayCreator( uint256 indexed _id, uint32 _withdrawalRequestIndex, uint256 _amountTransfered);\n\n    event PayPlatform(uint256 indexed _id, uint32 _withdrawalRequestIndex, uint256 _amountTransfered);\n\n    /*===== State variables =====*/\n    address payable platformAdmin;\n\n    enum State {\n        Fundraise,\n        Expire,\n        Success\n    }\n\n    enum Withdrawal {\n        Allow,\n        Reject\n    }\n\n    struct Project {\n        // project ID\n        uint256 id;\n        // address of the creator of project\n        address payable creator;\n        // name of the project\n        string name;\n        // description of the project\n        string description;\n        // end of fundraising date\n        uint256 projectDeadline;\n        // total amount that has been pledged until this point\n        uint256 totalPledged;\n        // total amount needed for a successful campaign\n        uint256 goal;\n        // number of depositors\n        uint256 totalDepositors;\n        // total funds withdrawn from project\n        uint256 totalWithdrawn;\n        // current state of the fundraise\n        State currentState;\n        // holds URL of IPFS upload\n        // string ipfsURL;\n    }\n\n    struct WithdrawalRequest {\n        uint32 index;\n        // purpose of withdrawal\n        string description;\n        // amount of withdrawal requested\n        uint256 withdrawalAmount;\n        // project owner address\n        address payable recipient;\n        // total votes received for request\n        uint256 approvedVotes;\n        // current state of the withdrawal request\n        Withdrawal currentWithdrawalState;\n        // hash of the ipfs storage\n        // string ipfsHash;\n        // boolean to represent if amount has been withdrawn\n        bool withdrawn;\n    }\n\n    mapping(address => uint) balances;\n\n    // project states\n    uint256 public projectCount;\n    mapping(uint256 => Project) public idToProject;\n    // project id => contributor => contribution\n    mapping(uint256 => mapping(address => uint256)) public contributions;\n\n    // withdrawal requests\n    mapping(uint256 => WithdrawalRequest[]) public idToWithdrawalRequests;\n    // project ID => withdrawal request Index\n    mapping(uint256 => uint32) latestWithdrawalIndex;\n\n    // project id => request number => address of contributors\n    mapping(uint256 => mapping(uint32 => address[])) approvals;\n    mapping(uint256 => mapping(uint32 => address[])) rejections;\n\n\n    /*===== Modifiers =====*/\n    modifier checkState(uint256 _id, State _state) {\n        require(\n            idToProject[_id].currentState == _state,\n            \"Unmatching states. Invalid operation\"\n        );\n        _;\n    }\n\n    modifier onlyAdmin() {\n        require(\n            msg.sender == platformAdmin,\n            \"Unauthorized access. Only admin can use this function\"\n        );\n        _;\n    }\n\n    modifier onlyProjectOwner(uint256 _id) {\n        require(\n            msg.sender == idToProject[_id].creator,\n            \"Unauthorized access. Only project owner can use this function\"\n        );\n        _;\n    }\n\n    modifier onlyProjectDonor(uint256 _id) {\n        require(\n            contributions[_id][msg.sender] > 0,\n            \"Unauthorized access. Only project funders can use this function.\"\n        );\n        _;\n    }\n\n    modifier checkLatestWithdrawalIndex(\n        uint256 _id,\n        uint32 _withdrawalRequestIndex\n    ) {\n        require(\n            latestWithdrawalIndex[_id] == _withdrawalRequestIndex,\n            \"This is not the latest withdrawal request. Please check again and try later\"\n        );\n        _;\n    }\n\n    constructor() ReentrancyGuard() {\n        platformAdmin = payable(msg.sender);\n        projectCount = 0;\n    }\n\n    // make contract payable\n    fallback() external payable {}\n    receive() external payable {\n        platformAdmin.transfer(msg.value);\n    }\n    \n\n    /*===== Functions  =====*/\n\n    /** @dev Function to start a new project.\n     * @param _name Name of the project\n     * @param _description Project Description\n     * @param _projectDeadline Total days to end of fundraise\n     * @param _goalEth Project goal in ETH\n     */\n    function createNewProject(\n        string memory _name,\n        string memory _description,\n        uint256 _projectDeadline,\n        uint256 _goalEth\n    ) public {\n        // update ID\n        projectCount += 1;\n\n        // log goal as wei\n        uint256 _goal = _goalEth * 1e18;\n\n        // create new fundraise object\n        Project memory newFR = Project({\n            id: projectCount,\n            creator: payable(msg.sender),\n            name: _name,\n            description: _description,\n            projectDeadline: _projectDeadline,\n            totalPledged: 0,\n            goal: _goal,\n            currentState: State.Fundraise,\n            totalDepositors: 0,\n            totalWithdrawn: 0\n        });\n\n        // update mapping of id to new project\n        idToProject[projectCount] = newFR;\n\n        // initiate total withdrawal requests \n        latestWithdrawalIndex[projectCount] = 0;\n\n        // emit event\n        emit NewProjectCreated(\n            projectCount,\n            msg.sender,\n            _name,\n            _description,\n            _projectDeadline,\n            _goal\n        );\n    }\n\n    /** @dev Function to make a contribution to the project\n     * @param _id Project ID where contributions are to be made\n     */\n    function contributeFunds(uint256 _id)\n        public\n        payable\n        checkState(_id, State.Fundraise)\n        nonReentrant()\n    {\n        require(_id <= projectCount, \"Project ID out of range\");\n\n        require(\n            msg.value > 0,\n            \"Invalid transaction. Please send valid amounts to the project\"\n        );\n\n        require(\n            block.timestamp <= idToProject[_id].projectDeadline,\n            \"Contributions cannot be made to this project anymore.\"\n        );\n\n        // transfer contributions to contract address\n        balances[address(this)] += msg.value;\n\n        // add to contribution\n        contributions[_id][msg.sender] += msg.value;\n\n        // increase total contributions pledged to the project\n        idToProject[_id].totalPledged += msg.value;\n\n        // add one to total number of depositors for this project\n        idToProject[_id].totalDepositors += 1;\n\n        emit FundsReceive(\n            _id,\n            msg.sender,\n            msg.value,\n            idToProject[_id].totalPledged\n        );\n    }\n\n    /** @dev Function to end fundraising drive\n    * @param _id Project ID\n    */\n    function endContributionsExpire(uint256 _id) \n        public \n        onlyProjectDonor(_id)\n        checkState(_id, State.Fundraise) \n        {\n            require(\n                block.timestamp > idToProject[_id].projectDeadline,\n                \"Invalid request. Can only be called after project deadline is reached\"\n            );\n\n            idToProject[_id].currentState = State.Expire;\n            emit ExpireFundraise(_id,\n                idToProject[_id].name,\n                idToProject[_id].projectDeadline,\n                idToProject[_id].goal\n            );\n        }\n    \n    /** @dev Function to end fundraising drive with success is total pledged higher than goal. Irrespective of deadline\n    * @param _id Project ID\n    */\n    function endContributionsSuccess(uint256 _id) \n        public \n        onlyProjectOwner(_id)\n        checkState(_id, State.Fundraise) \n        {\n            require(idToProject[_id].totalPledged >= idToProject[_id].goal, \"Did not receive enough funds\");\n\n            idToProject[_id].currentState = State.Success;\n            emit SuccessFundRaise(\n                _id,\n                idToProject[_id].name,\n                idToProject[_id].projectDeadline,\n                idToProject[_id].goal\n            );                \n        }\n\n    /** @dev Function to get refund on expired projects\n     * @param _id Project ID\n     */\n    function getRefund(uint256 _id)\n        public\n        payable\n        onlyProjectDonor(_id)\n        checkState(_id, State.Expire)\n        nonReentrant()\n    {\n        require(\n            block.timestamp > idToProject[_id].projectDeadline,\n            \"Project deadline hasn't been reached yet\"\n        );\n\n        address payable _contributor = payable(msg.sender);\n        uint256 _amount = contributions[_id][msg.sender];\n        (bool success, ) = _contributor.call{value: _amount}(\"\");\n        require(success, \"Transaction failed. Please try again later.\");\n        emit GenerateRefund(_id, _contributor, _amount);\n\n        // update project state\n        idToProject[_id].totalPledged -= _amount;\n        idToProject[_id].totalDepositors -= 1;\n    }\n\n    /** @dev Function to create a request for withdrawal of funds\n    * @param _id Project ID\n    * @param _requestNumber Index of the request\n    * @param _description  Purpose of withdrawal\n    * @param _amount Amount of withdrawal requested in ETH\n    */\n    function createWithdrawalRequest(\n        uint256 _id,\n        uint32 _requestNumber,\n        string memory _description,\n        uint256 _amount\n    ) public onlyProjectOwner(_id) checkState(_id, State.Success){\n        require(idToProject[_id].totalWithdrawn < idToProject[_id].totalPledged, \"Insufficient funds\");\n        require(_requestNumber == latestWithdrawalIndex[_id] + 1, \"Incorrect request number\");\n\n        // convert ETH to Wei units\n        uint256 _withdraw = _amount * 1e18;\n\n        // create new withdrawal request\n        WithdrawalRequest memory newWR = WithdrawalRequest({\n            index: _requestNumber,\n            description: _description,\n            withdrawalAmount: _withdraw,\n            // funds withdrawn to project owner\n            recipient: idToProject[_id].creator,\n            // initialized with no votes for request\n            approvedVotes: 0,\n            // state changes on quorum\n            currentWithdrawalState: Withdrawal.Reject,\n            withdrawn: false\n        });\n\n        // update project to request mapping\n        idToWithdrawalRequests[_id].push(newWR);\n        \n        latestWithdrawalIndex[_id] += 1;\n\n        // emit event\n        emit NewWithdrawalRequest(_id, _description, _amount);\n    }\n\n    /** @dev Function to check whether a given address has approved a specific request\n    * @param _id Project ID\n    * @param _withdrawalRequestIndex Index of the withdrawal request\n    * @param _checkAddress Address of the request initiator\n    */\n    function _checkAddressInApprovalsIterator(\n        uint256 _id,\n        uint32 _withdrawalRequestIndex, \n        address _checkAddress\n    )\n        internal\n        view \n        returns(bool approved) \n    {\n        // iterate over the array specific to this id and withdrawal request\n        for (uint256 i = 0; i < approvals[_id][_withdrawalRequestIndex - 1].length; i++) {\n            // if address is in the array, return true\n            if(approvals[_id][_withdrawalRequestIndex - 1][i] == _checkAddress) {\n                approved = true;\n            }\n        }\n    }\n\n    /** @dev Function to check whether a given address has rejected a specific request\n    * @param _id Project ID\n    * @param _withdrawalRequestIndex Index of the withdrawal request\n    * @param _checkAddress Address of the request initiator\n    */\n    function _checkAddressInRejectionIterator(\n        uint256 _id,\n        uint32 _withdrawalRequestIndex, \n        address _checkAddress\n    ) \n        internal\n        view\n        returns(bool rejected) \n    {\n        // iterate over the array specific to this id and withdrawal request\n        for (uint256 i = 0; i < rejections[_id][_withdrawalRequestIndex - 1].length; i++) {\n            // if address is in the array, return true\n            if(rejections[_id][_withdrawalRequestIndex - 1][i] == _checkAddress) {\n                rejected = true;\n            }\n        }\n    }\n\n    /** @dev Function to approve withdrawal of funds\n    * @param _id Project ID\n    * @param _withdrawalRequestIndex Index of withdrawal request\n    */\n    function approveWithdrawalRequest(\n        uint256 _id,\n        uint32 _withdrawalRequestIndex\n    )\n        public\n        onlyProjectDonor(_id)\n        checkState(_id, State.Success)\n        checkLatestWithdrawalIndex(_id, _withdrawalRequestIndex)\n    {\n        // confirm msg.sender hasn't approved request yet\n        require(!_checkAddressInApprovalsIterator(_id, _withdrawalRequestIndex, msg.sender), \n                \"Invalid operation. You have already approved this request\");\n\n        require(!_checkAddressInRejectionIterator(_id, _withdrawalRequestIndex, msg.sender), \n                \"Invalid operation. You have rejected this request\");\n\n        // get total withdrawal requests made\n        uint256 _lastWithdrawal = latestWithdrawalIndex[_id];\n\n        // iterate over all requests for this project\n        for (uint256 i = 0; i < _lastWithdrawal; i++) {\n            // if request number is equal to index\n            if(i + 1 == _withdrawalRequestIndex) {\n                // increment approval count\n                idToWithdrawalRequests[_id][i].approvedVotes += 1;\n            }\n        }\n\n        // push msg.sender to approvals list for this request\n        approvals[_id][_withdrawalRequestIndex - 1].push(msg.sender);\n        \n        emit ApproveRequest(_id, _withdrawalRequestIndex);\n    }\n\n    /** @dev Function to reject withdrawal of funds\n     * @param _id Project ID\n     * @param _withdrawalRequestIndex Index of withdrawal request\n     */\n    function rejectWithdrawalRequest(\n        uint256 _id,\n        uint32 _withdrawalRequestIndex\n    )\n        public\n        onlyProjectDonor(_id)\n        checkState(_id, State.Success)\n        checkLatestWithdrawalIndex(_id, _withdrawalRequestIndex)\n    {\n        // confirm user hasn't approved request\n        require(!_checkAddressInApprovalsIterator(_id, _withdrawalRequestIndex, msg.sender), \n                \"Invalid operation. You have approved this request\");\n        require(!_checkAddressInRejectionIterator(_id, _withdrawalRequestIndex, msg.sender), \n                \"Invalid operation. You have already rejected this request\");\n\n        // get total withdrawal requests made\n        uint256 _lastWithdrawal = latestWithdrawalIndex[_id];\n\n        // iterate over all requests for this project\n        for (uint256 i = 0; i < _lastWithdrawal; i++) {\n            // if request number is equal to index\n            if(i + 1 == _withdrawalRequestIndex) {\n                // if there hve been approvals, decrement\n                if(idToWithdrawalRequests[_id][i].approvedVotes != 0) {\n                    // decrement approval count\n                    idToWithdrawalRequests[_id][i].approvedVotes -= 1;\n                } \n                    // else if no one has approved request yet, keep approvals to 0\n                else {\n                    idToWithdrawalRequests[_id][i].approvedVotes == 0;\n                }\n            }\n        }\n\n        // add msg.sender to rejections list for this request\n        rejections[_id][_withdrawalRequestIndex - 1].push(msg.sender);\n\n        emit RejectRequest(_id, _withdrawalRequestIndex);\n    }\n\n    /** @dev Function to transfer funds to project creator\n     * @param _id Project ID\n     * @param _withdrawalRequestIndex Index of withdrawal request\n     */\n    function transferWithdrawalRequestFunds(\n        uint256 _id,\n        uint32 _withdrawalRequestIndex\n    )\n        public\n        payable\n        onlyProjectOwner(_id)\n        checkLatestWithdrawalIndex(_id, _withdrawalRequestIndex)\n        nonReentrant()\n    {\n        require(\n            // _withdrawalRequestIndex - 1 to accomodate 0 start of arrays\n            idToWithdrawalRequests[_id][_withdrawalRequestIndex - 1].approvedVotes >\n                    (idToProject[_id].totalDepositors).div(2)\n            ,\n            \"More than half the total depositors need to approve withdrawal request\"\n        );\n\n        require(idToWithdrawalRequests[_id][_withdrawalRequestIndex - 1].withdrawn == false, \n                \"Withdrawal has laready been made for this request\");\n\n        require(idToWithdrawalRequests[_id][_withdrawalRequestIndex - 1].withdrawalAmount < idToProject[_id].totalPledged, \n                \"Insufficient funds\");\n\n        WithdrawalRequest storage cRequest = idToWithdrawalRequests[_id][_withdrawalRequestIndex - 1];\n\n        // flat 0.3% platform fee\n        uint256 platformFee = (cRequest.withdrawalAmount.mul(3)).div(1000);\n        (bool pfSuccess, ) = payable(platformAdmin).call{value: platformFee}(\"\");\n        require(pfSuccess, \"Transaction failed. Please try again later.\");\n        emit PayPlatform(_id, _withdrawalRequestIndex, platformFee);\n        \n        // transfer funds to creator\n        address payable _creator = idToProject[_id].creator;\n        uint256 _amount = cRequest.withdrawalAmount - platformFee;\n        (bool success, ) = _creator.call{value: _amount}(\"\");\n        require(success, \"Transaction failed. Please try again later.\");\n        emit PayCreator(_id, _withdrawalRequestIndex, _amount);\n\n        // update states\n        cRequest.withdrawn = true;\n        idToProject[_id].totalWithdrawn += cRequest.withdrawalAmount;\n\n        emit TransferRequestFunds(_id, _withdrawalRequestIndex);\n    }\n\n    /*===== Blockchain get functions =====*/\n\n    /** @dev Function to get project details\n     * @param _id Project ID\n     */\n    function getProjectDetails(uint256 _id)\n        public\n        view\n        returns (\n            address creator,\n            string memory name,\n            string memory description,\n            uint256 projectDeadline,\n            uint256 totalPledged,\n            uint256 goal,\n            uint256 totalDepositors,\n            uint256 totalWithdrawn,\n            State currentState\n\n        )\n    {\n        creator = idToProject[_id].creator;\n        name = idToProject[_id].name;\n        description = idToProject[_id].description;\n        projectDeadline = idToProject[_id].projectDeadline;\n        totalPledged = idToProject[_id].totalPledged;\n        goal = idToProject[_id].goal;\n        totalDepositors = idToProject[_id].totalDepositors;\n        totalWithdrawn = idToProject[_id].totalWithdrawn;\n        currentState = idToProject[_id].currentState;\n    }\n\n    function getAllProjects() public view returns (Project[] memory) {\n        uint256 _projectCount = projectCount;\n\n        Project[] memory projects = new Project[](_projectCount);\n        for (uint256 i = 0; i < _projectCount; i++) {\n            uint256 currentId = i + 1;\n            Project storage currentItem = idToProject[currentId];\n            projects[i] = currentItem;\n        }\n        return projects;\n    }\n\n    function getProjectCount() public view returns (uint256 count) {\n        count = projectCount;\n    }\n\n    function getAllWithdrawalRequests(uint256 _id)\n        public\n        view\n        returns (WithdrawalRequest[] memory)\n    {\n        uint256 _lastWithdrawal = latestWithdrawalIndex[_id];\n\n        WithdrawalRequest[] memory withdrawals = new WithdrawalRequest[](\n            _lastWithdrawal\n        );\n        for (uint256 i = 0; i < _lastWithdrawal; i++) {\n            WithdrawalRequest storage currentRequest = idToWithdrawalRequests[_id][i];\n            withdrawals[i] = currentRequest;\n        }\n\n        return withdrawals;\n    }\n\n    function getContributions(uint256 _id, address _contributor) public view returns(uint256) {\n        return contributions[_id][_contributor];\n    }\n}\n",
  "sourcePath": "/home/dhruv/Desktop/projects/dApps/08 - crowdfund/contracts/CrowdFund.sol",
  "compiler": {
    "name": "solc",
    "version": "0.8.4+commit.c7e474f2.Emscripten.clang"
  },
  "schemaVersion": "3.4.7",
  "updatedAt": "2022-06-11T06:03:52.144Z",
  "networkType": "ethereum",
  "devdoc": {
    "kind": "dev",
    "methods": {
      "approveWithdrawalRequest(uint256,uint32)": {
        "details": "Function to approve withdrawal of funds",
        "params": {
          "_id": "Project ID",
          "_withdrawalRequestIndex": "Index of withdrawal request"
        }
      },
      "contributeFunds(uint256)": {
        "details": "Function to make a contribution to the project",
        "params": {
          "_id": "Project ID where contributions are to be made"
        }
      },
      "createNewProject(string,string,uint256,uint256)": {
        "details": "Function to start a new project.",
        "params": {
          "_description": "Project Description",
          "_goalEth": "Project goal in ETH",
          "_name": "Name of the project",
          "_projectDeadline": "Total days to end of fundraise"
        }
      },
      "createWithdrawalRequest(uint256,uint32,string,uint256)": {
        "details": "Function to create a request for withdrawal of funds",
        "params": {
          "_amount": "Amount of withdrawal requested in ETH",
          "_description": "Purpose of withdrawal",
          "_id": "Project ID",
          "_requestNumber": "Index of the request"
        }
      },
      "endContributionsExpire(uint256)": {
        "details": "Function to end fundraising drive",
        "params": {
          "_id": "Project ID"
        }
      },
      "endContributionsSuccess(uint256)": {
        "details": "Function to end fundraising drive with success is total pledged higher than goal. Irrespective of deadline",
        "params": {
          "_id": "Project ID"
        }
      },
      "getProjectDetails(uint256)": {
        "details": "Function to get project details",
        "params": {
          "_id": "Project ID"
        }
      },
      "getRefund(uint256)": {
        "details": "Function to get refund on expired projects",
        "params": {
          "_id": "Project ID"
        }
      },
      "rejectWithdrawalRequest(uint256,uint32)": {
        "details": "Function to reject withdrawal of funds",
        "params": {
          "_id": "Project ID",
          "_withdrawalRequestIndex": "Index of withdrawal request"
        }
      },
      "transferWithdrawalRequestFunds(uint256,uint32)": {
        "details": "Function to transfer funds to project creator",
        "params": {
          "_id": "Project ID",
          "_withdrawalRequestIndex": "Index of withdrawal request"
        }
      }
    },
    "version": 1
  },
  "userdoc": {
    "kind": "user",
    "methods": {},
    "version": 1
  }
}