{
  "contractName": "CrowdFund",
  "abi": [
    {
      "inputs": [],
      "stateMutability": "nonpayable",
      "type": "constructor"
    },
    {
      "anonymous": false,
      "inputs": [
        {
          "indexed": true,
          "internalType": "uint256",
          "name": "_id",
          "type": "uint256"
        },
        {
          "indexed": false,
          "internalType": "uint32",
          "name": "_withdrawalRequestIndex",
          "type": "uint32"
        }
      ],
      "name": "ApproveRequest",
      "type": "event"
    },
    {
      "anonymous": false,
      "inputs": [
        {
          "indexed": true,
          "internalType": "uint256",
          "name": "id",
          "type": "uint256"
        },
        {
          "indexed": false,
          "internalType": "string",
          "name": "name",
          "type": "string"
        },
        {
          "indexed": false,
          "internalType": "uint256",
          "name": "projectDeadline",
          "type": "uint256"
        },
        {
          "indexed": false,
          "internalType": "uint256",
          "name": "goal",
          "type": "uint256"
        }
      ],
      "name": "ExpireFundraise",
      "type": "event"
    },
    {
      "anonymous": false,
      "inputs": [
        {
          "indexed": true,
          "internalType": "uint256",
          "name": "id",
          "type": "uint256"
        },
        {
          "indexed": false,
          "internalType": "address",
          "name": "contributor",
          "type": "address"
        },
        {
          "indexed": false,
          "internalType": "uint256",
          "name": "amount",
          "type": "uint256"
        },
        {
          "indexed": false,
          "internalType": "uint256",
          "name": "totalPledged",
          "type": "uint256"
        }
      ],
      "name": "FundsReceive",
      "type": "event"
    },
    {
      "anonymous": false,
      "inputs": [
        {
          "indexed": true,
          "internalType": "uint256",
          "name": "id",
          "type": "uint256"
        },
        {
          "indexed": false,
          "internalType": "address",
          "name": "refundRequestUser",
          "type": "address"
        },
        {
          "indexed": false,
          "internalType": "uint256",
          "name": "refundAmt",
          "type": "uint256"
        }
      ],
      "name": "GenerateRefund",
      "type": "event"
    },
    {
      "anonymous": false,
      "inputs": [
        {
          "indexed": true,
          "internalType": "uint256",
          "name": "id",
          "type": "uint256"
        },
        {
          "indexed": false,
          "internalType": "address",
          "name": "projectCreator",
          "type": "address"
        },
        {
          "indexed": false,
          "internalType": "string",
          "name": "projectTitle",
          "type": "string"
        },
        {
          "indexed": false,
          "internalType": "string",
          "name": "projectDesc",
          "type": "string"
        },
        {
          "indexed": false,
          "internalType": "uint256",
          "name": "projectDeadline",
          "type": "uint256"
        },
        {
          "indexed": false,
          "internalType": "uint256",
          "name": "goalAmount",
          "type": "uint256"
        }
      ],
      "name": "NewProjectCreated",
      "type": "event"
    },
    {
      "anonymous": false,
      "inputs": [
        {
          "indexed": true,
          "internalType": "uint256",
          "name": "id",
          "type": "uint256"
        },
        {
          "indexed": false,
          "internalType": "string",
          "name": "description",
          "type": "string"
        },
        {
          "indexed": false,
          "internalType": "uint256",
          "name": "amount",
          "type": "uint256"
        }
      ],
      "name": "NewWithdrawalRequest",
      "type": "event"
    },
    {
      "anonymous": false,
      "inputs": [
        {
          "indexed": true,
          "internalType": "uint256",
          "name": "_id",
          "type": "uint256"
        },
        {
          "indexed": false,
          "internalType": "uint32",
          "name": "_withdrawalRequestIndex",
          "type": "uint32"
        },
        {
          "indexed": false,
          "internalType": "uint256",
          "name": "_amountTransfered",
          "type": "uint256"
        }
      ],
      "name": "PayCreator",
      "type": "event"
    },
    {
      "anonymous": false,
      "inputs": [
        {
          "indexed": true,
          "internalType": "uint256",
          "name": "_id",
          "type": "uint256"
        },
        {
          "indexed": false,
          "internalType": "uint32",
          "name": "_withdrawalRequestIndex",
          "type": "uint32"
        },
        {
          "indexed": false,
          "internalType": "uint256",
          "name": "_amountTransfered",
          "type": "uint256"
        }
      ],
      "name": "PayPlatform",
      "type": "event"
    },
    {
      "anonymous": false,
      "inputs": [
        {
          "indexed": true,
          "internalType": "uint256",
          "name": "_id",
          "type": "uint256"
        },
        {
          "indexed": false,
          "internalType": "uint32",
          "name": "_withdrawalRequestIndex",
          "type": "uint32"
        }
      ],
      "name": "RejectRequest",
      "type": "event"
    },
    {
      "anonymous": false,
      "inputs": [
        {
          "indexed": true,
          "internalType": "uint256",
          "name": "id",
          "type": "uint256"
        },
        {
          "indexed": false,
          "internalType": "string",
          "name": "name",
          "type": "string"
        },
        {
          "indexed": false,
          "internalType": "uint256",
          "name": "projectDeadline",
          "type": "uint256"
        },
        {
          "indexed": false,
          "internalType": "uint256",
          "name": "goal",
          "type": "uint256"
        }
      ],
      "name": "SuccessButContinueFundRaise",
      "type": "event"
    },
    {
      "anonymous": false,
      "inputs": [
        {
          "indexed": true,
          "internalType": "uint256",
          "name": "id",
          "type": "uint256"
        },
        {
          "indexed": false,
          "internalType": "string",
          "name": "name",
          "type": "string"
        },
        {
          "indexed": false,
          "internalType": "uint256",
          "name": "projectDeadline",
          "type": "uint256"
        },
        {
          "indexed": false,
          "internalType": "uint256",
          "name": "goal",
          "type": "uint256"
        }
      ],
      "name": "SuccessFundRaise",
      "type": "event"
    },
    {
      "anonymous": false,
      "inputs": [
        {
          "indexed": true,
          "internalType": "uint256",
          "name": "_id",
          "type": "uint256"
        },
        {
          "indexed": false,
          "internalType": "uint32",
          "name": "_withdrawalRequestIndex",
          "type": "uint32"
        }
      ],
      "name": "TransferRequestFunds",
      "type": "event"
    },
    {
      "stateMutability": "payable",
      "type": "fallback",
      "payable": true
    },
    {
      "inputs": [
        {
          "internalType": "uint256",
          "name": "",
          "type": "uint256"
        },
        {
          "internalType": "address",
          "name": "",
          "type": "address"
        }
      ],
      "name": "contributions",
      "outputs": [
        {
          "internalType": "uint256",
          "name": "",
          "type": "uint256"
        }
      ],
      "stateMutability": "view",
      "type": "function",
      "constant": true
    },
    {
      "inputs": [
        {
          "internalType": "uint256",
          "name": "",
          "type": "uint256"
        }
      ],
      "name": "idToProject",
      "outputs": [
        {
          "internalType": "uint256",
          "name": "id",
          "type": "uint256"
        },
        {
          "internalType": "address payable",
          "name": "creator",
          "type": "address"
        },
        {
          "internalType": "string",
          "name": "name",
          "type": "string"
        },
        {
          "internalType": "string",
          "name": "description",
          "type": "string"
        },
        {
          "internalType": "uint256",
          "name": "projectDeadline",
          "type": "uint256"
        },
        {
          "internalType": "uint256",
          "name": "totalPledged",
          "type": "uint256"
        },
        {
          "internalType": "uint256",
          "name": "goal",
          "type": "uint256"
        },
        {
          "internalType": "uint256",
          "name": "totalDepositors",
          "type": "uint256"
        },
        {
          "internalType": "uint256",
          "name": "totalWithdrawn",
          "type": "uint256"
        },
        {
          "internalType": "enum CrowdFund.State",
          "name": "currentState",
          "type": "uint8"
        }
      ],
      "stateMutability": "view",
      "type": "function",
      "constant": true
    },
    {
      "inputs": [
        {
          "internalType": "uint256",
          "name": "",
          "type": "uint256"
        },
        {
          "internalType": "uint256",
          "name": "",
          "type": "uint256"
        }
      ],
      "name": "idToWithdrawalRequests",
      "outputs": [
        {
          "internalType": "uint32",
          "name": "index",
          "type": "uint32"
        },
        {
          "internalType": "string",
          "name": "description",
          "type": "string"
        },
        {
          "internalType": "uint256",
          "name": "withdrawalAmount",
          "type": "uint256"
        },
        {
          "internalType": "address payable",
          "name": "recipient",
          "type": "address"
        },
        {
          "internalType": "uint256",
          "name": "approvedVotes",
          "type": "uint256"
        },
        {
          "internalType": "enum CrowdFund.Withdrawal",
          "name": "currentWithdrawalState",
          "type": "uint8"
        },
        {
          "internalType": "bool",
          "name": "withdrawn",
          "type": "bool"
        }
      ],
      "stateMutability": "view",
      "type": "function",
      "constant": true
    },
    {
      "inputs": [],
      "name": "projectCount",
      "outputs": [
        {
          "internalType": "uint256",
          "name": "",
          "type": "uint256"
        }
      ],
      "stateMutability": "view",
      "type": "function",
      "constant": true
    },
    {
      "stateMutability": "payable",
      "type": "receive",
      "payable": true
    },
    {
      "inputs": [
        {
          "internalType": "string",
          "name": "_name",
          "type": "string"
        },
        {
          "internalType": "string",
          "name": "_description",
          "type": "string"
        },
        {
          "internalType": "uint256",
          "name": "_projectDeadline",
          "type": "uint256"
        },
        {
          "internalType": "uint256",
          "name": "_goalEth",
          "type": "uint256"
        }
      ],
      "name": "createNewProject",
      "outputs": [],
      "stateMutability": "nonpayable",
      "type": "function"
    },
    {
      "inputs": [
        {
          "internalType": "uint256",
          "name": "_id",
          "type": "uint256"
        }
      ],
      "name": "contributeFunds",
      "outputs": [],
      "stateMutability": "payable",
      "type": "function",
      "payable": true
    },
    {
      "inputs": [
        {
          "internalType": "uint256",
          "name": "_id",
          "type": "uint256"
        }
      ],
      "name": "endContributionsExpire",
      "outputs": [],
      "stateMutability": "nonpayable",
      "type": "function"
    },
    {
      "inputs": [
        {
          "internalType": "uint256",
          "name": "_id",
          "type": "uint256"
        }
      ],
      "name": "endContributionsSuccess",
      "outputs": [],
      "stateMutability": "nonpayable",
      "type": "function"
    },
    {
      "inputs": [
        {
          "internalType": "uint256",
          "name": "_id",
          "type": "uint256"
        }
      ],
      "name": "getRefund",
      "outputs": [],
      "stateMutability": "payable",
      "type": "function",
      "payable": true
    },
    {
      "inputs": [
        {
          "internalType": "uint256",
          "name": "_id",
          "type": "uint256"
        },
        {
          "internalType": "uint32",
          "name": "_requestNumber",
          "type": "uint32"
        },
        {
          "internalType": "string",
          "name": "_description",
          "type": "string"
        },
        {
          "internalType": "uint256",
          "name": "_amount",
          "type": "uint256"
        },
        {
          "internalType": "string",
          "name": "_url",
          "type": "string"
        }
      ],
      "name": "createWithdrawalRequest",
      "outputs": [],
      "stateMutability": "nonpayable",
      "type": "function"
    },
    {
      "inputs": [
        {
          "internalType": "uint256",
          "name": "_id",
          "type": "uint256"
        },
        {
          "internalType": "uint32",
          "name": "_withdrawalRequestIndex",
          "type": "uint32"
        },
        {
          "internalType": "address",
          "name": "_checkAddress",
          "type": "address"
        }
      ],
      "name": "checkAddressInApprovalsIterator",
      "outputs": [
        {
          "internalType": "bool",
          "name": "",
          "type": "bool"
        }
      ],
      "stateMutability": "view",
      "type": "function",
      "constant": true
    },
    {
      "inputs": [
        {
          "internalType": "uint256",
          "name": "_id",
          "type": "uint256"
        },
        {
          "internalType": "uint32",
          "name": "_withdrawalRequestIndex",
          "type": "uint32"
        },
        {
          "internalType": "address",
          "name": "_checkAddress",
          "type": "address"
        }
      ],
      "name": "checkAddressInRejectionIterator",
      "outputs": [
        {
          "internalType": "bool",
          "name": "",
          "type": "bool"
        }
      ],
      "stateMutability": "view",
      "type": "function",
      "constant": true
    },
    {
      "inputs": [
        {
          "internalType": "uint256",
          "name": "_id",
          "type": "uint256"
        },
        {
          "internalType": "uint32",
          "name": "_withdrawalRequestIndex",
          "type": "uint32"
        }
      ],
      "name": "approveWithdrawalRequest",
      "outputs": [],
      "stateMutability": "nonpayable",
      "type": "function"
    },
    {
      "inputs": [
        {
          "internalType": "uint256",
          "name": "_id",
          "type": "uint256"
        },
        {
          "internalType": "uint32",
          "name": "_withdrawalRequestIndex",
          "type": "uint32"
        }
      ],
      "name": "rejectWithdrawalRequest",
      "outputs": [],
      "stateMutability": "nonpayable",
      "type": "function"
    },
    {
      "inputs": [
        {
          "internalType": "uint256",
          "name": "_id",
          "type": "uint256"
        },
        {
          "internalType": "uint32",
          "name": "_withdrawalRequestIndex",
          "type": "uint32"
        }
      ],
      "name": "transferWithdrawalRequestFunds",
      "outputs": [],
      "stateMutability": "payable",
      "type": "function",
      "payable": true
    },
    {
      "inputs": [
        {
          "internalType": "uint256",
          "name": "_id",
          "type": "uint256"
        }
      ],
      "name": "getProjectDetails",
      "outputs": [
        {
          "internalType": "address",
          "name": "creator",
          "type": "address"
        },
        {
          "internalType": "string",
          "name": "name",
          "type": "string"
        },
        {
          "internalType": "string",
          "name": "description",
          "type": "string"
        },
        {
          "internalType": "uint256",
          "name": "projectDeadline",
          "type": "uint256"
        },
        {
          "internalType": "uint256",
          "name": "totalPledged",
          "type": "uint256"
        },
        {
          "internalType": "uint256",
          "name": "goal",
          "type": "uint256"
        },
        {
          "internalType": "enum CrowdFund.State",
          "name": "currentState",
          "type": "uint8"
        }
      ],
      "stateMutability": "view",
      "type": "function",
      "constant": true
    },
    {
      "inputs": [],
      "name": "getAllProjects",
      "outputs": [
        {
          "components": [
            {
              "internalType": "uint256",
              "name": "id",
              "type": "uint256"
            },
            {
              "internalType": "address payable",
              "name": "creator",
              "type": "address"
            },
            {
              "internalType": "string",
              "name": "name",
              "type": "string"
            },
            {
              "internalType": "string",
              "name": "description",
              "type": "string"
            },
            {
              "internalType": "uint256",
              "name": "projectDeadline",
              "type": "uint256"
            },
            {
              "internalType": "uint256",
              "name": "totalPledged",
              "type": "uint256"
            },
            {
              "internalType": "uint256",
              "name": "goal",
              "type": "uint256"
            },
            {
              "internalType": "uint256",
              "name": "totalDepositors",
              "type": "uint256"
            },
            {
              "internalType": "uint256",
              "name": "totalWithdrawn",
              "type": "uint256"
            },
            {
              "internalType": "enum CrowdFund.State",
              "name": "currentState",
              "type": "uint8"
            }
          ],
          "internalType": "struct CrowdFund.Project[]",
          "name": "",
          "type": "tuple[]"
        }
      ],
      "stateMutability": "view",
      "type": "function",
      "constant": true
    },
    {
      "inputs": [],
      "name": "getProjectCount",
      "outputs": [
        {
          "internalType": "uint256",
          "name": "count",
          "type": "uint256"
        }
      ],
      "stateMutability": "view",
      "type": "function",
      "constant": true
    },
    {
      "inputs": [
        {
          "internalType": "uint256",
          "name": "_id",
          "type": "uint256"
        }
      ],
      "name": "getAllWithdrawalRequests",
      "outputs": [
        {
          "components": [
            {
              "internalType": "uint32",
              "name": "index",
              "type": "uint32"
            },
            {
              "internalType": "string",
              "name": "description",
              "type": "string"
            },
            {
              "internalType": "uint256",
              "name": "withdrawalAmount",
              "type": "uint256"
            },
            {
              "internalType": "address payable",
              "name": "recipient",
              "type": "address"
            },
            {
              "internalType": "uint256",
              "name": "approvedVotes",
              "type": "uint256"
            },
            {
              "internalType": "enum CrowdFund.Withdrawal",
              "name": "currentWithdrawalState",
              "type": "uint8"
            },
            {
              "internalType": "bool",
              "name": "withdrawn",
              "type": "bool"
            }
          ],
          "internalType": "struct CrowdFund.WithdrawalRequest[]",
          "name": "",
          "type": "tuple[]"
        }
      ],
      "stateMutability": "view",
      "type": "function",
      "constant": true
    },
    {
      "inputs": [
        {
          "internalType": "uint256",
          "name": "_id",
          "type": "uint256"
        },
        {
          "internalType": "address",
          "name": "_contributor",
          "type": "address"
        }
      ],
      "name": "getContributions",
      "outputs": [
        {
          "internalType": "uint256",
          "name": "",
          "type": "uint256"
        }
      ],
      "stateMutability": "view",
      "type": "function",
      "constant": true
    }
  ],
  "bytecode": "0x608060405234801561001057600080fd5b506001600081815581546001600160a01b03191633179091556003556132f08061003b6000396000f3fe6080604052600436106101175760003560e01c8063609a7dbe1161009a57806394e113091161006157806394e113091461037e578063aafc92d61461039e578063c1d445ba146103e1578063d2f0be9914610401578063ec45db6b1461041457005b8063609a7dbe146102b95780636bb05fd8146102d957806376b8395e146102f957806380d0382914610326578063931c1d891461034857005b806345120f86116100de57806345120f861461022057806348a05132146102335780634d0f9c681461024657806357c9928b146102665780635f8439e31461028657005b80631424ea1c1461015a57806336fbad261461018f5780633bcff3b0146101b35780633d891f59146101c85780634479d5091461020057005b36610158576001546040516001600160a01b03909116903480156108fc02916000818181858888f19350505050158015610155573d6000803e3d6000fd5b50005b005b34801561016657600080fd5b5061017a610175366004612a39565b610447565b60405190151581526020015b60405180910390f35b34801561019b57600080fd5b506101a560035481565b604051908152602001610186565b3480156101bf57600080fd5b506003546101a5565b3480156101d457600080fd5b506101a56101e33660046129cb565b600560209081526000928352604080842090915290825290205481565b34801561020c57600080fd5b5061015861021b366004612a74565b610520565b61015861022e366004612a17565b6107fb565b6101586102413660046129b3565b610d7e565b34801561025257600080fd5b506101586102613660046129b3565b611042565b34801561027257600080fd5b5061017a610281366004612a39565b6111d4565b34801561029257600080fd5b506102a66102a13660046129b3565b6112a4565b6040516101869796959493929190612bb3565b3480156102c557600080fd5b506101586102d4366004612a17565b611438565b3480156102e557600080fd5b506101586102f43660046129b3565b611727565b34801561030557600080fd5b506103196103143660046129b3565b61187d565b6040516101869190612d09565b34801561033257600080fd5b5061033b611ac2565b6040516101869190612c17565b34801561035457600080fd5b506103686103633660046129b3565b611d72565b6040516101869a9998979695949392919061308a565b34801561038a57600080fd5b50610158610399366004612942565b611edf565b3480156103aa57600080fd5b506101a56103b93660046129cb565b60009182526005602090815260408084206001600160a01b0393909316845291905290205490565b3480156103ed57600080fd5b506101586103fc366004612a17565b6120cf565b61015861040f3660046129b3565b6123b0565b34801561042057600080fd5b5061043461042f3660046129f6565b6125f9565b6040516101869796959493929190613108565b6000805b6000858152600860205260408120906104656001876131fd565b63ffffffff1681526020810191909152604001600020548110156105175760008581526008602052604081206001600160a01b038516916104a76001886131fd565b63ffffffff1663ffffffff16815260200190815260200160002082815481106104e057634e487b7160e01b600052603260045260246000fd5b6000918252602090912001546001600160a01b03161415610505576001915050610519565b8061050f8161325d565b91505061044b565b505b9392505050565b60008581526004602052604090206001015485906001600160a01b031633146105645760405162461bcd60e51b815260040161055b90612f41565b60405180910390fd5b8560028060008381526004602052604090206009015460ff16600281111561059c57634e487b7160e01b600052602160045260246000fd5b146105b95760405162461bcd60e51b815260040161055b9061300f565b60008881526004602052604090206005810154600890910154106106145760405162461bcd60e51b8152602060048201526012602482015271496e73756666696369656e742066756e647360701b604482015260640161055b565b600061062886670de0b6b3a76400006131c7565b6040805160e08101825263ffffffff8b16815260208082018b905281830184905260008d815260049091529182206001908101546001600160a01b0316606083015260808201839052929350909160a08201908152600060209182018190528c815260068083526040822080546001808201835591845292849020855193909202909101805463ffffffff191663ffffffff909316929092178255838301518051949550859492936106e0939285019291019061270d565b506040820151600282015560608201516003820180546001600160a01b0319166001600160a01b039092169190911790556080820151600482015560a082015160058201805460ff19166001838181111561074b57634e487b7160e01b600052602160045260246000fd5b021790555060c09190910151600590910180549115156101000261ff001990921691909117905560008a815260076020526040812080546001929061079790849063ffffffff1661317f565b92506101000a81548163ffffffff021916908363ffffffff160217905550897fa37d57837469eb033a5f2b4e3333c3523977fcc88d9ff414952850be9cfa64b489896040516107e7929190612dc1565b60405180910390a250505050505050505050565b60008281526004602052604090206001015482906001600160a01b031633146108365760405162461bcd60e51b815260040161055b90612f41565b6000838152600760205260409020548390839063ffffffff8083169116146108705760405162461bcd60e51b815260040161055b90612f9e565b600260005414156108935760405162461bcd60e51b815260040161055b90613053565b60026000818155868152600460205260409020600701546108b3916126f5565b60008681526006602052604090206108cc6001876131fd565b63ffffffff16815481106108f057634e487b7160e01b600052603260045260246000fd5b906000526020600020906006020160040154116109845760405162461bcd60e51b815260206004820152604660248201527f4d6f7265207468616e2068616c662074686520746f74616c206465706f73697460448201527f6f7273206e65656420746f20617070726f7665207769746864726177616c2072606482015265195c5d595cdd60d21b608482015260a40161055b565b600085815260066020526040902061099d6001866131fd565b63ffffffff16815481106109c157634e487b7160e01b600052603260045260246000fd5b6000918252602090912060069091020160050154610100900460ff1615610a445760405162461bcd60e51b815260206004820152603160248201527f5769746864726177616c20686173206c617265616479206265656e206d61646560448201527008199bdc881d1a1a5cc81c995c5d595cdd607a1b606482015260840161055b565b6000858152600460209081526040808320600501546006909252909120610a6c6001876131fd565b63ffffffff1681548110610a9057634e487b7160e01b600052603260045260246000fd5b90600052602060002090600602016002015410610ae45760405162461bcd60e51b8152602060048201526012602482015271496e73756666696369656e742066756e647360701b604482015260640161055b565b6000858152600660205260408120610afd6001876131fd565b63ffffffff1681548110610b2157634e487b7160e01b600052603260045260246000fd5b906000526020600020906006020190506000610b576103e8610b516003856002015461270190919063ffffffff16565b906126f5565b6001546040519192506000916001600160a01b039091169083908381818185875af1925050503d8060008114610ba9576040519150601f19603f3d011682016040523d82523d6000602084013e610bae565b606091505b5050905080610bcf5760405162461bcd60e51b815260040161055b90612ef6565b6040805163ffffffff891681526020810184905289917f7afc4bae9e6d0e661f2ce0c1dce50a3343eb3d1ade8d52b9be5aa4d58a959858910160405180910390a260008881526004602052604081206001015460028501546001600160a01b039091169190610c3f9085906131e6565b90506000826001600160a01b03168260405160006040518083038185875af1925050503d8060008114610c8e576040519150601f19603f3d011682016040523d82523d6000602084013e610c93565b606091505b5050905080610cb45760405162461bcd60e51b815260040161055b90612ef6565b6040805163ffffffff8c168152602081018490528c917f27ae59d111e674b3cbf2ac19158097c97ed2f28fc764b66f9fa7e82b775def3d910160405180910390a260058601805461ff001916610100179055600286015460008c81526004602052604081206008018054909190610d2c908490613167565b909155505060405163ffffffff8b1681528b907f7504b85ae1674ef95f5e2fa834bb48de5507b38a5e144bc39623c2904c77a77d9060200160405180910390a250506001600055505050505050505050565b8060008060008381526004602052604090206009015460ff166002811115610db657634e487b7160e01b600052602160045260246000fd5b14610dd35760405162461bcd60e51b815260040161055b9061300f565b60026000541415610df65760405162461bcd60e51b815260040161055b90613053565b6002600055600354831115610e4d5760405162461bcd60e51b815260206004820152601760248201527f50726f6a656374204944206f7574206f662072616e6765000000000000000000604482015260640161055b565b60003411610ec35760405162461bcd60e51b815260206004820152603d60248201527f496e76616c6964207472616e73616374696f6e2e20506c656173652073656e6460448201527f2076616c696420616d6f756e747320746f207468652070726f6a656374000000606482015260840161055b565b60008381526004602081905260409091200154421115610f435760405162461bcd60e51b815260206004820152603560248201527f436f6e747269627574696f6e732063616e6e6f74206265206d61646520746f206044820152743a3434b990383937b532b1ba1030b73cb6b7b9329760591b606482015260840161055b565b3060009081526002602052604081208054349290610f62908490613167565b9091555050600083815260056020908152604080832033845290915281208054349290610f90908490613167565b909155505060008381526004602052604081206005018054349290610fb6908490613167565b90915550506000838152600460205260408120600701805460019290610fdd908490613167565b9091555050600083815260046020908152604091829020600501548251338152349281019290925281830152905184917f96d677f95277e6d3f1e654cf54d6351531e1d08e3bafd5465d62827c1ad19990919081900360600190a25050600160005550565b6000818152600560209081526040808320338452909152902054819061107a5760405162461bcd60e51b815260040161055b90612e98565b8160008060008381526004602052604090206009015460ff1660028111156110b257634e487b7160e01b600052602160045260246000fd5b146110cf5760405162461bcd60e51b815260040161055b9061300f565b6000848152600460208190526040909120015442116111645760405162461bcd60e51b815260206004820152604560248201527f496e76616c696420726571756573742e2043616e206f6e6c792062652063616c60448201527f6c65642061667465722070726f6a65637420646561646c696e652069732072656064820152641858da195960da1b608482015260a40161055b565b60008481526004602081905260409182902060098101805460ff19166001179055908101546006820154925187937fdb9232394d6106fcda07dcda0ef3d7dd5c910776908c279f0e55ae9dc65e804f936111c693600290910192909190612de3565b60405180910390a250505050565b6000805b6000858152600960205260408120906111f26001876131fd565b63ffffffff1681526020810191909152604001600020548110156105175760008581526009602052604081206001600160a01b038516916112346001886131fd565b63ffffffff1663ffffffff168152602001908152602001600020828154811061126d57634e487b7160e01b600052603260045260246000fd5b6000918252602090912001546001600160a01b03161415611292576001915050610519565b8061129c8161325d565b9150506111d8565b60008181526004602052604081206001810154600290910180546001600160a01b039092169260609283928291829182916112de90613222565b80601f016020809104026020016040519081016040528092919081815260200182805461130a90613222565b80156113575780601f1061132c57610100808354040283529160200191611357565b820191906000526020600020905b81548152906001019060200180831161133a57829003601f168201915b50505060008b815260046020526040902060030180549399509261137d92509050613222565b80601f01602080910402602001604051908101604052809291908181526020018280546113a990613222565b80156113f65780601f106113cb576101008083540402835291602001916113f6565b820191906000526020600020905b8154815290600101906020018083116113d957829003601f168201915b50505060009a8b5250506004602081905260409099209889015460058a015460068b01546009909b0154999b989a9299919890975091955060ff169350915050565b600082815260056020908152604080832033845290915290205482906114705760405162461bcd60e51b815260040161055b90612e98565b8260028060008381526004602052604090206009015460ff1660028111156114a857634e487b7160e01b600052602160045260246000fd5b146114c55760405162461bcd60e51b815260040161055b9061300f565b6000858152600760205260409020548590859063ffffffff8083169116146114ff5760405162461bcd60e51b815260040161055b90612f9e565b61150a878733610447565b1561157d5760405162461bcd60e51b815260206004820152603960248201527f496e76616c6964206f7065726174696f6e2e20596f75206861766520616c726560448201527f61647920617070726f7665642074686973207265717565737400000000000000606482015260840161055b565b6115888787336111d4565b156115ef5760405162461bcd60e51b815260206004820152603160248201527f496e76616c6964206f7065726174696f6e2e20596f7520686176652072656a6560448201527018dd1959081d1a1a5cc81c995c5d595cdd607a1b606482015260840161055b565b60008781526007602052604081205463ffffffff16905b818110156116905763ffffffff8816611620826001613167565b141561167e5760008981526006602052604090208054600191908390811061165857634e487b7160e01b600052603260045260246000fd5b906000526020600020906006020160040160008282546116789190613167565b90915550505b806116888161325d565b915050611606565b506000888152600860205260408120906116ab60018a6131fd565b63ffffffff9081168252602080830193909352604091820160009081208054600181018255908252908490200180546001600160a01b031916331790559051908916815289917ffd21b63d56fe3d4851c3b38b5800335b6b1651056961e7299ce755362169be9291015b60405180910390a25050505050505050565b60008181526004602052604090206001015481906001600160a01b031633146117625760405162461bcd60e51b815260040161055b90612f41565b8160008060008381526004602052604090206009015460ff16600281111561179a57634e487b7160e01b600052602160045260246000fd5b146117b75760405162461bcd60e51b815260040161055b9061300f565b60008481526004602052604090206006810154600590910154101561181e5760405162461bcd60e51b815260206004820152601c60248201527f446964206e6f74207265636569766520656e6f7567682066756e647300000000604482015260640161055b565b60008481526004602081905260409182902060098101805460ff19166002908117909155918101546006820154935188947f4674ab4436b804febf0a1526a0addd752d2762b69048ab01fe978c427a723f7b946111c694019291612de3565b60008181526007602052604081205460609163ffffffff909116908167ffffffffffffffff8111156118bf57634e487b7160e01b600052604160045260246000fd5b6040519080825280602002602001820160405280156118f857816020015b6118e5612791565b8152602001906001900390816118dd5790505b50905060005b8281101561051757600085815260066020526040812080548390811061193457634e487b7160e01b600052603260045260246000fd5b60009182526020918290206040805160e08101909152600690920201805463ffffffff168252600181018054919450919284929084019161197490613222565b80601f01602080910402602001604051908101604052809291908181526020018280546119a090613222565b80156119ed5780601f106119c2576101008083540402835291602001916119ed565b820191906000526020600020905b8154815290600101906020018083116119d057829003601f168201915b50505091835250506002820154602082015260038201546001600160a01b0316604082015260048201546060820152600582015460809091019060ff166001811115611a4957634e487b7160e01b600052602160045260246000fd5b6001811115611a6857634e487b7160e01b600052602160045260246000fd5b815260059190910154610100900460ff1615156020909101528351849084908110611aa357634e487b7160e01b600052603260045260246000fd5b6020026020010181905250508080611aba9061325d565b9150506118fe565b60035460609060008167ffffffffffffffff811115611af157634e487b7160e01b600052604160045260246000fd5b604051908082528060200260200182016040528015611b2a57816020015b611b176127fc565b815260200190600190039081611b0f5790505b50905060005b82811015611d6b576000611b45826001613167565b6000818152600460209081526040918290208251610140810184528154815260018201546001600160a01b0316928101929092526002810180549495509093919284929084019190611b9690613222565b80601f0160208091040260200160405190810160405280929190818152602001828054611bc290613222565b8015611c0f5780601f10611be457610100808354040283529160200191611c0f565b820191906000526020600020905b815481529060010190602001808311611bf257829003601f168201915b50505050508152602001600382018054611c2890613222565b80601f0160208091040260200160405190810160405280929190818152602001828054611c5490613222565b8015611ca15780601f10611c7657610100808354040283529160200191611ca1565b820191906000526020600020905b815481529060010190602001808311611c8457829003601f168201915b505050918352505060048201546020820152600582015460408201526006820154606082015260078201546080820152600882015460a0820152600982015460c09091019060ff166002811115611d0857634e487b7160e01b600052602160045260246000fd5b6002811115611d2757634e487b7160e01b600052602160045260246000fd5b81525050848481518110611d4b57634e487b7160e01b600052603260045260246000fd5b602002602001018190525050508080611d639061325d565b915050611b30565b5092915050565b60046020526000908152604090208054600182015460028301805492936001600160a01b0390921692611da490613222565b80601f0160208091040260200160405190810160405280929190818152602001828054611dd090613222565b8015611e1d5780601f10611df257610100808354040283529160200191611e1d565b820191906000526020600020905b815481529060010190602001808311611e0057829003601f168201915b505050505090806003018054611e3290613222565b80601f0160208091040260200160405190810160405280929190818152602001828054611e5e90613222565b8015611eab5780601f10611e8057610100808354040283529160200191611eab565b820191906000526020600020905b815481529060010190602001808311611e8e57829003601f168201915b5050506004840154600585015460068601546007870154600888015460099098015496979396929550909350919060ff168a565b600160036000828254611ef29190613167565b9091555060009050611f0c82670de0b6b3a76400006131c7565b905060006040518061014001604052806003548152602001336001600160a01b0316815260200187815260200186815260200185815260200160008152602001838152602001600081526020016000815260200160006002811115611f8157634e487b7160e01b600052602160045260246000fd5b905260035460009081526004602090815260409182902083518155838201516001820180546001600160a01b0319166001600160a01b039092169190911790559183015180519394508493611fdc926002850192019061270d565b5060608201518051611ff891600384019160209091019061270d565b506080820151600482015560a0820151600582015560c0820151600682015560e08201516007820155610100820151600882015561012082015160098201805460ff1916600183600281111561205e57634e487b7160e01b600052602160045260246000fd5b0217905550506003805460009081526007602052604090819020805463ffffffff19169055905490519091507f493a8ea55e13538971dc7a8db3b5ac7e6a8de74e7c0c2e948c70fa2ac16ea489906120bf9033908a908a908a908990612b68565b60405180910390a2505050505050565b600082815260056020908152604080832033845290915290205482906121075760405162461bcd60e51b815260040161055b90612e98565b8260028060008381526004602052604090206009015460ff16600281111561213f57634e487b7160e01b600052602160045260246000fd5b1461215c5760405162461bcd60e51b815260040161055b9061300f565b6000858152600760205260409020548590859063ffffffff8083169116146121965760405162461bcd60e51b815260040161055b90612f9e565b6121a1878733610447565b156122085760405162461bcd60e51b815260206004820152603160248201527f496e76616c6964206f7065726174696f6e2e20596f75206861766520617070726044820152701bdd9959081d1a1a5cc81c995c5d595cdd607a1b606482015260840161055b565b6122138787336111d4565b156122865760405162461bcd60e51b815260206004820152603960248201527f496e76616c6964206f7065726174696f6e2e20596f75206861766520616c726560448201527f6164792072656a65637465642074686973207265717565737400000000000000606482015260840161055b565b60008781526007602052604081205463ffffffff16905b818110156123275763ffffffff88166122b7826001613167565b1415612315576000898152600660205260409020805460019190839081106122ef57634e487b7160e01b600052603260045260246000fd5b9060005260206000209060060201600401600082825461230f91906131e6565b90915550505b8061231f8161325d565b91505061229d565b5060008881526009602052604081209061234260018a6131fd565b63ffffffff9081168252602080830193909352604091820160009081208054600181018255908252908490200180546001600160a01b031916331790559051908916815289917f9c710ee7ed817a833424800d582393604b4cb4ea3f3f3b50da958c569b9309e59101611715565b600081815260056020908152604080832033845290915290205481906123e85760405162461bcd60e51b815260040161055b90612e98565b8160018060008381526004602052604090206009015460ff16600281111561242057634e487b7160e01b600052602160045260246000fd5b1461243d5760405162461bcd60e51b815260040161055b9061300f565b600260005414156124605760405162461bcd60e51b815260040161055b90613053565b60026000908155848152600460208190526040909120015442116124d75760405162461bcd60e51b815260206004820152602860248201527f50726f6a65637420646561646c696e65206861736e2774206265656e2072656160448201526718da1959081e595d60c21b606482015260840161055b565b600084815260056020908152604080832033808552925280832054905191929091839083908381818185875af1925050503d8060008114612534576040519150601f19603f3d011682016040523d82523d6000602084013e612539565b606091505b505090508061255a5760405162461bcd60e51b815260040161055b90612ef6565b604080516001600160a01b03851681526020810184905288917fdab6c60b0a2712cc0de4026608821d29de83da8920bc8b93017005799f69f660910160405180910390a2600087815260046020526040812060050180548492906125bf9084906131e6565b909155505060008781526004602052604081206007018054600192906125e69084906131e6565b9091555050600160005550505050505050565b6006602052816000526040600020818154811061261557600080fd5b60009182526020909120600690910201805460018201805463ffffffff909216945091925061264390613222565b80601f016020809104026020016040519081016040528092919081815260200182805461266f90613222565b80156126bc5780601f10612691576101008083540402835291602001916126bc565b820191906000526020600020905b81548152906001019060200180831161269f57829003601f168201915b50505050600283015460038401546004850154600590950154939491936001600160a01b03909116925060ff8082169161010090041687565b600061051982846131a7565b600061051982846131c7565b82805461271990613222565b90600052602060002090601f01602090048101928261273b5760008555612781565b82601f1061275457805160ff1916838001178555612781565b82800160010185558215612781579182015b82811115612781578251825591602001919060010190612766565b5061278d929150612876565b5090565b6040518060e00160405280600063ffffffff168152602001606081526020016000815260200160006001600160a01b0316815260200160008152602001600060018111156127ef57634e487b7160e01b600052602160045260246000fd5b8152600060209091015290565b6040518061014001604052806000815260200160006001600160a01b03168152602001606081526020016060815260200160008152602001600081526020016000815260200160008152602001600081526020016000600281111561287157634e487b7160e01b600052602160045260246000fd5b905290565b5b8082111561278d5760008155600101612877565b80356001600160a01b03811681146128a257600080fd5b919050565b600082601f8301126128b7578081fd5b813567ffffffffffffffff808211156128d2576128d26132a4565b604051601f8301601f19908116603f011681019082821181831017156128fa576128fa6132a4565b81604052838152866020858801011115612912578485fd5b8360208701602083013792830160200193909352509392505050565b803563ffffffff811681146128a257600080fd5b60008060008060808587031215612957578384fd5b843567ffffffffffffffff8082111561296e578586fd5b61297a888389016128a7565b9550602087013591508082111561298f578485fd5b5061299c878288016128a7565b949794965050505060408301359260600135919050565b6000602082840312156129c4578081fd5b5035919050565b600080604083850312156129dd578182fd5b823591506129ed6020840161288b565b90509250929050565b60008060408385031215612a08578182fd5b50508035926020909101359150565b60008060408385031215612a29578182fd5b823591506129ed6020840161292e565b600080600060608486031215612a4d578283fd5b83359250612a5d6020850161292e565b9150612a6b6040850161288b565b90509250925092565b600080600080600060a08688031215612a8b578081fd5b85359450612a9b6020870161292e565b9350604086013567ffffffffffffffff80821115612ab7578283fd5b612ac389838a016128a7565b9450606088013593506080880135915080821115612adf578283fd5b50612aec888289016128a7565b9150509295509295909350565b60038110612b0957612b0961328e565b9052565b60028110612b0957612b0961328e565b60008151808452815b81811015612b4257602081850181015186830182015201612b26565b81811115612b535782602083870101525b50601f01601f19169290920160200192915050565b6001600160a01b038616815260a060208201819052600090612b8c90830187612b1d565b8281036040840152612b9e8187612b1d565b60608401959095525050608001529392505050565b6001600160a01b038816815260e060208201819052600090612bd790830189612b1d565b8281036040840152612be98189612b1d565b9150508560608301528460808301528360a0830152612c0b60c0830184612af9565b98975050505050505050565b60006020808301818452808551808352604092508286019150828160051b870101848801865b83811015612cfb57603f19898403018552815180518452878101516001600160a01b0316888501528681015161014088860181905290612c7f82870182612b1d565b91505060608083015186830382880152612c998382612b1d565b6080858101519089015260a0808601519089015260c0808601519089015260e08086015190890152610100808601519089015261012094850151949093509150612ce7905081870184612af9565b509588019593505090860190600101612c3d565b509098975050505050505050565b60006020808301818452808551808352604092508286019150828160051b870101848801865b83811015612cfb57603f19898403018552815160e063ffffffff825116855288820151818a870152612d6382870182612b1d565b838a0151878b01526060808501516001600160a01b0316908801526080808501519088015260a0808501519193509150612d9f82880182612b0d565b505060c091820151151594909101939093529386019390860190600101612d2f565b604081526000612dd46040830185612b1d565b90508260208301529392505050565b60608152600080855482600182811c915080831680612e0357607f831692505b6020808410821415612e2357634e487b7160e01b87526022600452602487fd5b6060880184905260808801828015612e425760018114612e5357612e7d565b60ff19871682528282019750612e7d565b60008d815260209020895b87811015612e7757815484820152908601908401612e5e565b83019850505b50508701989098525050506040909201929092529392505050565b602080825260409082018190527f556e617574686f72697a6564206163636573732e204f6e6c792070726f6a6563908201527f742066756e646572732063616e2075736520746869732066756e6374696f6e2e606082015260800190565b6020808252602b908201527f5472616e73616374696f6e206661696c65642e20506c6561736520747279206160408201526a33b0b4b7103630ba32b91760a91b606082015260800190565b6020808252603d908201527f556e617574686f72697a6564206163636573732e204f6e6c792070726f6a656360408201527f74206f776e65722063616e2075736520746869732066756e6374696f6e000000606082015260800190565b6020808252604b908201527f54686973206973206e6f7420746865206c61746573742077697468647261776160408201527f6c20726571756573742e20506c6561736520636865636b20616761696e20616e60608201526a32103a393c903630ba32b960a91b608082015260a00190565b60208082526024908201527f556e6d61746368696e67207374617465732e20496e76616c6964206f706572616040820152633a34b7b760e11b606082015260800190565b6020808252601f908201527f5265656e7472616e637947756172643a207265656e7472616e742063616c6c00604082015260600190565b8a81526001600160a01b038a166020820152610140604082018190526000906130b58382018c612b1d565b905082810360608401526130c9818b612b1d565b9150508760808301528660a08301528560c08301528460e0830152836101008301526130f9610120830184612af9565b9b9a5050505050505050505050565b63ffffffff8816815260e06020820152600061312760e0830189612b1d565b604083018890526001600160a01b038716606084015260808301869052905061315360a0830185612b0d565b82151560c083015298975050505050505050565b6000821982111561317a5761317a613278565b500190565b600063ffffffff80831681851680830382111561319e5761319e613278565b01949350505050565b6000826131c257634e487b7160e01b81526012600452602481fd5b500490565b60008160001904831182151516156131e1576131e1613278565b500290565b6000828210156131f8576131f8613278565b500390565b600063ffffffff8381169083168181101561321a5761321a613278565b039392505050565b600181811c9082168061323657607f821691505b6020821081141561325757634e487b7160e01b600052602260045260246000fd5b50919050565b600060001982141561327157613271613278565b5060010190565b634e487b7160e01b600052601160045260246000fd5b634e487b7160e01b600052602160045260246000fd5b634e487b7160e01b600052604160045260246000fdfea26469706673582212201961a6f558b68d16a8f12ef85b08aa4c9a3fd59986abf51257f625c640e4808064736f6c63430008040033",
  "immutableReferences": {},
  "source": "// SPDX-License-Identifier: MIT\npragma solidity ^0.8.4;\n\nimport \"@openzeppelin/contracts/utils/math/SafeMath.sol\";\nimport \"@openzeppelin/contracts/security/ReentrancyGuard.sol\";\n\ncontract CrowdFund is ReentrancyGuard {\n    using SafeMath for uint256;\n\n    /*===== Events =====*/\n    event NewProjectCreated(\n        uint256 indexed id,\n        address projectCreator,\n        string projectTitle,\n        string projectDesc,\n        uint256 projectDeadline,\n        uint256 goalAmount\n    );\n\n    event ExpireFundraise(\n        uint256 indexed id,\n        string name,\n        uint256 projectDeadline,\n        uint256 goal\n    );\n    \n    event SuccessFundRaise(\n        uint256 indexed id,\n        string name,\n        uint256 projectDeadline,\n        uint256 goal\n    );\n    \n    event SuccessButContinueFundRaise(\n        uint256 indexed id,\n        string name,\n        uint256 projectDeadline,\n        uint256 goal\n    );\n\n    event FundsReceive(\n        uint256 indexed id,\n        address contributor,\n        uint256 amount,\n        uint256 totalPledged\n    );\n\n    event NewWithdrawalRequest(\n        uint256 indexed id,\n        string description,\n        uint256 amount\n    );\n\n    event GenerateRefund(\n        uint256 indexed id,\n        address refundRequestUser,\n        uint256 refundAmt\n    );\n\n    event ApproveRequest(uint256 indexed _id, uint32 _withdrawalRequestIndex);\n\n    event RejectRequest(uint256 indexed _id, uint32 _withdrawalRequestIndex);\n\n    event TransferRequestFunds(\n        uint256 indexed _id,\n        uint32 _withdrawalRequestIndex\n    );\n\n    event PayCreator( uint256 indexed _id, uint32 _withdrawalRequestIndex, uint256 _amountTransfered);\n\n    event PayPlatform(uint256 indexed _id, uint32 _withdrawalRequestIndex, uint256 _amountTransfered);\n\n    /*===== State variables =====*/\n    address payable platformAdmin;\n\n    enum State {\n        Fundraise,\n        Expire,\n        Success\n    }\n\n    enum Withdrawal {\n        Allow,\n        Reject\n    }\n\n    struct Project {\n        // project ID\n        uint256 id;\n        // address of the creator of project\n        address payable creator;\n        // name of the project\n        string name;\n        // description of the project\n        string description;\n        // end of fundraising date\n        uint256 projectDeadline;\n        // total amount that has been pledged until this point\n        uint256 totalPledged;\n        // total amount needed for a successful campaign\n        uint256 goal;\n        // number of depositors\n        uint256 totalDepositors;\n        // total funds withdrawn from project\n        uint256 totalWithdrawn;\n        // current state of the fundraise\n        State currentState;\n        // holds URL of IPFS upload\n        // string ipfsURL;\n    }\n\n    struct WithdrawalRequest {\n        uint32 index;\n        // purpose of withdrawal\n        string description;\n        // amount of withdrawal requested\n        uint256 withdrawalAmount;\n        // project owner address\n        address payable recipient;\n        // total votes received for request\n        uint256 approvedVotes;\n        // current state of the withdrawal request\n        Withdrawal currentWithdrawalState;\n        // hash of the ipfs storage\n        // string ipfsHash;\n        // boolean to represent if amount has been withdrawn\n        bool withdrawn;\n    }\n\n    mapping(address => uint) balances;\n\n    // project states\n    uint256 public projectCount;\n    mapping(uint256 => Project) public idToProject;\n    // project id => contributor => contribution\n    mapping(uint256 => mapping(address => uint256)) public contributions;\n\n    // withdrawal requests\n    mapping(uint256 => WithdrawalRequest[]) public idToWithdrawalRequests;\n    // project ID => withdrawal request Index\n    mapping(uint256 => uint32) latestWithdrawalIndex;\n\n    // id => request number => address\n    mapping(uint256 => mapping(uint32 => address[])) approvals;\n    mapping(uint256 => mapping(uint32 => address[])) rejections;\n\n\n    /*===== Modifiers =====*/\n    modifier checkState(uint256 _id, State _state) {\n        require(\n            idToProject[_id].currentState == _state,\n            \"Unmatching states. Invalid operation\"\n        );\n        _;\n    }\n\n    modifier onlyAdmin() {\n        require(\n            msg.sender == platformAdmin,\n            \"Unauthorized access. Only admin can use this function\"\n        );\n        _;\n    }\n\n    modifier onlyProjectOwner(uint256 _id) {\n        require(\n            msg.sender == idToProject[_id].creator,\n            \"Unauthorized access. Only project owner can use this function\"\n        );\n        _;\n    }\n\n    modifier onlyProjectDonor(uint256 _id) {\n        require(\n            contributions[_id][msg.sender] > 0,\n            \"Unauthorized access. Only project funders can use this function.\"\n        );\n        _;\n    }\n\n    modifier checkLatestWithdrawalIndex(\n        uint256 _id,\n        uint32 _withdrawalRequestIndex\n    ) {\n        require(\n            latestWithdrawalIndex[_id] == _withdrawalRequestIndex,\n            \"This is not the latest withdrawal request. Please check again and try later\"\n        );\n        _;\n    }\n\n    constructor() ReentrancyGuard() {\n        platformAdmin = payable(msg.sender);\n        projectCount = 0;\n    }\n\n    // make contract payable\n    fallback() external payable {}\n    receive() external payable {\n        platformAdmin.transfer(msg.value);\n    }\n    \n\n    /*===== Functions  =====*/\n\n    /** @dev Function to start a new project.\n     * @param _name Name of the project\n     * @param _description Project Description\n     * @param _projectDeadline Total days to end of fundraise\n     * @param _goalEth Project goal in ETH\n     */\n    function createNewProject(\n        string memory _name,\n        string memory _description,\n        uint256 _projectDeadline,\n        uint256 _goalEth\n    ) public {\n        // update ID\n        projectCount += 1;\n\n        // log goal as wei\n        uint256 _goal = _goalEth * 1e18;\n\n        // create new fundraise object\n        Project memory newFR = Project({\n            id: projectCount,\n            creator: payable(msg.sender),\n            name: _name,\n            description: _description,\n            projectDeadline: _projectDeadline,\n            totalPledged: 0,\n            goal: _goal,\n            currentState: State.Fundraise,\n            totalDepositors: 0,\n            totalWithdrawn: 0\n        });\n\n        // update mapping of id to new project\n        idToProject[projectCount] = newFR;\n\n        // initiate total withdrawal requests \n        latestWithdrawalIndex[projectCount] = 0;\n\n        // emit event\n        emit NewProjectCreated(\n            projectCount,\n            msg.sender,\n            _name,\n            _description,\n            _projectDeadline,\n            _goal\n        );\n    }\n\n    /** @dev Function to make a contribution to the project\n     * @param _id Project ID where contributions are to be made\n     */\n    function contributeFunds(uint256 _id)\n        public\n        payable\n        checkState(_id, State.Fundraise)\n        nonReentrant()\n    {\n        require(_id <= projectCount, \"Project ID out of range\");\n\n        require(\n            msg.value > 0,\n            \"Invalid transaction. Please send valid amounts to the project\"\n        );\n\n        require(\n            block.timestamp <= idToProject[_id].projectDeadline,\n            \"Contributions cannot be made to this project anymore.\"\n        );\n\n        // transfer contributions to contract address\n        balances[address(this)] += msg.value;\n\n        // add to contribution\n        contributions[_id][msg.sender] += msg.value;\n\n        // increase total contributions pledged to the project\n        idToProject[_id].totalPledged += msg.value;\n\n        // add one to total number of depositors for this project\n        idToProject[_id].totalDepositors += 1;\n\n        emit FundsReceive(\n            _id,\n            msg.sender,\n            msg.value,\n            idToProject[_id].totalPledged\n        );\n    }\n\n    /** @dev Function to end fundraising drive\n    * @param _id Project ID\n    */\n    function endContributionsExpire(uint256 _id) \n        public \n        onlyProjectDonor(_id)\n        checkState(_id, State.Fundraise) \n        {\n            require(\n                block.timestamp > idToProject[_id].projectDeadline,\n                \"Invalid request. Can only be called after project deadline is reached\"\n            );\n\n            idToProject[_id].currentState = State.Expire;\n            emit ExpireFundraise(_id,\n                idToProject[_id].name,\n                idToProject[_id].projectDeadline,\n                idToProject[_id].goal\n            );\n        }\n    \n    /** @dev Function to end fundraising drive with success is total pledged higher than goal. Irrespective of deadline\n    * @param _id Project ID\n    */\n    function endContributionsSuccess(uint256 _id) \n        public \n        onlyProjectOwner(_id)\n        checkState(_id, State.Fundraise) \n        {\n            require(idToProject[_id].totalPledged >= idToProject[_id].goal, \"Did not receive enough funds\");\n\n            idToProject[_id].currentState = State.Success;\n            emit SuccessFundRaise(\n                _id,\n                idToProject[_id].name,\n                idToProject[_id].projectDeadline,\n                idToProject[_id].goal\n            );                \n        }\n\n    /** @dev Function to get refund on expired projects\n     * @param _id Project ID\n     */\n    function getRefund(uint256 _id)\n        public\n        payable\n        onlyProjectDonor(_id)\n        checkState(_id, State.Expire)\n        nonReentrant()\n    {\n        require(\n            block.timestamp > idToProject[_id].projectDeadline,\n            \"Project deadline hasn't been reached yet\"\n        );\n\n        address payable _contributor = payable(msg.sender);\n        uint256 _amount = contributions[_id][msg.sender];\n        (bool success, ) = _contributor.call{value: _amount}(\"\");\n        require(success, \"Transaction failed. Please try again later.\");\n        emit GenerateRefund(_id, _contributor, _amount);\n\n        // update project state\n        idToProject[_id].totalPledged -= _amount;\n        idToProject[_id].totalDepositors -= 1;\n    }\n\n    /** @dev Function to create a request for withdrawal of funds\n    * @param _id Project ID\n    * @param _requestNumber Index of the request\n    * @param _description  Purpose of withdrawal\n    * @param _amount Amount of withdrawal requested in ETH\n    */\n    function createWithdrawalRequest(\n        uint256 _id,\n        uint32 _requestNumber,\n        string memory _description,\n        uint256 _amount,\n        string memory _url\n    ) public onlyProjectOwner(_id) checkState(_id, State.Success){\n        require(idToProject[_id].totalWithdrawn < idToProject[_id].totalPledged, \"Insufficient funds\");\n\n        uint256 _withdraw = _amount * 1e18;\n\n        // create new withdrawal request\n        WithdrawalRequest memory newWR = WithdrawalRequest({\n            index: _requestNumber,\n            description: _description,\n            withdrawalAmount: _withdraw,\n            // funds withdrawn to project owner\n            recipient: idToProject[_id].creator,\n            // initialized with no votes for request\n            approvedVotes: 0,\n            // state changes on quorum\n            currentWithdrawalState: Withdrawal.Reject,\n            withdrawn: false\n        });\n\n        // update project to request mapping\n        idToWithdrawalRequests[_id].push(newWR);\n        \n        latestWithdrawalIndex[_id] += 1;\n\n        // emit event\n        emit NewWithdrawalRequest(_id, _description, _amount);\n    }\n\n    /** @dev Function to check whether a given address has approved a specific request\n    * @param _id Project ID\n    * @param _withdrawalRequestIndex Index of the withdrawal request\n    * @param _checkAddress Address of the request initiator\n    */\n    function checkAddressInApprovalsIterator(\n        uint256 _id,\n        uint32 _withdrawalRequestIndex, \n        address _checkAddress\n    )\n        public\n        view \n        returns(bool) \n    {\n        // iterate over the array specific to this id and withdrawal request\n        for (uint256 i = 0; i < approvals[_id][_withdrawalRequestIndex - 1].length; i++) {\n            // if address is in the array, return true\n            if(approvals[_id][_withdrawalRequestIndex - 1][i] == _checkAddress) {\n                return true;\n            }\n        }\n    }\n\n    /** @dev Function to check whether a given address has rejected a specific request\n    * @param _id Project ID\n    * @param _withdrawalRequestIndex Index of the withdrawal request\n    * @param _checkAddress Address of the request initiator\n    */\n    function checkAddressInRejectionIterator(\n        uint256 _id,\n        uint32 _withdrawalRequestIndex, \n        address _checkAddress\n    ) \n        public\n        view\n        returns(bool) \n    {\n        // iterate over the array specific to this id and withdrawal request\n        for (uint256 i = 0; i < rejections[_id][_withdrawalRequestIndex - 1].length; i++) {\n            // if address is in the array, return true\n            if(rejections[_id][_withdrawalRequestIndex - 1][i] == _checkAddress) {\n                return true;\n            }\n        }\n    }\n\n    /** @dev Function to approve withdrawal of funds\n    * @param _id Project ID\n    * @param _withdrawalRequestIndex Index of withdrawal request\n    */\n    function approveWithdrawalRequest(\n        uint256 _id,\n        uint32 _withdrawalRequestIndex\n    )\n        public\n        onlyProjectDonor(_id)\n        checkState(_id, State.Success)\n        checkLatestWithdrawalIndex(_id, _withdrawalRequestIndex)\n    {\n        // confirm msg.sender hasn't approved request yet\n        require(!checkAddressInApprovalsIterator(_id, _withdrawalRequestIndex, msg.sender), \"Invalid operation. You have already approved this request\");\n\n        require(!checkAddressInRejectionIterator(_id, _withdrawalRequestIndex, msg.sender), \"Invalid operation. You have rejected this request\");\n\n        // get total withdrawal requests made\n        uint256 _lastWithdrawal = latestWithdrawalIndex[_id];\n\n        // iterate over all requests for this project\n        for (uint256 i = 0; i < _lastWithdrawal; i++) {\n            // if request number is equal to index\n            if(i + 1 == _withdrawalRequestIndex) {\n                // increment approval count\n                idToWithdrawalRequests[_id][i].approvedVotes += 1;\n            }\n        }\n\n        // push msg.sender to approvals list for this request\n        approvals[_id][_withdrawalRequestIndex - 1].push(msg.sender);\n        \n        emit ApproveRequest(_id, _withdrawalRequestIndex);\n    }\n\n    /** @dev Function to reject withdrawal of funds\n     * @param _id Project ID\n     * @param _withdrawalRequestIndex Index of withdrawal request\n     */\n    function rejectWithdrawalRequest(\n        uint256 _id,\n        uint32 _withdrawalRequestIndex\n    )\n        public\n        onlyProjectDonor(_id)\n        checkState(_id, State.Success)\n        checkLatestWithdrawalIndex(_id, _withdrawalRequestIndex)\n    {\n        // confirm user hasn't approved request\n        require(!checkAddressInApprovalsIterator(_id, _withdrawalRequestIndex, msg.sender), \"Invalid operation. You have approved this request\");\n\n        require(!checkAddressInRejectionIterator(_id, _withdrawalRequestIndex, msg.sender), \"Invalid operation. You have already rejected this request\");\n\n        // get total withdrawal requests made\n        uint256 _lastWithdrawal = latestWithdrawalIndex[_id];\n\n        // iterate over all requests for this project\n        for (uint256 i = 0; i < _lastWithdrawal; i++) {\n            // if request number is equal to index\n            if(i + 1 == _withdrawalRequestIndex) {\n                // increment approval count\n                idToWithdrawalRequests[_id][i].approvedVotes -= 1;\n            }\n        }\n\n        // add msg.sender to rejections list for this request\n        rejections[_id][_withdrawalRequestIndex - 1].push(msg.sender);\n\n        emit RejectRequest(_id, _withdrawalRequestIndex);\n    }\n\n    /** @dev Function to transfer funds to project creator\n     * @param _id Project ID\n     * @param _withdrawalRequestIndex Index of withdrawal request\n     */\n    function transferWithdrawalRequestFunds(\n        uint256 _id,\n        uint32 _withdrawalRequestIndex\n    )\n        public\n        payable\n        onlyProjectOwner(_id)\n        checkLatestWithdrawalIndex(_id, _withdrawalRequestIndex)\n        nonReentrant()\n    {\n        require(\n            // _withdrawalRequestIndex - 1 to accomodate 0 start of arrays\n            idToWithdrawalRequests[_id][_withdrawalRequestIndex - 1].approvedVotes >\n                    (idToProject[_id].totalDepositors).div(2)\n            ,\n            \"More than half the total depositors need to approve withdrawal request\"\n        );\n\n        require(idToWithdrawalRequests[_id][_withdrawalRequestIndex - 1].withdrawn == false, \"Withdrawal has laready been made for this request\");\n\n        require(idToWithdrawalRequests[_id][_withdrawalRequestIndex - 1].withdrawalAmount < idToProject[_id].totalPledged, \"Insufficient funds\");\n\n        WithdrawalRequest storage cRequest = idToWithdrawalRequests[_id][_withdrawalRequestIndex - 1];\n\n        // flat 0.3% platform fee\n        uint256 platformFee = (cRequest.withdrawalAmount.mul(3)).div(1000);\n        (bool pfSuccess, ) = payable(platformAdmin).call{value: platformFee}(\"\");\n        require(pfSuccess, \"Transaction failed. Please try again later.\");\n        emit PayPlatform(_id, _withdrawalRequestIndex, platformFee);\n        \n        // transfer funds to creator\n        address payable _creator = idToProject[_id].creator;\n        uint256 _amount = cRequest.withdrawalAmount - platformFee;\n        (bool success, ) = _creator.call{value: _amount}(\"\");\n        require(success, \"Transaction failed. Please try again later.\");\n        emit PayCreator(_id, _withdrawalRequestIndex, _amount);\n\n        // update states\n        cRequest.withdrawn = true;\n        idToProject[_id].totalWithdrawn += cRequest.withdrawalAmount;\n\n        emit TransferRequestFunds(_id, _withdrawalRequestIndex);\n    }\n\n    /* ==================================================================\n        THESE CONTRACTS CANNOT BE IN PRODUCTION. FIND A WORK AROUND TO UPDATE STATES FROM FRONTEND\n    */\n\n    // /** @dev Function to update project IPFS hash on payment deposit\n    //  * @param _id Project ID\n    //  * @param _url new IPFS hash\n    //  * @param _newPledged Amount pledged by contributor\n    //  * *** IMPORTANT: find a way to make this functionality internal. This CANNOT be a public function in production\n    //  */\n    // function updateProjectOnTx(\n    //     uint256 _id,\n    //     string memory _url,\n    //     uint256 _newPledged,\n    //     uint256 _netWithdrawn\n    // ) public {\n    //     idToProject[_id].ipfsURL = _url;\n    //     idToProject[_id].totalPledged += _newPledged;\n    //     idToProject[_id].totalWithdrawn += _netWithdrawn;\n    // }\n\n    // /** @dev Function to update project IPFS hash on state change\n    //  * @param _id Project ID\n    //  * @param _url new IPFS hash\n    //  * *** IMPORTANT: find a way to make this functionality internal. This CANNOT be a public function in production\n    //  */\n    // function updateProjectOnStateChange(\n    //     uint256 _id, \n    //     string memory _url\n    // ) public {\n    //     idToProject[_id].ipfsURL = _url;\n    // }\n\n    // /** @dev Function to update withdrawal request IPFS hash and votes on state change\n    //  * @param _id Project ID\n    //  * @param _url new IPFS hash\n    //  * *** IMPORTANT: find a way to make this functionality internal. This CANNOT be a public function in production\n    //  */\n    // function updateRequestState(uint256 _id, uint32 _withdrawalRequestIndex, string memory _url) public {\n    //     idToWithdrawalRequests[_id][_withdrawalRequestIndex - 1].ipfsHash = _url;\n    // }\n\n    /* ====================================================================================== */\n\n\n\n    /*===== Blockchain get functions =====*/\n\n    /** @dev Function to get project details\n     * @param _id Project ID\n     */\n    function getProjectDetails(uint256 _id)\n        public\n        view\n        returns (\n            address creator,\n            string memory name,\n            string memory description,\n            uint256 projectDeadline,\n            uint256 totalPledged,\n            uint256 goal,\n            State currentState\n        )\n    {\n        creator = idToProject[_id].creator;\n        name = idToProject[_id].name;\n        description = idToProject[_id].description;\n        projectDeadline = idToProject[_id].projectDeadline;\n        totalPledged = idToProject[_id].totalPledged;\n        goal = idToProject[_id].goal;\n        currentState = idToProject[_id].currentState;\n    }\n\n    function getAllProjects() public view returns (Project[] memory) {\n        uint256 _projectCount = projectCount;\n\n        Project[] memory projects = new Project[](_projectCount);\n        for (uint256 i = 0; i < _projectCount; i++) {\n            uint256 currentId = i + 1;\n            Project storage currentItem = idToProject[currentId];\n            projects[i] = currentItem;\n        }\n        return projects;\n    }\n\n    function getProjectCount() public view returns (uint256 count) {\n        count = projectCount;\n    }\n\n    function getAllWithdrawalRequests(uint256 _id)\n        public\n        view\n        returns (WithdrawalRequest[] memory)\n    {\n        uint256 _lastWithdrawal = latestWithdrawalIndex[_id];\n\n        WithdrawalRequest[] memory withdrawals = new WithdrawalRequest[](\n            _lastWithdrawal\n        );\n        for (uint256 i = 0; i < _lastWithdrawal; i++) {\n            WithdrawalRequest storage currentRequest = idToWithdrawalRequests[_id][i];\n            withdrawals[i] = currentRequest;\n        }\n\n        return withdrawals;\n    }\n\n    function getContributions(uint256 _id, address _contributor) public view returns(uint256) {\n        return contributions[_id][_contributor];\n    }\n}\n",
  "sourcePath": "/home/dhruv/Desktop/projects/dApps/08 - crowdfund/contracts/CrowdFund.sol",
  "compiler": {
    "name": "solc",
    "version": "0.8.4+commit.c7e474f2.Emscripten.clang"
  },
  "schemaVersion": "3.4.7",
  "updatedAt": "2022-06-10T07:19:51.178Z",
  "networkType": "ethereum",
  "devdoc": {
    "kind": "dev",
    "methods": {
      "approveWithdrawalRequest(uint256,uint32)": {
        "details": "Function to approve withdrawal of funds",
        "params": {
          "_id": "Project ID",
          "_withdrawalRequestIndex": "Index of withdrawal request"
        }
      },
      "checkAddressInApprovalsIterator(uint256,uint32,address)": {
        "details": "Function to check whether a given address has approved a specific request",
        "params": {
          "_checkAddress": "Address of the request initiator",
          "_id": "Project ID",
          "_withdrawalRequestIndex": "Index of the withdrawal request"
        }
      },
      "checkAddressInRejectionIterator(uint256,uint32,address)": {
        "details": "Function to check whether a given address has rejected a specific request",
        "params": {
          "_checkAddress": "Address of the request initiator",
          "_id": "Project ID",
          "_withdrawalRequestIndex": "Index of the withdrawal request"
        }
      },
      "contributeFunds(uint256)": {
        "details": "Function to make a contribution to the project",
        "params": {
          "_id": "Project ID where contributions are to be made"
        }
      },
      "createNewProject(string,string,uint256,uint256)": {
        "details": "Function to start a new project.",
        "params": {
          "_description": "Project Description",
          "_goalEth": "Project goal in ETH",
          "_name": "Name of the project",
          "_projectDeadline": "Total days to end of fundraise"
        }
      },
      "createWithdrawalRequest(uint256,uint32,string,uint256,string)": {
        "details": "Function to create a request for withdrawal of funds",
        "params": {
          "_amount": "Amount of withdrawal requested in ETH",
          "_description": "Purpose of withdrawal",
          "_id": "Project ID",
          "_requestNumber": "Index of the request"
        }
      },
      "endContributionsExpire(uint256)": {
        "details": "Function to end fundraising drive",
        "params": {
          "_id": "Project ID"
        }
      },
      "endContributionsSuccess(uint256)": {
        "details": "Function to end fundraising drive with success is total pledged higher than goal. Irrespective of deadline",
        "params": {
          "_id": "Project ID"
        }
      },
      "getProjectDetails(uint256)": {
        "details": "Function to get project details",
        "params": {
          "_id": "Project ID"
        }
      },
      "getRefund(uint256)": {
        "details": "Function to get refund on expired projects",
        "params": {
          "_id": "Project ID"
        }
      },
      "rejectWithdrawalRequest(uint256,uint32)": {
        "details": "Function to reject withdrawal of funds",
        "params": {
          "_id": "Project ID",
          "_withdrawalRequestIndex": "Index of withdrawal request"
        }
      },
      "transferWithdrawalRequestFunds(uint256,uint32)": {
        "details": "Function to transfer funds to project creator",
        "params": {
          "_id": "Project ID",
          "_withdrawalRequestIndex": "Index of withdrawal request"
        }
      }
    },
    "version": 1
  },
  "userdoc": {
    "kind": "user",
    "methods": {},
    "version": 1
  }
}