{
  "contractName": "CrowdFund",
  "abi": [
    {
      "inputs": [],
      "stateMutability": "nonpayable",
      "type": "constructor"
    },
    {
      "anonymous": false,
      "inputs": [
        {
          "indexed": true,
          "internalType": "uint256",
          "name": "_id",
          "type": "uint256"
        },
        {
          "indexed": false,
          "internalType": "uint32",
          "name": "_withdrawalRequestIndex",
          "type": "uint32"
        }
      ],
      "name": "ApproveRequest",
      "type": "event"
    },
    {
      "anonymous": false,
      "inputs": [
        {
          "indexed": true,
          "internalType": "uint256",
          "name": "id",
          "type": "uint256"
        },
        {
          "indexed": false,
          "internalType": "string",
          "name": "name",
          "type": "string"
        },
        {
          "indexed": false,
          "internalType": "uint256",
          "name": "projectDeadline",
          "type": "uint256"
        },
        {
          "indexed": false,
          "internalType": "uint256",
          "name": "goal",
          "type": "uint256"
        }
      ],
      "name": "ExpireFundraise",
      "type": "event"
    },
    {
      "anonymous": false,
      "inputs": [
        {
          "indexed": true,
          "internalType": "uint256",
          "name": "id",
          "type": "uint256"
        },
        {
          "indexed": false,
          "internalType": "address",
          "name": "contributor",
          "type": "address"
        },
        {
          "indexed": false,
          "internalType": "uint256",
          "name": "amount",
          "type": "uint256"
        },
        {
          "indexed": false,
          "internalType": "uint256",
          "name": "totalPledged",
          "type": "uint256"
        }
      ],
      "name": "FundsReceive",
      "type": "event"
    },
    {
      "anonymous": false,
      "inputs": [
        {
          "indexed": true,
          "internalType": "uint256",
          "name": "id",
          "type": "uint256"
        },
        {
          "indexed": false,
          "internalType": "address",
          "name": "refundRequestUser",
          "type": "address"
        },
        {
          "indexed": false,
          "internalType": "uint256",
          "name": "refundAmt",
          "type": "uint256"
        }
      ],
      "name": "GenerateRefund",
      "type": "event"
    },
    {
      "anonymous": false,
      "inputs": [
        {
          "indexed": true,
          "internalType": "uint256",
          "name": "id",
          "type": "uint256"
        },
        {
          "indexed": false,
          "internalType": "address",
          "name": "projectCreator",
          "type": "address"
        },
        {
          "indexed": false,
          "internalType": "string",
          "name": "projectTitle",
          "type": "string"
        },
        {
          "indexed": false,
          "internalType": "string",
          "name": "projectDesc",
          "type": "string"
        },
        {
          "indexed": false,
          "internalType": "uint256",
          "name": "projectDeadline",
          "type": "uint256"
        },
        {
          "indexed": false,
          "internalType": "uint256",
          "name": "goalAmount",
          "type": "uint256"
        }
      ],
      "name": "NewProjectCreated",
      "type": "event"
    },
    {
      "anonymous": false,
      "inputs": [
        {
          "indexed": true,
          "internalType": "uint256",
          "name": "id",
          "type": "uint256"
        },
        {
          "indexed": false,
          "internalType": "string",
          "name": "description",
          "type": "string"
        },
        {
          "indexed": false,
          "internalType": "uint256",
          "name": "amount",
          "type": "uint256"
        }
      ],
      "name": "NewWithdrawalRequest",
      "type": "event"
    },
    {
      "anonymous": false,
      "inputs": [
        {
          "indexed": true,
          "internalType": "uint256",
          "name": "_id",
          "type": "uint256"
        },
        {
          "indexed": false,
          "internalType": "uint32",
          "name": "_withdrawalRequestIndex",
          "type": "uint32"
        },
        {
          "indexed": false,
          "internalType": "uint256",
          "name": "_amountTransfered",
          "type": "uint256"
        }
      ],
      "name": "PayCreator",
      "type": "event"
    },
    {
      "anonymous": false,
      "inputs": [
        {
          "indexed": true,
          "internalType": "uint256",
          "name": "_id",
          "type": "uint256"
        },
        {
          "indexed": false,
          "internalType": "uint32",
          "name": "_withdrawalRequestIndex",
          "type": "uint32"
        },
        {
          "indexed": false,
          "internalType": "uint256",
          "name": "_amountTransfered",
          "type": "uint256"
        }
      ],
      "name": "PayPlatform",
      "type": "event"
    },
    {
      "anonymous": false,
      "inputs": [
        {
          "indexed": true,
          "internalType": "uint256",
          "name": "_id",
          "type": "uint256"
        },
        {
          "indexed": false,
          "internalType": "uint32",
          "name": "_withdrawalRequestIndex",
          "type": "uint32"
        }
      ],
      "name": "RejectRequest",
      "type": "event"
    },
    {
      "anonymous": false,
      "inputs": [
        {
          "indexed": true,
          "internalType": "uint256",
          "name": "id",
          "type": "uint256"
        },
        {
          "indexed": false,
          "internalType": "string",
          "name": "name",
          "type": "string"
        },
        {
          "indexed": false,
          "internalType": "uint256",
          "name": "projectDeadline",
          "type": "uint256"
        },
        {
          "indexed": false,
          "internalType": "uint256",
          "name": "goal",
          "type": "uint256"
        }
      ],
      "name": "SuccessButContinueFundRaise",
      "type": "event"
    },
    {
      "anonymous": false,
      "inputs": [
        {
          "indexed": true,
          "internalType": "uint256",
          "name": "id",
          "type": "uint256"
        },
        {
          "indexed": false,
          "internalType": "string",
          "name": "name",
          "type": "string"
        },
        {
          "indexed": false,
          "internalType": "uint256",
          "name": "projectDeadline",
          "type": "uint256"
        },
        {
          "indexed": false,
          "internalType": "uint256",
          "name": "goal",
          "type": "uint256"
        }
      ],
      "name": "SuccessFundRaise",
      "type": "event"
    },
    {
      "anonymous": false,
      "inputs": [
        {
          "indexed": true,
          "internalType": "uint256",
          "name": "_id",
          "type": "uint256"
        },
        {
          "indexed": false,
          "internalType": "uint32",
          "name": "_withdrawalRequestIndex",
          "type": "uint32"
        }
      ],
      "name": "TransferRequestFunds",
      "type": "event"
    },
    {
      "stateMutability": "payable",
      "type": "fallback",
      "payable": true
    },
    {
      "inputs": [
        {
          "internalType": "uint256",
          "name": "",
          "type": "uint256"
        },
        {
          "internalType": "address",
          "name": "",
          "type": "address"
        }
      ],
      "name": "contributions",
      "outputs": [
        {
          "internalType": "uint256",
          "name": "",
          "type": "uint256"
        }
      ],
      "stateMutability": "view",
      "type": "function",
      "constant": true
    },
    {
      "inputs": [
        {
          "internalType": "uint256",
          "name": "",
          "type": "uint256"
        }
      ],
      "name": "idToProject",
      "outputs": [
        {
          "internalType": "uint256",
          "name": "id",
          "type": "uint256"
        },
        {
          "internalType": "address payable",
          "name": "creator",
          "type": "address"
        },
        {
          "internalType": "string",
          "name": "name",
          "type": "string"
        },
        {
          "internalType": "string",
          "name": "description",
          "type": "string"
        },
        {
          "internalType": "uint256",
          "name": "projectDeadline",
          "type": "uint256"
        },
        {
          "internalType": "uint256",
          "name": "totalPledged",
          "type": "uint256"
        },
        {
          "internalType": "uint256",
          "name": "goal",
          "type": "uint256"
        },
        {
          "internalType": "uint256",
          "name": "totalDepositors",
          "type": "uint256"
        },
        {
          "internalType": "uint256",
          "name": "totalWithdrawn",
          "type": "uint256"
        },
        {
          "internalType": "enum CrowdFund.State",
          "name": "currentState",
          "type": "uint8"
        },
        {
          "internalType": "string",
          "name": "ipfsURL",
          "type": "string"
        }
      ],
      "stateMutability": "view",
      "type": "function",
      "constant": true
    },
    {
      "inputs": [
        {
          "internalType": "uint256",
          "name": "",
          "type": "uint256"
        },
        {
          "internalType": "uint256",
          "name": "",
          "type": "uint256"
        }
      ],
      "name": "idToWithdrawalRequests",
      "outputs": [
        {
          "internalType": "uint32",
          "name": "index",
          "type": "uint32"
        },
        {
          "internalType": "string",
          "name": "description",
          "type": "string"
        },
        {
          "internalType": "uint256",
          "name": "withdrawalAmount",
          "type": "uint256"
        },
        {
          "internalType": "address payable",
          "name": "recipient",
          "type": "address"
        },
        {
          "internalType": "uint256",
          "name": "approvedVotes",
          "type": "uint256"
        },
        {
          "internalType": "enum CrowdFund.Withdrawal",
          "name": "currentWithdrawalState",
          "type": "uint8"
        },
        {
          "internalType": "string",
          "name": "ipfsHash",
          "type": "string"
        },
        {
          "internalType": "bool",
          "name": "withdrawn",
          "type": "bool"
        }
      ],
      "stateMutability": "view",
      "type": "function",
      "constant": true
    },
    {
      "inputs": [],
      "name": "projectCount",
      "outputs": [
        {
          "internalType": "uint256",
          "name": "",
          "type": "uint256"
        }
      ],
      "stateMutability": "view",
      "type": "function",
      "constant": true
    },
    {
      "stateMutability": "payable",
      "type": "receive",
      "payable": true
    },
    {
      "inputs": [
        {
          "internalType": "string",
          "name": "_name",
          "type": "string"
        },
        {
          "internalType": "string",
          "name": "_description",
          "type": "string"
        },
        {
          "internalType": "uint256",
          "name": "_projectDeadline",
          "type": "uint256"
        },
        {
          "internalType": "uint256",
          "name": "_goalEth",
          "type": "uint256"
        },
        {
          "internalType": "string",
          "name": "_ipfsURL",
          "type": "string"
        }
      ],
      "name": "createNewProject",
      "outputs": [],
      "stateMutability": "nonpayable",
      "type": "function"
    },
    {
      "inputs": [
        {
          "internalType": "uint256",
          "name": "_id",
          "type": "uint256"
        }
      ],
      "name": "contributeFunds",
      "outputs": [],
      "stateMutability": "payable",
      "type": "function",
      "payable": true
    },
    {
      "inputs": [
        {
          "internalType": "uint256",
          "name": "_id",
          "type": "uint256"
        }
      ],
      "name": "endContributionsExpire",
      "outputs": [],
      "stateMutability": "nonpayable",
      "type": "function"
    },
    {
      "inputs": [
        {
          "internalType": "uint256",
          "name": "_id",
          "type": "uint256"
        }
      ],
      "name": "endContributionsSuccess",
      "outputs": [],
      "stateMutability": "nonpayable",
      "type": "function"
    },
    {
      "inputs": [
        {
          "internalType": "uint256",
          "name": "_id",
          "type": "uint256"
        }
      ],
      "name": "getRefund",
      "outputs": [],
      "stateMutability": "payable",
      "type": "function",
      "payable": true
    },
    {
      "inputs": [
        {
          "internalType": "uint256",
          "name": "_id",
          "type": "uint256"
        },
        {
          "internalType": "uint32",
          "name": "_requestNumber",
          "type": "uint32"
        },
        {
          "internalType": "string",
          "name": "_description",
          "type": "string"
        },
        {
          "internalType": "uint256",
          "name": "_amount",
          "type": "uint256"
        },
        {
          "internalType": "string",
          "name": "_url",
          "type": "string"
        }
      ],
      "name": "createWithdrawalRequest",
      "outputs": [],
      "stateMutability": "nonpayable",
      "type": "function"
    },
    {
      "inputs": [
        {
          "internalType": "uint256",
          "name": "_id",
          "type": "uint256"
        },
        {
          "internalType": "uint32",
          "name": "_withdrawalRequestIndex",
          "type": "uint32"
        },
        {
          "internalType": "address",
          "name": "_checkAddress",
          "type": "address"
        }
      ],
      "name": "checkAddressInApprovalsIterator",
      "outputs": [
        {
          "internalType": "bool",
          "name": "",
          "type": "bool"
        }
      ],
      "stateMutability": "view",
      "type": "function",
      "constant": true
    },
    {
      "inputs": [
        {
          "internalType": "uint256",
          "name": "_id",
          "type": "uint256"
        },
        {
          "internalType": "uint32",
          "name": "_withdrawalRequestIndex",
          "type": "uint32"
        },
        {
          "internalType": "address",
          "name": "_checkAddress",
          "type": "address"
        }
      ],
      "name": "checkAddressInRejectionIterator",
      "outputs": [
        {
          "internalType": "bool",
          "name": "",
          "type": "bool"
        }
      ],
      "stateMutability": "view",
      "type": "function",
      "constant": true
    },
    {
      "inputs": [
        {
          "internalType": "uint256",
          "name": "_id",
          "type": "uint256"
        },
        {
          "internalType": "uint32",
          "name": "_withdrawalRequestIndex",
          "type": "uint32"
        }
      ],
      "name": "approveWithdrawalRequest",
      "outputs": [],
      "stateMutability": "nonpayable",
      "type": "function"
    },
    {
      "inputs": [
        {
          "internalType": "uint256",
          "name": "_id",
          "type": "uint256"
        },
        {
          "internalType": "uint32",
          "name": "_withdrawalRequestIndex",
          "type": "uint32"
        }
      ],
      "name": "rejectWithdrawalRequest",
      "outputs": [],
      "stateMutability": "nonpayable",
      "type": "function"
    },
    {
      "inputs": [
        {
          "internalType": "uint256",
          "name": "_id",
          "type": "uint256"
        },
        {
          "internalType": "uint32",
          "name": "_withdrawalRequestIndex",
          "type": "uint32"
        }
      ],
      "name": "transferWithdrawalRequestFunds",
      "outputs": [],
      "stateMutability": "payable",
      "type": "function",
      "payable": true
    },
    {
      "inputs": [
        {
          "internalType": "uint256",
          "name": "_id",
          "type": "uint256"
        },
        {
          "internalType": "string",
          "name": "_url",
          "type": "string"
        },
        {
          "internalType": "uint256",
          "name": "_newPledged",
          "type": "uint256"
        },
        {
          "internalType": "uint256",
          "name": "_netWithdrawn",
          "type": "uint256"
        }
      ],
      "name": "updateProjectOnTx",
      "outputs": [],
      "stateMutability": "nonpayable",
      "type": "function"
    },
    {
      "inputs": [
        {
          "internalType": "uint256",
          "name": "_id",
          "type": "uint256"
        },
        {
          "internalType": "string",
          "name": "_url",
          "type": "string"
        }
      ],
      "name": "updateProjectOnStateChange",
      "outputs": [],
      "stateMutability": "nonpayable",
      "type": "function"
    },
    {
      "inputs": [
        {
          "internalType": "uint256",
          "name": "_id",
          "type": "uint256"
        },
        {
          "internalType": "uint32",
          "name": "_withdrawalRequestIndex",
          "type": "uint32"
        },
        {
          "internalType": "string",
          "name": "_url",
          "type": "string"
        }
      ],
      "name": "updateRequestState",
      "outputs": [],
      "stateMutability": "nonpayable",
      "type": "function"
    },
    {
      "inputs": [
        {
          "internalType": "uint256",
          "name": "_id",
          "type": "uint256"
        }
      ],
      "name": "getProjectDetails",
      "outputs": [
        {
          "internalType": "address",
          "name": "creator",
          "type": "address"
        },
        {
          "internalType": "string",
          "name": "name",
          "type": "string"
        },
        {
          "internalType": "string",
          "name": "description",
          "type": "string"
        },
        {
          "internalType": "uint256",
          "name": "projectDeadline",
          "type": "uint256"
        },
        {
          "internalType": "uint256",
          "name": "totalPledged",
          "type": "uint256"
        },
        {
          "internalType": "uint256",
          "name": "goal",
          "type": "uint256"
        },
        {
          "internalType": "enum CrowdFund.State",
          "name": "currentState",
          "type": "uint8"
        },
        {
          "internalType": "string",
          "name": "url",
          "type": "string"
        }
      ],
      "stateMutability": "view",
      "type": "function",
      "constant": true
    },
    {
      "inputs": [],
      "name": "getAllProjects",
      "outputs": [
        {
          "components": [
            {
              "internalType": "uint256",
              "name": "id",
              "type": "uint256"
            },
            {
              "internalType": "address payable",
              "name": "creator",
              "type": "address"
            },
            {
              "internalType": "string",
              "name": "name",
              "type": "string"
            },
            {
              "internalType": "string",
              "name": "description",
              "type": "string"
            },
            {
              "internalType": "uint256",
              "name": "projectDeadline",
              "type": "uint256"
            },
            {
              "internalType": "uint256",
              "name": "totalPledged",
              "type": "uint256"
            },
            {
              "internalType": "uint256",
              "name": "goal",
              "type": "uint256"
            },
            {
              "internalType": "uint256",
              "name": "totalDepositors",
              "type": "uint256"
            },
            {
              "internalType": "uint256",
              "name": "totalWithdrawn",
              "type": "uint256"
            },
            {
              "internalType": "enum CrowdFund.State",
              "name": "currentState",
              "type": "uint8"
            },
            {
              "internalType": "string",
              "name": "ipfsURL",
              "type": "string"
            }
          ],
          "internalType": "struct CrowdFund.Project[]",
          "name": "",
          "type": "tuple[]"
        }
      ],
      "stateMutability": "view",
      "type": "function",
      "constant": true
    },
    {
      "inputs": [
        {
          "internalType": "uint256",
          "name": "_id",
          "type": "uint256"
        }
      ],
      "name": "getProjectURL",
      "outputs": [
        {
          "internalType": "string",
          "name": "url",
          "type": "string"
        }
      ],
      "stateMutability": "view",
      "type": "function",
      "constant": true
    },
    {
      "inputs": [],
      "name": "getProjectCount",
      "outputs": [
        {
          "internalType": "uint256",
          "name": "count",
          "type": "uint256"
        }
      ],
      "stateMutability": "view",
      "type": "function",
      "constant": true
    },
    {
      "inputs": [
        {
          "internalType": "uint256",
          "name": "_id",
          "type": "uint256"
        }
      ],
      "name": "getAllWithdrawalRequests",
      "outputs": [
        {
          "components": [
            {
              "internalType": "uint32",
              "name": "index",
              "type": "uint32"
            },
            {
              "internalType": "string",
              "name": "description",
              "type": "string"
            },
            {
              "internalType": "uint256",
              "name": "withdrawalAmount",
              "type": "uint256"
            },
            {
              "internalType": "address payable",
              "name": "recipient",
              "type": "address"
            },
            {
              "internalType": "uint256",
              "name": "approvedVotes",
              "type": "uint256"
            },
            {
              "internalType": "enum CrowdFund.Withdrawal",
              "name": "currentWithdrawalState",
              "type": "uint8"
            },
            {
              "internalType": "string",
              "name": "ipfsHash",
              "type": "string"
            },
            {
              "internalType": "bool",
              "name": "withdrawn",
              "type": "bool"
            }
          ],
          "internalType": "struct CrowdFund.WithdrawalRequest[]",
          "name": "",
          "type": "tuple[]"
        }
      ],
      "stateMutability": "view",
      "type": "function",
      "constant": true
    },
    {
      "inputs": [
        {
          "internalType": "uint256",
          "name": "_id",
          "type": "uint256"
        },
        {
          "internalType": "address",
          "name": "_contributor",
          "type": "address"
        }
      ],
      "name": "getContributions",
      "outputs": [
        {
          "internalType": "uint256",
          "name": "",
          "type": "uint256"
        }
      ],
      "stateMutability": "view",
      "type": "function",
      "constant": true
    }
  ],
  "bytecode": "0x608060405234801561001057600080fd5b506001600081815581546001600160a01b0319163317909155600355613a318061003b6000396000f3fe60806040526004361061014f5760003560e01c8063609a7dbe116100b6578063931c1d891161006f578063931c1d8914610410578063aafc92d614610447578063b9d9a1031461048a578063c1d445ba146104aa578063d2f0be99146104ca578063ec45db6b146104dd57610156565b8063609a7dbe14610341578063643502fb146103615780636bb05fd81461038157806376b8395e146103a157806380d03829146103ce5780639194a556146103f057610156565b806348a051321161010857806348a051321461026d5780634d0f9c681461028057806356ca55e5146102a057806357c9928b146102cd578063593b286c146102ed5780635f8439e31461030d57610156565b80631424ea1c1461019257806336fbad26146101c75780633bcff3b0146101eb5780633d891f59146102005780634479d5091461023857806345120f861461025a57610156565b3661015657005b6001546040516001600160a01b03909116903480156108fc02916000818181858888f1935050505015801561018f573d6000803e3d6000fd5b50005b34801561019e57600080fd5b506101b26101ad3660046130a1565b610511565b60405190151581526020015b60405180910390f35b3480156101d357600080fd5b506101dd60035481565b6040519081526020016101be565b3480156101f757600080fd5b506003546101dd565b34801561020c57600080fd5b506101dd61021b366004612f99565b600560209081526000928352604080842090915290825290205481565b34801561024457600080fd5b50610258610253366004613131565b6105ea565b005b61025861026836600461307f565b6108e1565b61025861027b366004612f81565b610e5d565b34801561028c57600080fd5b5061025861029b366004612f81565b611121565b3480156102ac57600080fd5b506102c06102bb366004612f81565b6112b3565b6040516101be91906134c3565b3480156102d957600080fd5b506101b26102e83660046130a1565b611358565b3480156102f957600080fd5b50610258610308366004612fc4565b611428565b34801561031957600080fd5b5061032d610328366004612f81565b611452565b6040516101be989796959493929190613256565b34801561034d57600080fd5b5061025861035c36600461307f565b61167f565b34801561036d57600080fd5b5061025861037c366004612ee9565b61196e565b34801561038d57600080fd5b5061025861039c366004612f81565b611b85565b3480156103ad57600080fd5b506103c16103bc366004612f81565b611cdb565b6040516101be91906133df565b3480156103da57600080fd5b506103e3611faf565b6040516101be91906132d1565b3480156103fc57600080fd5b5061025861040b366004613009565b6122f1565b34801561041c57600080fd5b5061043061042b366004612f81565b612369565b6040516101be9b9a9998979695949392919061379f565b34801561045357600080fd5b506101dd610462366004612f99565b60009182526005602090815260408084206001600160a01b0393909316845291905290205490565b34801561049657600080fd5b506102586104a53660046130dc565b61256b565b3480156104b657600080fd5b506102586104c536600461307f565b6125d4565b6102586104d8366004612f81565b6128b5565b3480156104e957600080fd5b506104fd6104f836600461305e565b612afe565b6040516101be989796959493929190613832565b6000805b60008581526008602052604081209061052f60018761393e565b63ffffffff1681526020810191909152604001600020548110156105e15760008581526008602052604081206001600160a01b0385169161057160018861393e565b63ffffffff1663ffffffff16815260200190815260200160002082815481106105aa57634e487b7160e01b600052603260045260246000fd5b6000918252602090912001546001600160a01b031614156105cf5760019150506105e3565b806105d98161399e565b915050610515565b505b9392505050565b60008581526004602052604090206001015485906001600160a01b0316331461062e5760405162461bcd60e51b815260040161062590613656565b60405180910390fd5b8560028060008381526004602052604090206009015460ff16600281111561066657634e487b7160e01b600052602160045260246000fd5b146106835760405162461bcd60e51b815260040161062590613724565b60008881526004602052604090206005810154600890910154106106de5760405162461bcd60e51b8152602060048201526012602482015271496e73756666696369656e742066756e647360701b6044820152606401610625565b60006106f286670de0b6b3a7640000613908565b604080516101008101825263ffffffff8b16815260208082018b905281830184905260008d815260049091529182206001908101546001600160a01b0316606083015260808201839052929350909160a082019081526020808201899052600060409283018190528d815260068252918220805460018082018355918452928290208451600890940201805463ffffffff191663ffffffff90941693909317835583820151805194955085946107b093928501929190910190612ca4565b506040820151600282015560608201516003820180546001600160a01b0319166001600160a01b039092169190911790556080820151600482015560a082015160058201805460ff19166001838181111561081b57634e487b7160e01b600052602160045260246000fd5b021790555060c0820151805161083b916006840191602090910190612ca4565b5060e091909101516007918201805460ff191691151591909117905560008b81526020919091526040812080546001929061087d90849063ffffffff166138c0565b92506101000a81548163ffffffff021916908363ffffffff160217905550897fa37d57837469eb033a5f2b4e3333c3523977fcc88d9ff414952850be9cfa64b489896040516108cd9291906134d6565b60405180910390a250505050505050505050565b60008281526004602052604090206001015482906001600160a01b0316331461091c5760405162461bcd60e51b815260040161062590613656565b6000838152600760205260409020548390839063ffffffff8083169116146109565760405162461bcd60e51b8152600401610625906136b3565b600260005414156109795760405162461bcd60e51b815260040161062590613768565b600260008181558681526004602052604090206007015461099991612c8c565b60008681526006602052604090206109b260018761393e565b63ffffffff16815481106109d657634e487b7160e01b600052603260045260246000fd5b90600052602060002090600802016004015411610a6a5760405162461bcd60e51b815260206004820152604660248201527f4d6f7265207468616e2068616c662074686520746f74616c206465706f73697460448201527f6f7273206e65656420746f20617070726f7665207769746864726177616c2072606482015265195c5d595cdd60d21b608482015260a401610625565b6000858152600660205260409020610a8360018661393e565b63ffffffff1681548110610aa757634e487b7160e01b600052603260045260246000fd5b600091825260209091206007600890920201015460ff1615610b255760405162461bcd60e51b815260206004820152603160248201527f5769746864726177616c20686173206c617265616479206265656e206d61646560448201527008199bdc881d1a1a5cc81c995c5d595cdd607a1b6064820152608401610625565b6000858152600460209081526040808320600501546006909252909120610b4d60018761393e565b63ffffffff1681548110610b7157634e487b7160e01b600052603260045260246000fd5b90600052602060002090600802016002015410610bc55760405162461bcd60e51b8152602060048201526012602482015271496e73756666696369656e742066756e647360701b6044820152606401610625565b6000858152600660205260408120610bde60018761393e565b63ffffffff1681548110610c0257634e487b7160e01b600052603260045260246000fd5b906000526020600020906008020190506000610c386103e8610c3260038560020154612c9890919063ffffffff16565b90612c8c565b6001546040519192506000916001600160a01b039091169083908381818185875af1925050503d8060008114610c8a576040519150601f19603f3d011682016040523d82523d6000602084013e610c8f565b606091505b5050905080610cb05760405162461bcd60e51b81526004016106259061360b565b6040805163ffffffff891681526020810184905289917f7afc4bae9e6d0e661f2ce0c1dce50a3343eb3d1ade8d52b9be5aa4d58a959858910160405180910390a260008881526004602052604081206001015460028501546001600160a01b039091169190610d20908590613927565b90506000826001600160a01b03168260405160006040518083038185875af1925050503d8060008114610d6f576040519150601f19603f3d011682016040523d82523d6000602084013e610d74565b606091505b5050905080610d955760405162461bcd60e51b81526004016106259061360b565b6040805163ffffffff8c168152602081018490528c917f27ae59d111e674b3cbf2ac19158097c97ed2f28fc764b66f9fa7e82b775def3d910160405180910390a260078601805460ff19166001179055600286015460008c81526004602052604081206008018054909190610e0b9084906138a8565b909155505060405163ffffffff8b1681528b907f7504b85ae1674ef95f5e2fa834bb48de5507b38a5e144bc39623c2904c77a77d9060200160405180910390a250506001600055505050505050505050565b8060008060008381526004602052604090206009015460ff166002811115610e9557634e487b7160e01b600052602160045260246000fd5b14610eb25760405162461bcd60e51b815260040161062590613724565b60026000541415610ed55760405162461bcd60e51b815260040161062590613768565b6002600055600354831115610f2c5760405162461bcd60e51b815260206004820152601760248201527f50726f6a656374204944206f7574206f662072616e67650000000000000000006044820152606401610625565b60003411610fa25760405162461bcd60e51b815260206004820152603d60248201527f496e76616c6964207472616e73616374696f6e2e20506c656173652073656e6460448201527f2076616c696420616d6f756e747320746f207468652070726f6a6563740000006064820152608401610625565b600083815260046020819052604090912001544211156110225760405162461bcd60e51b815260206004820152603560248201527f436f6e747269627574696f6e732063616e6e6f74206265206d61646520746f206044820152743a3434b990383937b532b1ba1030b73cb6b7b9329760591b6064820152608401610625565b30600090815260026020526040812080543492906110419084906138a8565b909155505060008381526005602090815260408083203384529091528120805434929061106f9084906138a8565b9091555050600083815260046020526040812060050180543492906110959084906138a8565b909155505060008381526004602052604081206007018054600192906110bc9084906138a8565b9091555050600083815260046020908152604091829020600501548251338152349281019290925281830152905184917f96d677f95277e6d3f1e654cf54d6351531e1d08e3bafd5465d62827c1ad19990919081900360600190a25050600160005550565b600081815260056020908152604080832033845290915290205481906111595760405162461bcd60e51b8152600401610625906135ad565b8160008060008381526004602052604090206009015460ff16600281111561119157634e487b7160e01b600052602160045260246000fd5b146111ae5760405162461bcd60e51b815260040161062590613724565b6000848152600460208190526040909120015442116112435760405162461bcd60e51b815260206004820152604560248201527f496e76616c696420726571756573742e2043616e206f6e6c792062652063616c60448201527f6c65642061667465722070726f6a65637420646561646c696e652069732072656064820152641858da195960da1b608482015260a401610625565b60008481526004602081905260409182902060098101805460ff19166001179055908101546006820154925187937fdb9232394d6106fcda07dcda0ef3d7dd5c910776908c279f0e55ae9dc65e804f936112a5936002909101929091906134f8565b60405180910390a250505050565b6000818152600460205260409020600a018054606091906112d390613963565b80601f01602080910402602001604051908101604052809291908181526020018280546112ff90613963565b801561134c5780601f106113215761010080835404028352916020019161134c565b820191906000526020600020905b81548152906001019060200180831161132f57829003601f168201915b50505050509050919050565b6000805b60008581526009602052604081209061137660018761393e565b63ffffffff1681526020810191909152604001600020548110156105e15760008581526009602052604081206001600160a01b038516916113b860018861393e565b63ffffffff1663ffffffff16815260200190815260200160002082815481106113f157634e487b7160e01b600052603260045260246000fd5b6000918252602090912001546001600160a01b031614156114165760019150506105e3565b806114208161399e565b91505061135c565b6000828152600460209081526040909120825161144d92600a90920191840190612ca4565b505050565b60008181526004602052604081206001810154600290910180546001600160a01b0390921692606092839282918291829186919061148f90613963565b80601f01602080910402602001604051908101604052809291908181526020018280546114bb90613963565b80156115085780601f106114dd57610100808354040283529160200191611508565b820191906000526020600020905b8154815290600101906020018083116114eb57829003601f168201915b50505060008c81526004602052604090206003018054939a509261152e92509050613963565b80601f016020809104026020016040519081016040528092919081815260200182805461155a90613963565b80156115a75780601f1061157c576101008083540402835291602001916115a7565b820191906000526020600020905b81548152906001019060200180831161158a57829003601f168201915b50505060008c815260046020819052604090912090810154600582015460068301546009840154600a9094018054979d50929b50909950975060ff9091169550926115f492509050613963565b80601f016020809104026020016040519081016040528092919081815260200182805461162090613963565b801561166d5780601f106116425761010080835404028352916020019161166d565b820191906000526020600020905b81548152906001019060200180831161165057829003601f168201915b50505050509050919395975091939597565b600082815260056020908152604080832033845290915290205482906116b75760405162461bcd60e51b8152600401610625906135ad565b8260028060008381526004602052604090206009015460ff1660028111156116ef57634e487b7160e01b600052602160045260246000fd5b1461170c5760405162461bcd60e51b815260040161062590613724565b6000858152600760205260409020548590859063ffffffff8083169116146117465760405162461bcd60e51b8152600401610625906136b3565b611751878733610511565b156117c45760405162461bcd60e51b815260206004820152603960248201527f496e76616c6964206f7065726174696f6e2e20596f75206861766520616c726560448201527f61647920617070726f76656420746869732072657175657374000000000000006064820152608401610625565b6117cf878733611358565b156118365760405162461bcd60e51b815260206004820152603160248201527f496e76616c6964206f7065726174696f6e2e20596f7520686176652072656a6560448201527018dd1959081d1a1a5cc81c995c5d595cdd607a1b6064820152608401610625565b60008781526007602052604081205463ffffffff16905b818110156118d75763ffffffff88166118678260016138a8565b14156118c55760008981526006602052604090208054600191908390811061189f57634e487b7160e01b600052603260045260246000fd5b906000526020600020906008020160040160008282546118bf91906138a8565b90915550505b806118cf8161399e565b91505061184d565b506000888152600860205260408120906118f260018a61393e565b63ffffffff9081168252602080830193909352604091820160009081208054600181018255908252908490200180546001600160a01b031916331790559051908916815289917ffd21b63d56fe3d4851c3b38b5800335b6b1651056961e7299ce755362169be9291015b60405180910390a25050505050505050565b60016003600082825461198191906138a8565b909155506000905061199b83670de0b6b3a7640000613908565b905060006040518061016001604052806003548152602001336001600160a01b0316815260200188815260200187815260200186815260200160008152602001838152602001600081526020016000815260200160006002811115611a1057634e487b7160e01b600052602160045260246000fd5b8152602090810185905260035460009081526004825260409081902083518155838301516001820180546001600160a01b0319166001600160a01b0390921691909117905590830151805193945084939192611a7492600285019290910190612ca4565b5060608201518051611a90916003840191602090910190612ca4565b506080820151600482015560a0820151600582015560c0820151600682015560e08201516007820155610100820151600882015561012082015160098201805460ff19166001836002811115611af657634e487b7160e01b600052602160045260246000fd5b02179055506101408201518051611b1791600a840191602090910190612ca4565b50506003805460009081526007602052604090819020805463ffffffff19169055905490519091507f493a8ea55e13538971dc7a8db3b5ac7e6a8de74e7c0c2e948c70fa2ac16ea48990611b749033908b908b908b90899061320b565b60405180910390a250505050505050565b60008181526004602052604090206001015481906001600160a01b03163314611bc05760405162461bcd60e51b815260040161062590613656565b8160008060008381526004602052604090206009015460ff166002811115611bf857634e487b7160e01b600052602160045260246000fd5b14611c155760405162461bcd60e51b815260040161062590613724565b600084815260046020526040902060068101546005909101541015611c7c5760405162461bcd60e51b815260206004820152601c60248201527f446964206e6f74207265636569766520656e6f7567682066756e6473000000006044820152606401610625565b60008481526004602081905260409182902060098101805460ff19166002908117909155918101546006820154935188947f4674ab4436b804febf0a1526a0addd752d2762b69048ab01fe978c427a723f7b946112a5940192916134f8565b60008181526007602052604081205460609163ffffffff909116908167ffffffffffffffff811115611d1d57634e487b7160e01b600052604160045260246000fd5b604051908082528060200260200182016040528015611d5657816020015b611d43612d28565b815260200190600190039081611d3b5790505b50905060005b828110156105e1576000858152600660205260408120805483908110611d9257634e487b7160e01b600052603260045260246000fd5b6000918252602091829020604080516101008101909152600890920201805463ffffffff1682526001810180549194509192849290840191611dd390613963565b80601f0160208091040260200160405190810160405280929190818152602001828054611dff90613963565b8015611e4c5780601f10611e2157610100808354040283529160200191611e4c565b820191906000526020600020905b815481529060010190602001808311611e2f57829003601f168201915b50505091835250506002820154602082015260038201546001600160a01b0316604082015260048201546060820152600582015460809091019060ff166001811115611ea857634e487b7160e01b600052602160045260246000fd5b6001811115611ec757634e487b7160e01b600052602160045260246000fd5b8152602001600682018054611edb90613963565b80601f0160208091040260200160405190810160405280929190818152602001828054611f0790613963565b8015611f545780601f10611f2957610100808354040283529160200191611f54565b820191906000526020600020905b815481529060010190602001808311611f3757829003601f168201915b50505091835250506007919091015460ff1615156020909101528351849084908110611f9057634e487b7160e01b600052603260045260246000fd5b6020026020010181905250508080611fa79061399e565b915050611d5c565b60035460609060008167ffffffffffffffff811115611fde57634e487b7160e01b600052604160045260246000fd5b60405190808252806020026020018201604052801561201757816020015b612004612d9b565b815260200190600190039081611ffc5790505b50905060005b828110156122ea5760006120328260016138a8565b6000818152600460209081526040918290208251610160810184528154815260018201546001600160a01b031692810192909252600281018054949550909391928492908401919061208390613963565b80601f01602080910402602001604051908101604052809291908181526020018280546120af90613963565b80156120fc5780601f106120d1576101008083540402835291602001916120fc565b820191906000526020600020905b8154815290600101906020018083116120df57829003601f168201915b5050505050815260200160038201805461211590613963565b80601f016020809104026020016040519081016040528092919081815260200182805461214190613963565b801561218e5780601f106121635761010080835404028352916020019161218e565b820191906000526020600020905b81548152906001019060200180831161217157829003601f168201915b505050918352505060048201546020820152600582015460408201526006820154606082015260078201546080820152600882015460a0820152600982015460c09091019060ff1660028111156121f557634e487b7160e01b600052602160045260246000fd5b600281111561221457634e487b7160e01b600052602160045260246000fd5b8152602001600a8201805461222890613963565b80601f016020809104026020016040519081016040528092919081815260200182805461225490613963565b80156122a15780601f10612276576101008083540402835291602001916122a1565b820191906000526020600020905b81548152906001019060200180831161228457829003601f168201915b5050505050815250508484815181106122ca57634e487b7160e01b600052603260045260246000fd5b6020026020010181905250505080806122e29061399e565b91505061201d565b5092915050565b6000848152600460209081526040909120845161231692600a90920191860190612ca4565b50600084815260046020526040812060050180548492906123389084906138a8565b90915550506000848152600460205260408120600801805483929061235e9084906138a8565b909155505050505050565b60046020526000908152604090208054600182015460028301805492936001600160a01b039092169261239b90613963565b80601f01602080910402602001604051908101604052809291908181526020018280546123c790613963565b80156124145780601f106123e957610100808354040283529160200191612414565b820191906000526020600020905b8154815290600101906020018083116123f757829003601f168201915b50505050509080600301805461242990613963565b80601f016020809104026020016040519081016040528092919081815260200182805461245590613963565b80156124a25780601f10612477576101008083540402835291602001916124a2565b820191906000526020600020905b81548152906001019060200180831161248557829003601f168201915b5050505050908060040154908060050154908060060154908060070154908060080154908060090160009054906101000a900460ff169080600a0180546124e890613963565b80601f016020809104026020016040519081016040528092919081815260200182805461251490613963565b80156125615780601f1061253657610100808354040283529160200191612561565b820191906000526020600020905b81548152906001019060200180831161254457829003601f168201915b505050505090508b565b6000838152600660205260409020819061258660018561393e565b63ffffffff16815481106125aa57634e487b7160e01b600052603260045260246000fd5b906000526020600020906008020160060190805190602001906125ce929190612ca4565b50505050565b6000828152600560209081526040808320338452909152902054829061260c5760405162461bcd60e51b8152600401610625906135ad565b8260028060008381526004602052604090206009015460ff16600281111561264457634e487b7160e01b600052602160045260246000fd5b146126615760405162461bcd60e51b815260040161062590613724565b6000858152600760205260409020548590859063ffffffff80831691161461269b5760405162461bcd60e51b8152600401610625906136b3565b6126a6878733610511565b1561270d5760405162461bcd60e51b815260206004820152603160248201527f496e76616c6964206f7065726174696f6e2e20596f75206861766520617070726044820152701bdd9959081d1a1a5cc81c995c5d595cdd607a1b6064820152608401610625565b612718878733611358565b1561278b5760405162461bcd60e51b815260206004820152603960248201527f496e76616c6964206f7065726174696f6e2e20596f75206861766520616c726560448201527f6164792072656a656374656420746869732072657175657374000000000000006064820152608401610625565b60008781526007602052604081205463ffffffff16905b8181101561282c5763ffffffff88166127bc8260016138a8565b141561281a576000898152600660205260409020805460019190839081106127f457634e487b7160e01b600052603260045260246000fd5b906000526020600020906008020160040160008282546128149190613927565b90915550505b806128248161399e565b9150506127a2565b5060008881526009602052604081209061284760018a61393e565b63ffffffff9081168252602080830193909352604091820160009081208054600181018255908252908490200180546001600160a01b031916331790559051908916815289917f9c710ee7ed817a833424800d582393604b4cb4ea3f3f3b50da958c569b9309e5910161195c565b600081815260056020908152604080832033845290915290205481906128ed5760405162461bcd60e51b8152600401610625906135ad565b8160018060008381526004602052604090206009015460ff16600281111561292557634e487b7160e01b600052602160045260246000fd5b146129425760405162461bcd60e51b815260040161062590613724565b600260005414156129655760405162461bcd60e51b815260040161062590613768565b60026000908155848152600460208190526040909120015442116129dc5760405162461bcd60e51b815260206004820152602860248201527f50726f6a65637420646561646c696e65206861736e2774206265656e2072656160448201526718da1959081e595d60c21b6064820152608401610625565b600084815260056020908152604080832033808552925280832054905191929091839083908381818185875af1925050503d8060008114612a39576040519150601f19603f3d011682016040523d82523d6000602084013e612a3e565b606091505b5050905080612a5f5760405162461bcd60e51b81526004016106259061360b565b604080516001600160a01b03851681526020810184905288917fdab6c60b0a2712cc0de4026608821d29de83da8920bc8b93017005799f69f660910160405180910390a260008781526004602052604081206005018054849290612ac4908490613927565b90915550506000878152600460205260408120600701805460019290612aeb908490613927565b9091555050600160005550505050505050565b60066020528160005260406000208181548110612b1a57600080fd5b60009182526020909120600890910201805460018201805463ffffffff9092169450919250612b4890613963565b80601f0160208091040260200160405190810160405280929190818152602001828054612b7490613963565b8015612bc15780601f10612b9657610100808354040283529160200191612bc1565b820191906000526020600020905b815481529060010190602001808311612ba457829003601f168201915b5050506002840154600385015460048601546005870154600688018054979894976001600160a01b03909416965091945060ff169291612c0090613963565b80601f0160208091040260200160405190810160405280929190818152602001828054612c2c90613963565b8015612c795780601f10612c4e57610100808354040283529160200191612c79565b820191906000526020600020905b815481529060010190602001808311612c5c57829003601f168201915b5050506007909301549192505060ff1688565b60006105e382846138e8565b60006105e38284613908565b828054612cb090613963565b90600052602060002090601f016020900481019282612cd25760008555612d18565b82601f10612ceb57805160ff1916838001178555612d18565b82800160010185558215612d18579182015b82811115612d18578251825591602001919060010190612cfd565b50612d24929150612e1d565b5090565b604051806101000160405280600063ffffffff168152602001606081526020016000815260200160006001600160a01b031681526020016000815260200160006001811115612d8757634e487b7160e01b600052602160045260246000fd5b815260606020820152600060409091015290565b6040518061016001604052806000815260200160006001600160a01b031681526020016060815260200160608152602001600081526020016000815260200160008152602001600081526020016000815260200160006002811115612e1057634e487b7160e01b600052602160045260246000fd5b8152602001606081525090565b5b80821115612d245760008155600101612e1e565b80356001600160a01b0381168114612e4957600080fd5b919050565b600082601f830112612e5e578081fd5b813567ffffffffffffffff80821115612e7957612e796139e5565b604051601f8301601f19908116603f01168101908282118183101715612ea157612ea16139e5565b81604052838152866020858801011115612eb9578485fd5b8360208701602083013792830160200193909352509392505050565b803563ffffffff81168114612e4957600080fd5b600080600080600060a08688031215612f00578081fd5b853567ffffffffffffffff80821115612f17578283fd5b612f2389838a01612e4e565b96506020880135915080821115612f38578283fd5b612f4489838a01612e4e565b955060408801359450606088013593506080880135915080821115612f67578283fd5b50612f7488828901612e4e565b9150509295509295909350565b600060208284031215612f92578081fd5b5035919050565b60008060408385031215612fab578182fd5b82359150612fbb60208401612e32565b90509250929050565b60008060408385031215612fd6578182fd5b82359150602083013567ffffffffffffffff811115612ff3578182fd5b612fff85828601612e4e565b9150509250929050565b6000806000806080858703121561301e578384fd5b84359350602085013567ffffffffffffffff81111561303b578384fd5b61304787828801612e4e565b949794965050505060408301359260600135919050565b60008060408385031215613070578182fd5b50508035926020909101359150565b60008060408385031215613091578182fd5b82359150612fbb60208401612ed5565b6000806000606084860312156130b5578283fd5b833592506130c560208501612ed5565b91506130d360408501612e32565b90509250925092565b6000806000606084860312156130f0578283fd5b8335925061310060208501612ed5565b9150604084013567ffffffffffffffff81111561311b578182fd5b61312786828701612e4e565b9150509250925092565b600080600080600060a08688031215613148578081fd5b8535945061315860208701612ed5565b9350604086013567ffffffffffffffff80821115613174578283fd5b61318089838a01612e4e565b9450606088013593506080880135915080821115612f67578283fd5b600381106131ac576131ac6139cf565b9052565b600281106131ac576131ac6139cf565b60008151808452815b818110156131e5576020818501810151868301820152016131c9565b818111156131f65782602083870101525b50601f01601f19169290920160200192915050565b6001600160a01b038616815260a06020820181905260009061322f908301876131c0565b828103604084015261324181876131c0565b60608401959095525050608001529392505050565b6001600160a01b03891681526101006020820181905260009061327b8382018b6131c0565b9050828103604084015261328f818a6131c0565b90508760608401528660808401528560a08401526132b060c084018661319c565b82810360e08401526132c281856131c0565b9b9a5050505050505050505050565b60006020808301818452808551808352604092508286019150828160051b870101848801865b838110156133d157603f19898403018552815180518452878101516001600160a01b0316888501528681015161016088860181905290613339828701826131c0565b9150506060808301518683038288015261335383826131c0565b6080858101519089015260a0808601519089015260c0808601519089015260e08086015190890152610100808601519089015261012080860151919450925090506133a08288018261319c565b505061014080830151925085820381870152506133bd81836131c0565b9689019694505050908601906001016132f7565b509098975050505050505050565b60006020808301818452808551808352604092508286019150828160051b870101848801865b838110156133d157603f19898403018552815161010063ffffffff825116855288820151818a87015261343a828701826131c0565b915050878201518886015260608083015161345f828801826001600160a01b03169052565b50506080828101519086015260a08083015161347d828801826131b0565b505060c0808301518683038288015261349683826131c0565b9250505060e08083015192506134af8187018415159052565b509588019593505090860190600101613405565b6020815260006105e360208301846131c0565b6040815260006134e960408301856131c0565b90508260208301529392505050565b60608152600080855482600182811c91508083168061351857607f831692505b602080841082141561353857634e487b7160e01b87526022600452602487fd5b6060880184905260808801828015613557576001811461356857613592565b60ff19871682528282019750613592565b60008d815260209020895b8781101561358c57815484820152908601908401613573565b83019850505b50508701989098525050506040909201929092529392505050565b602080825260409082018190527f556e617574686f72697a6564206163636573732e204f6e6c792070726f6a6563908201527f742066756e646572732063616e2075736520746869732066756e6374696f6e2e606082015260800190565b6020808252602b908201527f5472616e73616374696f6e206661696c65642e20506c6561736520747279206160408201526a33b0b4b7103630ba32b91760a91b606082015260800190565b6020808252603d908201527f556e617574686f72697a6564206163636573732e204f6e6c792070726f6a656360408201527f74206f776e65722063616e2075736520746869732066756e6374696f6e000000606082015260800190565b6020808252604b908201527f54686973206973206e6f7420746865206c61746573742077697468647261776160408201527f6c20726571756573742e20506c6561736520636865636b20616761696e20616e60608201526a32103a393c903630ba32b960a91b608082015260a00190565b60208082526024908201527f556e6d61746368696e67207374617465732e20496e76616c6964206f706572616040820152633a34b7b760e11b606082015260800190565b6020808252601f908201527f5265656e7472616e637947756172643a207265656e7472616e742063616c6c00604082015260600190565b8b81526001600160a01b038b166020820152610160604082018190526000906137ca8382018d6131c0565b905082810360608401526137de818c6131c0565b90508960808401528860a08401528760c08401528660e08401528561010084015261380d61012084018661319c565b82810361014084015261382081856131c0565b9e9d5050505050505050505050505050565b600061010063ffffffff8b1683528060208401526138528184018b6131c0565b604084018a90526001600160a01b038916606085015260808401889052905061387e60a08401876131b0565b82810360c084015261389081866131c0565b91505082151560e08301529998505050505050505050565b600082198211156138bb576138bb6139b9565b500190565b600063ffffffff8083168185168083038211156138df576138df6139b9565b01949350505050565b60008261390357634e487b7160e01b81526012600452602481fd5b500490565b6000816000190483118215151615613922576139226139b9565b500290565b600082821015613939576139396139b9565b500390565b600063ffffffff8381169083168181101561395b5761395b6139b9565b039392505050565b600181811c9082168061397757607f821691505b6020821081141561399857634e487b7160e01b600052602260045260246000fd5b50919050565b60006000198214156139b2576139b26139b9565b5060010190565b634e487b7160e01b600052601160045260246000fd5b634e487b7160e01b600052602160045260246000fd5b634e487b7160e01b600052604160045260246000fdfea264697066735822122012652d114a5e13b499aa4dce2295c758f155ec7fc43956353aa68be84394605c64736f6c63430008040033",
  "immutableReferences": {},
  "source": "// SPDX-License-Identifier: MIT\npragma solidity ^0.8.4;\n\nimport \"@openzeppelin/contracts/utils/math/SafeMath.sol\";\nimport \"@openzeppelin/contracts/security/ReentrancyGuard.sol\";\n\ncontract CrowdFund is ReentrancyGuard {\n    using SafeMath for uint256;\n\n    /*===== Events =====*/\n    event NewProjectCreated(\n        uint256 indexed id,\n        address projectCreator,\n        string projectTitle,\n        string projectDesc,\n        uint256 projectDeadline,\n        uint256 goalAmount\n    );\n\n    event ExpireFundraise(\n        uint256 indexed id,\n        string name,\n        uint256 projectDeadline,\n        uint256 goal\n    );\n    \n    event SuccessFundRaise(\n        uint256 indexed id,\n        string name,\n        uint256 projectDeadline,\n        uint256 goal\n    );\n    \n    event SuccessButContinueFundRaise(\n        uint256 indexed id,\n        string name,\n        uint256 projectDeadline,\n        uint256 goal\n    );\n\n    event FundsReceive(\n        uint256 indexed id,\n        address contributor,\n        uint256 amount,\n        uint256 totalPledged\n    );\n\n    event NewWithdrawalRequest(\n        uint256 indexed id,\n        string description,\n        uint256 amount\n    );\n\n    event GenerateRefund(\n        uint256 indexed id,\n        address refundRequestUser,\n        uint256 refundAmt\n    );\n\n    event ApproveRequest(uint256 indexed _id, uint32 _withdrawalRequestIndex);\n\n    event RejectRequest(uint256 indexed _id, uint32 _withdrawalRequestIndex);\n\n    event TransferRequestFunds(\n        uint256 indexed _id,\n        uint32 _withdrawalRequestIndex\n    );\n\n    event PayCreator( uint256 indexed _id, uint32 _withdrawalRequestIndex, uint256 _amountTransfered);\n\n    event PayPlatform(uint256 indexed _id, uint32 _withdrawalRequestIndex, uint256 _amountTransfered);\n\n    /*===== State variables =====*/\n    address payable platformAdmin;\n\n    enum State {\n        Fundraise,\n        Expire,\n        Success\n    }\n\n    enum Withdrawal {\n        Allow,\n        Reject\n    }\n\n    struct Project {\n        // project ID\n        uint256 id;\n        // address of the creator of project\n        address payable creator;\n        // name of the project\n        string name;\n        // description of the project\n        string description;\n        // end of fundraising date\n        uint256 projectDeadline;\n        // total amount that has been pledged until this point\n        uint256 totalPledged;\n        // total amount needed for a successful campaign\n        uint256 goal;\n        // number of depositors\n        uint256 totalDepositors;\n        // total funds withdrawn from project\n        uint256 totalWithdrawn;\n        // current state of the fundraise\n        State currentState;\n        // holds URL of IPFS upload\n        string ipfsURL;\n    }\n\n    struct WithdrawalRequest {\n        uint32 index;\n        // purpose of withdrawal\n        string description;\n        // amount of withdrawal requested\n        uint256 withdrawalAmount;\n        // project owner address\n        address payable recipient;\n        // total votes received for request\n        uint256 approvedVotes;\n        // current state of the withdrawal request\n        Withdrawal currentWithdrawalState;\n        // hash of the ipfs storage\n        string ipfsHash;\n        // boolean to represent if amount has been withdrawn\n        bool withdrawn;\n    }\n\n    mapping(address => uint) balances;\n\n    // project states\n    uint256 public projectCount;\n    mapping(uint256 => Project) public idToProject;\n    // project id => contributor => contribution\n    mapping(uint256 => mapping(address => uint256)) public contributions;\n\n    // withdrawal requests\n    mapping(uint256 => WithdrawalRequest[]) public idToWithdrawalRequests;\n    // project ID => withdrawal request Index\n    mapping(uint256 => uint32) latestWithdrawalIndex;\n\n    // id => request number => address\n    mapping(uint256 => mapping(uint32 => address[])) approvals;\n    mapping(uint256 => mapping(uint32 => address[])) rejections;\n\n\n    /*===== Modifiers =====*/\n    modifier checkState(uint256 _id, State _state) {\n        require(\n            idToProject[_id].currentState == _state,\n            \"Unmatching states. Invalid operation\"\n        );\n        _;\n    }\n\n    modifier onlyAdmin() {\n        require(\n            msg.sender == platformAdmin,\n            \"Unauthorized access. Only admin can use this function\"\n        );\n        _;\n    }\n\n    modifier onlyProjectOwner(uint256 _id) {\n        require(\n            msg.sender == idToProject[_id].creator,\n            \"Unauthorized access. Only project owner can use this function\"\n        );\n        _;\n    }\n\n    modifier onlyProjectDonor(uint256 _id) {\n        require(\n            contributions[_id][msg.sender] > 0,\n            \"Unauthorized access. Only project funders can use this function.\"\n        );\n        _;\n    }\n\n    modifier checkLatestWithdrawalIndex(\n        uint256 _id,\n        uint32 _withdrawalRequestIndex\n    ) {\n        require(\n            latestWithdrawalIndex[_id] == _withdrawalRequestIndex,\n            \"This is not the latest withdrawal request. Please check again and try later\"\n        );\n        _;\n    }\n\n    constructor() ReentrancyGuard() {\n        platformAdmin = payable(msg.sender);\n        projectCount = 0;\n    }\n\n    // make contract payable\n    fallback() external payable {\n        platformAdmin.transfer(msg.value);\n    }\n    receive() external payable {}\n    \n\n    /*===== Functions  =====*/\n\n    /** @dev Function to start a new project.\n     * @param _name Name of the project\n     * @param _description Project Description\n     * @param _projectDeadline Total days to end of fundraise\n     * @param _goalEth Project goal in ETH\n     */\n    function createNewProject(\n        string memory _name,\n        string memory _description,\n        uint256 _projectDeadline,\n        uint256 _goalEth,\n        string memory _ipfsURL\n    ) public {\n        // update ID\n        projectCount += 1;\n\n        // log goal as wei\n        uint256 _goal = _goalEth * 1e18;\n\n        // create new fundraise object\n        Project memory newFR = Project({\n            id: projectCount,\n            creator: payable(msg.sender),\n            name: _name,\n            description: _description,\n            projectDeadline: _projectDeadline,\n            totalPledged: 0,\n            goal: _goal,\n            currentState: State.Fundraise,\n            totalDepositors: 0,\n            totalWithdrawn: 0,\n            ipfsURL: _ipfsURL\n        });\n\n        // update mapping of id to new project\n        idToProject[projectCount] = newFR;\n\n        // initiate total withdrawal requests \n        latestWithdrawalIndex[projectCount] = 0;\n\n        // emit event\n        emit NewProjectCreated(\n            projectCount,\n            msg.sender,\n            _name,\n            _description,\n            _projectDeadline,\n            _goal\n        );\n    }\n\n    /** @dev Function to make a contribution to the project\n     * @param _id Project ID where contributions are to be made\n     */\n    function contributeFunds(uint256 _id)\n        public\n        payable\n        checkState(_id, State.Fundraise)\n        nonReentrant()\n    {\n        require(_id <= projectCount, \"Project ID out of range\");\n\n        require(\n            msg.value > 0,\n            \"Invalid transaction. Please send valid amounts to the project\"\n        );\n\n        require(\n            block.timestamp <= idToProject[_id].projectDeadline,\n            \"Contributions cannot be made to this project anymore.\"\n        );\n\n        // transfer contributions to contract address\n        balances[address(this)] += msg.value;\n\n        // add to contribution\n        contributions[_id][msg.sender] += msg.value;\n\n        // increase total contributions pledged to the project\n        idToProject[_id].totalPledged += msg.value;\n\n        // add one to total number of depositors for this project\n        idToProject[_id].totalDepositors += 1;\n\n        emit FundsReceive(\n            _id,\n            msg.sender,\n            msg.value,\n            idToProject[_id].totalPledged\n        );\n    }\n\n    /** @dev Function to end fundraising drive\n    * @param _id Project ID\n    */\n    function endContributionsExpire(uint256 _id) \n        public \n        onlyProjectDonor(_id)\n        checkState(_id, State.Fundraise) \n        {\n            require(\n                block.timestamp > idToProject[_id].projectDeadline,\n                \"Invalid request. Can only be called after project deadline is reached\"\n            );\n\n            idToProject[_id].currentState = State.Expire;\n            emit ExpireFundraise(_id,\n                idToProject[_id].name,\n                idToProject[_id].projectDeadline,\n                idToProject[_id].goal\n            );\n        }\n    \n    /** @dev Function to end fundraising drive with success is total pledged higher than goal. Irrespective of deadline\n    * @param _id Project ID\n    */\n    function endContributionsSuccess(uint256 _id) \n        public \n        onlyProjectOwner(_id)\n        checkState(_id, State.Fundraise) \n        {\n            require(idToProject[_id].totalPledged >= idToProject[_id].goal, \"Did not receive enough funds\");\n\n            idToProject[_id].currentState = State.Success;\n            emit SuccessFundRaise(\n                _id,\n                idToProject[_id].name,\n                idToProject[_id].projectDeadline,\n                idToProject[_id].goal\n            );                \n        }\n\n    /** @dev Function to get refund on expired projects\n     * @param _id Project ID\n     */\n    function getRefund(uint256 _id)\n        public\n        payable\n        onlyProjectDonor(_id)\n        checkState(_id, State.Expire)\n        nonReentrant()\n    {\n        require(\n            block.timestamp > idToProject[_id].projectDeadline,\n            \"Project deadline hasn't been reached yet\"\n        );\n\n        address payable _contributor = payable(msg.sender);\n        uint256 _amount = contributions[_id][msg.sender];\n        (bool success, ) = _contributor.call{value: _amount}(\"\");\n        require(success, \"Transaction failed. Please try again later.\");\n        emit GenerateRefund(_id, _contributor, _amount);\n\n        // update project state\n        idToProject[_id].totalPledged -= _amount;\n        idToProject[_id].totalDepositors -= 1;\n    }\n\n    /** @dev Function to create a request for withdrawal of funds\n    * @param _id Project ID\n    * @param _requestNumber Index of the request\n    * @param _description  Purpose of withdrawal\n    * @param _amount Amount of withdrawal requested in ETH\n    */\n    function createWithdrawalRequest(\n        uint256 _id,\n        uint32 _requestNumber,\n        string memory _description,\n        uint256 _amount,\n        string memory _url\n    ) public onlyProjectOwner(_id) checkState(_id, State.Success){\n        require(idToProject[_id].totalWithdrawn < idToProject[_id].totalPledged, \"Insufficient funds\");\n\n        uint256 _withdraw = _amount * 1e18;\n\n        // create new withdrawal request\n        WithdrawalRequest memory newWR = WithdrawalRequest({\n            index: _requestNumber,\n            description: _description,\n            withdrawalAmount: _withdraw,\n            // funds withdrawn to project owner\n            recipient: idToProject[_id].creator,\n            // initialized with no votes for request\n            approvedVotes: 0,\n            // state changes on quorum\n            currentWithdrawalState: Withdrawal.Reject,\n            ipfsHash: _url,\n            withdrawn: false\n        });\n\n        // update project to request mapping\n        idToWithdrawalRequests[_id].push(newWR);\n        \n        latestWithdrawalIndex[_id] += 1;\n\n        // emit event\n        emit NewWithdrawalRequest(_id, _description, _amount);\n    }\n\n    /** @dev Function to check whether a given address has approved a specific request\n    * @param _id Project ID\n    * @param _withdrawalRequestIndex Index of the withdrawal request\n    * @param _checkAddress Address of the request initiator\n    */\n    function checkAddressInApprovalsIterator(\n        uint256 _id,\n        uint32 _withdrawalRequestIndex, \n        address _checkAddress\n    )\n        public\n        view \n        returns(bool) \n    {\n        // iterate over the array specific to this id and withdrawal request\n        for (uint256 i = 0; i < approvals[_id][_withdrawalRequestIndex - 1].length; i++) {\n            // if address is in the array, return true\n            if(approvals[_id][_withdrawalRequestIndex - 1][i] == _checkAddress) {\n                return true;\n            }\n        }\n    }\n\n    /** @dev Function to check whether a given address has rejected a specific request\n    * @param _id Project ID\n    * @param _withdrawalRequestIndex Index of the withdrawal request\n    * @param _checkAddress Address of the request initiator\n    */\n    function checkAddressInRejectionIterator(\n        uint256 _id,\n        uint32 _withdrawalRequestIndex, \n        address _checkAddress\n    ) \n        public\n        view\n        returns(bool) \n    {\n        // iterate over the array specific to this id and withdrawal request\n        for (uint256 i = 0; i < rejections[_id][_withdrawalRequestIndex - 1].length; i++) {\n            // if address is in the array, return true\n            if(rejections[_id][_withdrawalRequestIndex - 1][i] == _checkAddress) {\n                return true;\n            }\n        }\n    }\n\n    /** @dev Function to approve withdrawal of funds\n    * @param _id Project ID\n    * @param _withdrawalRequestIndex Index of withdrawal request\n    */\n    function approveWithdrawalRequest(\n        uint256 _id,\n        uint32 _withdrawalRequestIndex\n    )\n        public\n        onlyProjectDonor(_id)\n        checkState(_id, State.Success)\n        checkLatestWithdrawalIndex(_id, _withdrawalRequestIndex)\n    {\n        // confirm msg.sender hasn't approved request yet\n        require(!checkAddressInApprovalsIterator(_id, _withdrawalRequestIndex, msg.sender), \"Invalid operation. You have already approved this request\");\n\n        require(!checkAddressInRejectionIterator(_id, _withdrawalRequestIndex, msg.sender), \"Invalid operation. You have rejected this request\");\n\n        // get total withdrawal requests made\n        uint256 _lastWithdrawal = latestWithdrawalIndex[_id];\n\n        // iterate over all requests for this project\n        for (uint256 i = 0; i < _lastWithdrawal; i++) {\n            // if request number is equal to index\n            if(i + 1 == _withdrawalRequestIndex) {\n                // increment approval count\n                idToWithdrawalRequests[_id][i].approvedVotes += 1;\n            }\n        }\n\n        // push msg.sender to approvals list for this request\n        approvals[_id][_withdrawalRequestIndex - 1].push(msg.sender);\n        \n        emit ApproveRequest(_id, _withdrawalRequestIndex);\n    }\n\n    /** @dev Function to reject withdrawal of funds\n     * @param _id Project ID\n     * @param _withdrawalRequestIndex Index of withdrawal request\n     */\n    function rejectWithdrawalRequest(\n        uint256 _id,\n        uint32 _withdrawalRequestIndex\n    )\n        public\n        onlyProjectDonor(_id)\n        checkState(_id, State.Success)\n        checkLatestWithdrawalIndex(_id, _withdrawalRequestIndex)\n    {\n        // confirm user hasn't approved request\n        require(!checkAddressInApprovalsIterator(_id, _withdrawalRequestIndex, msg.sender), \"Invalid operation. You have approved this request\");\n\n        require(!checkAddressInRejectionIterator(_id, _withdrawalRequestIndex, msg.sender), \"Invalid operation. You have already rejected this request\");\n\n        // get total withdrawal requests made\n        uint256 _lastWithdrawal = latestWithdrawalIndex[_id];\n\n        // iterate over all requests for this project\n        for (uint256 i = 0; i < _lastWithdrawal; i++) {\n            // if request number is equal to index\n            if(i + 1 == _withdrawalRequestIndex) {\n                // increment approval count\n                idToWithdrawalRequests[_id][i].approvedVotes -= 1;\n            }\n        }\n\n        // add msg.sender to rejections list for this request\n        rejections[_id][_withdrawalRequestIndex - 1].push(msg.sender);\n\n        emit RejectRequest(_id, _withdrawalRequestIndex);\n    }\n\n    /** @dev Function to transfer funds to project creator\n     * @param _id Project ID\n     * @param _withdrawalRequestIndex Index of withdrawal request\n     */\n    function transferWithdrawalRequestFunds(\n        uint256 _id,\n        uint32 _withdrawalRequestIndex\n    )\n        public\n        payable\n        onlyProjectOwner(_id)\n        checkLatestWithdrawalIndex(_id, _withdrawalRequestIndex)\n        nonReentrant()\n    {\n        require(\n            // _withdrawalRequestIndex - 1 to accomodate 0 start of arrays\n            idToWithdrawalRequests[_id][_withdrawalRequestIndex - 1].approvedVotes >\n                    (idToProject[_id].totalDepositors).div(2)\n            ,\n            \"More than half the total depositors need to approve withdrawal request\"\n        );\n\n        require(idToWithdrawalRequests[_id][_withdrawalRequestIndex - 1].withdrawn == false, \"Withdrawal has laready been made for this request\");\n\n        require(idToWithdrawalRequests[_id][_withdrawalRequestIndex - 1].withdrawalAmount < idToProject[_id].totalPledged, \"Insufficient funds\");\n\n        WithdrawalRequest storage cRequest = idToWithdrawalRequests[_id][_withdrawalRequestIndex - 1];\n\n        // flat 0.3% platform fee\n        uint256 platformFee = (cRequest.withdrawalAmount.mul(3)).div(1000);\n        (bool pfSuccess, ) = payable(platformAdmin).call{value: platformFee}(\"\");\n        require(pfSuccess, \"Transaction failed. Please try again later.\");\n        emit PayPlatform(_id, _withdrawalRequestIndex, platformFee);\n        \n        // transfer funds to creator\n        address payable _creator = idToProject[_id].creator;\n        uint256 _amount = cRequest.withdrawalAmount - platformFee;\n        (bool success, ) = _creator.call{value: _amount}(\"\");\n        require(success, \"Transaction failed. Please try again later.\");\n        emit PayCreator(_id, _withdrawalRequestIndex, _amount);\n\n        // update states\n        cRequest.withdrawn = true;\n        idToProject[_id].totalWithdrawn += cRequest.withdrawalAmount;\n\n        emit TransferRequestFunds(_id, _withdrawalRequestIndex);\n    }\n\n    /* ==================================================================\n        THESE CONTRACTS CANNOT BE IN PRODUCTION. FIND A WORK AROUND TO UPDATE STATES FROM FRONTEND\n    */\n\n    /** @dev Function to update project IPFS hash on payment deposit\n     * @param _id Project ID\n     * @param _url new IPFS hash\n     * @param _newPledged Amount pledged by contributor\n     * *** IMPORTANT: find a way to make this functionality internal. This CANNOT be a public function in production\n     */\n    function updateProjectOnTx(\n        uint256 _id,\n        string memory _url,\n        uint256 _newPledged,\n        uint256 _netWithdrawn\n    ) public {\n        idToProject[_id].ipfsURL = _url;\n        idToProject[_id].totalPledged += _newPledged;\n        idToProject[_id].totalWithdrawn += _netWithdrawn;\n    }\n\n    /** @dev Function to update project IPFS hash on state change\n     * @param _id Project ID\n     * @param _url new IPFS hash\n     * *** IMPORTANT: find a way to make this functionality internal. This CANNOT be a public function in production\n     */\n    function updateProjectOnStateChange(\n        uint256 _id, \n        string memory _url\n    ) public {\n        idToProject[_id].ipfsURL = _url;\n    }\n\n    /** @dev Function to update withdrawal request IPFS hash and votes on state change\n     * @param _id Project ID\n     * @param _url new IPFS hash\n     * *** IMPORTANT: find a way to make this functionality internal. This CANNOT be a public function in production\n     */\n    function updateRequestState(uint256 _id, uint32 _withdrawalRequestIndex, string memory _url) public {\n        idToWithdrawalRequests[_id][_withdrawalRequestIndex - 1].ipfsHash = _url;\n    }\n\n    /* ====================================================================================== */\n\n\n\n    /*===== Blockchain get functions =====*/\n\n    /** @dev Function to get project details\n     * @param _id Project ID\n     */\n    function getProjectDetails(uint256 _id)\n        public\n        view\n        returns (\n            address creator,\n            string memory name,\n            string memory description,\n            uint256 projectDeadline,\n            uint256 totalPledged,\n            uint256 goal,\n            State currentState,\n            string memory url\n        )\n    {\n        creator = idToProject[_id].creator;\n        name = idToProject[_id].name;\n        description = idToProject[_id].description;\n        projectDeadline = idToProject[_id].projectDeadline;\n        totalPledged = idToProject[_id].totalPledged;\n        goal = idToProject[_id].goal;\n        currentState = idToProject[_id].currentState;\n        url = idToProject[_id].ipfsURL;\n    }\n\n    function getAllProjects() public view returns (Project[] memory) {\n        uint256 _projectCount = projectCount;\n\n        Project[] memory projects = new Project[](_projectCount);\n        for (uint256 i = 0; i < _projectCount; i++) {\n            uint256 currentId = i + 1;\n            Project storage currentItem = idToProject[currentId];\n            projects[i] = currentItem;\n        }\n        return projects;\n    }\n\n    function getProjectURL(uint256 _id)\n        public\n        view\n        returns (string memory url)\n    {\n        url = idToProject[_id].ipfsURL;\n    }\n\n    function getProjectCount() public view returns (uint256 count) {\n        count = projectCount;\n    }\n\n    function getAllWithdrawalRequests(uint256 _id)\n        public\n        view\n        returns (WithdrawalRequest[] memory)\n    {\n        uint256 _lastWithdrawal = latestWithdrawalIndex[_id];\n\n        WithdrawalRequest[] memory withdrawals = new WithdrawalRequest[](\n            _lastWithdrawal\n        );\n        for (uint256 i = 0; i < _lastWithdrawal; i++) {\n            WithdrawalRequest storage currentRequest = idToWithdrawalRequests[_id][i];\n            withdrawals[i] = currentRequest;\n        }\n\n        return withdrawals;\n    }\n\n    function getContributions(uint256 _id, address _contributor) public view returns(uint256) {\n        return contributions[_id][_contributor];\n    }\n}\n",
  "sourcePath": "/home/dhruv/Desktop/projects/dApps/08 - crowdfund/contracts/CrowdFund.sol",
  "compiler": {
    "name": "solc",
    "version": "0.8.4+commit.c7e474f2.Emscripten.clang"
  },
  "schemaVersion": "3.4.7",
  "updatedAt": "2022-06-05T06:57:28.934Z",
  "networkType": "ethereum",
  "devdoc": {
    "kind": "dev",
    "methods": {
      "approveWithdrawalRequest(uint256,uint32)": {
        "details": "Function to approve withdrawal of funds",
        "params": {
          "_id": "Project ID",
          "_withdrawalRequestIndex": "Index of withdrawal request"
        }
      },
      "checkAddressInApprovalsIterator(uint256,uint32,address)": {
        "details": "Function to check whether a given address has approved a specific request",
        "params": {
          "_checkAddress": "Address of the request initiator",
          "_id": "Project ID",
          "_withdrawalRequestIndex": "Index of the withdrawal request"
        }
      },
      "checkAddressInRejectionIterator(uint256,uint32,address)": {
        "details": "Function to check whether a given address has rejected a specific request",
        "params": {
          "_checkAddress": "Address of the request initiator",
          "_id": "Project ID",
          "_withdrawalRequestIndex": "Index of the withdrawal request"
        }
      },
      "contributeFunds(uint256)": {
        "details": "Function to make a contribution to the project",
        "params": {
          "_id": "Project ID where contributions are to be made"
        }
      },
      "createNewProject(string,string,uint256,uint256,string)": {
        "details": "Function to start a new project.",
        "params": {
          "_description": "Project Description",
          "_goalEth": "Project goal in ETH",
          "_name": "Name of the project",
          "_projectDeadline": "Total days to end of fundraise"
        }
      },
      "createWithdrawalRequest(uint256,uint32,string,uint256,string)": {
        "details": "Function to create a request for withdrawal of funds",
        "params": {
          "_amount": "Amount of withdrawal requested in ETH",
          "_description": "Purpose of withdrawal",
          "_id": "Project ID",
          "_requestNumber": "Index of the request"
        }
      },
      "endContributionsExpire(uint256)": {
        "details": "Function to end fundraising drive",
        "params": {
          "_id": "Project ID"
        }
      },
      "endContributionsSuccess(uint256)": {
        "details": "Function to end fundraising drive with success is total pledged higher than goal. Irrespective of deadline",
        "params": {
          "_id": "Project ID"
        }
      },
      "getProjectDetails(uint256)": {
        "details": "Function to get project details",
        "params": {
          "_id": "Project ID"
        }
      },
      "getRefund(uint256)": {
        "details": "Function to get refund on expired projects",
        "params": {
          "_id": "Project ID"
        }
      },
      "rejectWithdrawalRequest(uint256,uint32)": {
        "details": "Function to reject withdrawal of funds",
        "params": {
          "_id": "Project ID",
          "_withdrawalRequestIndex": "Index of withdrawal request"
        }
      },
      "transferWithdrawalRequestFunds(uint256,uint32)": {
        "details": "Function to transfer funds to project creator",
        "params": {
          "_id": "Project ID",
          "_withdrawalRequestIndex": "Index of withdrawal request"
        }
      },
      "updateProjectOnStateChange(uint256,string)": {
        "details": "Function to update project IPFS hash on state change",
        "params": {
          "_id": "Project ID",
          "_url": "new IPFS hash *** IMPORTANT: find a way to make this functionality internal. This CANNOT be a public function in production"
        }
      },
      "updateProjectOnTx(uint256,string,uint256,uint256)": {
        "details": "Function to update project IPFS hash on payment deposit",
        "params": {
          "_id": "Project ID",
          "_newPledged": "Amount pledged by contributor *** IMPORTANT: find a way to make this functionality internal. This CANNOT be a public function in production",
          "_url": "new IPFS hash"
        }
      },
      "updateRequestState(uint256,uint32,string)": {
        "details": "Function to update withdrawal request IPFS hash and votes on state change",
        "params": {
          "_id": "Project ID",
          "_url": "new IPFS hash *** IMPORTANT: find a way to make this functionality internal. This CANNOT be a public function in production"
        }
      }
    },
    "version": 1
  },
  "userdoc": {
    "kind": "user",
    "methods": {},
    "version": 1
  }
}